{
  "abi": [
    {
      "inputs": [],
      "stateMutability": "nonpayable",
      "type": "constructor"
    },
    {
      "anonymous": false,
      "inputs": [
        {
          "indexed": false,
          "internalType": "string",
          "name": "str",
          "type": "string"
        },
        {
          "indexed": false,
          "internalType": "uint256",
          "name": "randint",
          "type": "uint256"
        }
      ],
      "name": "SimpleEventForUpdates",
      "type": "event"
    },
    {
      "inputs": [
        {
          "internalType": "address",
          "name": "voter",
          "type": "address"
        },
        {
          "internalType": "address",
          "name": "recipient",
          "type": "address"
        },
        {
          "internalType": "uint32",
          "name": "weight",
          "type": "uint32"
        }
      ],
      "name": "addDagVote",
      "outputs": [],
      "stateMutability": "nonpayable",
      "type": "function"
    },
    {
      "inputs": [
        {
          "internalType": "address",
          "name": "voter",
          "type": "address"
        }
      ],
      "name": "calculateReputation",
      "outputs": [
        {
          "internalType": "uint256",
          "name": "",
          "type": "uint256"
        }
      ],
      "stateMutability": "nonpayable",
      "type": "function"
    },
    {
      "inputs": [
        {
          "internalType": "address",
          "name": "voter",
          "type": "address"
        },
        {
          "internalType": "string",
          "name": "name",
          "type": "string"
        }
      ],
      "name": "changeName",
      "outputs": [],
      "stateMutability": "nonpayable",
      "type": "function"
    },
    {
      "inputs": [],
      "name": "dag",
      "outputs": [
        {
          "internalType": "uint32",
          "name": "decimalPoint",
          "type": "uint32"
        },
        {
          "internalType": "uint32",
          "name": "MAX_REL_ROOT_DEPTH",
          "type": "uint32"
        },
        {
          "internalType": "address",
          "name": "root",
          "type": "address"
        }
      ],
      "stateMutability": "view",
      "type": "function"
    },
    {
      "inputs": [
        {
          "internalType": "address",
          "name": "add1",
          "type": "address"
        },
        {
          "internalType": "address",
          "name": "add2",
          "type": "address"
        }
      ],
      "name": "findDistAtSameDepth",
      "outputs": [
        {
          "internalType": "bool",
          "name": "isSameDepth",
          "type": "bool"
        },
        {
          "internalType": "uint32",
          "name": "distance",
          "type": "uint32"
        }
      ],
      "stateMutability": "view",
      "type": "function"
    },
    {
      "inputs": [
        {
          "internalType": "address",
          "name": "recipient",
          "type": "address"
        },
        {
          "internalType": "uint32",
          "name": "rdist",
          "type": "uint32"
        },
        {
          "internalType": "uint32",
          "name": "depth",
          "type": "uint32"
        }
      ],
      "name": "findLastRecDagVoteAtDistDepth",
      "outputs": [
        {
          "internalType": "bool",
          "name": "voted",
          "type": "bool"
        },
        {
          "internalType": "uint32",
          "name": "votePos",
          "type": "uint32"
        },
        {
          "components": [
            {
              "internalType": "address",
              "name": "id",
              "type": "address"
            },
            {
              "internalType": "uint32",
              "name": "weight",
              "type": "uint32"
            },
            {
              "internalType": "uint32",
              "name": "posInOther",
              "type": "uint32"
            }
          ],
          "internalType": "struct DagVote",
          "name": "vote",
          "type": "tuple"
        }
      ],
      "stateMutability": "view",
      "type": "function"
    },
    {
      "inputs": [
        {
          "internalType": "address",
          "name": "voter",
          "type": "address"
        },
        {
          "internalType": "uint32",
          "name": "sdist",
          "type": "uint32"
        },
        {
          "internalType": "uint32",
          "name": "depth",
          "type": "uint32"
        }
      ],
      "name": "findLastSentDagVoteAtDistDepth",
      "outputs": [
        {
          "internalType": "bool",
          "name": "voted",
          "type": "bool"
        },
        {
          "internalType": "uint32",
          "name": "votePos",
          "type": "uint32"
        },
        {
          "components": [
            {
              "internalType": "address",
              "name": "id",
              "type": "address"
            },
            {
              "internalType": "uint32",
              "name": "weight",
              "type": "uint32"
            },
            {
              "internalType": "uint32",
              "name": "posInOther",
              "type": "uint32"
            }
          ],
          "internalType": "struct DagVote",
          "name": "vote",
          "type": "tuple"
        }
      ],
      "stateMutability": "view",
      "type": "function"
    },
    {
      "inputs": [
        {
          "internalType": "address",
          "name": "voter",
          "type": "address"
        },
        {
          "internalType": "uint32",
          "name": "height",
          "type": "uint32"
        }
      ],
      "name": "findNthParent",
      "outputs": [
        {
          "internalType": "address",
          "name": "parent",
          "type": "address"
        }
      ],
      "stateMutability": "view",
      "type": "function"
    },
    {
      "inputs": [
        {
          "internalType": "address",
          "name": "voter",
          "type": "address"
        },
        {
          "internalType": "address",
          "name": "recipient",
          "type": "address"
        }
      ],
      "name": "findRecDagVote",
      "outputs": [
        {
          "internalType": "bool",
          "name": "votable",
          "type": "bool"
        },
        {
          "internalType": "bool",
          "name": "voted",
          "type": "bool"
        },
        {
          "internalType": "uint32",
          "name": "rdist",
          "type": "uint32"
        },
        {
          "internalType": "uint32",
          "name": "depth",
          "type": "uint32"
        },
        {
          "internalType": "uint32",
          "name": "votePos",
          "type": "uint32"
        },
        {
          "components": [
            {
              "internalType": "address",
              "name": "id",
              "type": "address"
            },
            {
              "internalType": "uint32",
              "name": "weight",
              "type": "uint32"
            },
            {
              "internalType": "uint32",
              "name": "posInOther",
              "type": "uint32"
            }
          ],
          "internalType": "struct DagVote",
          "name": "dagVote",
          "type": "tuple"
        }
      ],
      "stateMutability": "view",
      "type": "function"
    },
    {
      "inputs": [
        {
          "internalType": "address",
          "name": "voter",
          "type": "address"
        },
        {
          "internalType": "address",
          "name": "recipient",
          "type": "address"
        },
        {
          "internalType": "uint32",
          "name": "rdist",
          "type": "uint32"
        },
        {
          "internalType": "uint32",
          "name": "depth",
          "type": "uint32"
        }
      ],
      "name": "findRecDagVotePosAtDistDepth",
      "outputs": [
        {
          "internalType": "bool",
          "name": "voted",
          "type": "bool"
        },
        {
          "internalType": "uint32",
          "name": "votePos",
          "type": "uint32"
        },
        {
          "components": [
            {
              "internalType": "address",
              "name": "id",
              "type": "address"
            },
            {
              "internalType": "uint32",
              "name": "weight",
              "type": "uint32"
            },
            {
              "internalType": "uint32",
              "name": "posInOther",
              "type": "uint32"
            }
          ],
          "internalType": "struct DagVote",
          "name": "vote",
          "type": "tuple"
        }
      ],
      "stateMutability": "view",
      "type": "function"
    },
    {
      "inputs": [
        {
          "internalType": "address",
          "name": "voter",
          "type": "address"
        },
        {
          "internalType": "address",
          "name": "recipient",
          "type": "address"
        }
      ],
      "name": "findRecTreeVotePos",
      "outputs": [
        {
          "internalType": "bool",
          "name": "voted",
          "type": "bool"
        },
        {
          "internalType": "uint32",
          "name": "votePos",
          "type": "uint32"
        }
      ],
      "stateMutability": "view",
      "type": "function"
    },
    {
      "inputs": [
        {
          "internalType": "address",
          "name": "voter",
          "type": "address"
        },
        {
          "internalType": "address",
          "name": "recipient",
          "type": "address"
        }
      ],
      "name": "findRelDepth",
      "outputs": [
        {
          "internalType": "bool",
          "name": "isLocal",
          "type": "bool"
        },
        {
          "internalType": "uint32",
          "name": "relDepth",
          "type": "uint32"
        }
      ],
      "stateMutability": "view",
      "type": "function"
    },
    {
      "inputs": [
        {
          "internalType": "address",
          "name": "voter",
          "type": "address"
        }
      ],
      "name": "findRelRoot",
      "outputs": [
        {
          "internalType": "address",
          "name": "relRoot",
          "type": "address"
        },
        {
          "internalType": "uint32",
          "name": "relDepth",
          "type": "uint32"
        }
      ],
      "stateMutability": "view",
      "type": "function"
    },
    {
      "inputs": [
        {
          "internalType": "address",
          "name": "voter",
          "type": "address"
        },
        {
          "internalType": "address",
          "name": "recipient",
          "type": "address"
        }
      ],
      "name": "findSDistDepth",
      "outputs": [
        {
          "internalType": "bool",
          "name": "isLocal",
          "type": "bool"
        },
        {
          "internalType": "uint32",
          "name": "distance",
          "type": "uint32"
        },
        {
          "internalType": "uint32",
          "name": "relDepth",
          "type": "uint32"
        }
      ],
      "stateMutability": "view",
      "type": "function"
    },
    {
      "inputs": [
        {
          "internalType": "address",
          "name": "voter",
          "type": "address"
        },
        {
          "internalType": "address",
          "name": "recipient",
          "type": "address"
        }
      ],
      "name": "findSentDagVote",
      "outputs": [
        {
          "internalType": "bool",
          "name": "votable",
          "type": "bool"
        },
        {
          "internalType": "bool",
          "name": "voted",
          "type": "bool"
        },
        {
          "internalType": "uint32",
          "name": "sdist",
          "type": "uint32"
        },
        {
          "internalType": "uint32",
          "name": "depth",
          "type": "uint32"
        },
        {
          "internalType": "uint32",
          "name": "votePos",
          "type": "uint32"
        },
        {
          "components": [
            {
              "internalType": "address",
              "name": "id",
              "type": "address"
            },
            {
              "internalType": "uint32",
              "name": "weight",
              "type": "uint32"
            },
            {
              "internalType": "uint32",
              "name": "posInOther",
              "type": "uint32"
            }
          ],
          "internalType": "struct DagVote",
          "name": "dagVote",
          "type": "tuple"
        }
      ],
      "stateMutability": "view",
      "type": "function"
    },
    {
      "inputs": [
        {
          "internalType": "address",
          "name": "voter",
          "type": "address"
        },
        {
          "internalType": "address",
          "name": "recipient",
          "type": "address"
        },
        {
          "internalType": "uint32",
          "name": "sdist",
          "type": "uint32"
        },
        {
          "internalType": "uint32",
          "name": "depth",
          "type": "uint32"
        }
      ],
      "name": "findSentDagVotePosAtDistDepth",
      "outputs": [
        {
          "internalType": "bool",
          "name": "voted",
          "type": "bool"
        },
        {
          "internalType": "uint32",
          "name": "votePos",
          "type": "uint32"
        },
        {
          "components": [
            {
              "internalType": "address",
              "name": "id",
              "type": "address"
            },
            {
              "internalType": "uint32",
              "name": "weight",
              "type": "uint32"
            },
            {
              "internalType": "uint32",
              "name": "posInOther",
              "type": "uint32"
            }
          ],
          "internalType": "struct DagVote",
          "name": "vote",
          "type": "tuple"
        }
      ],
      "stateMutability": "view",
      "type": "function"
    },
    {
      "inputs": [
        {
          "internalType": "address",
          "name": "voter",
          "type": "address"
        },
        {
          "internalType": "string",
          "name": "name",
          "type": "string"
        },
        {
          "internalType": "address",
          "name": "recipient",
          "type": "address"
        }
      ],
      "name": "joinTree",
      "outputs": [],
      "stateMutability": "nonpayable",
      "type": "function"
    },
    {
      "inputs": [
        {
          "internalType": "address",
          "name": "voter",
          "type": "address"
        },
        {
          "internalType": "string",
          "name": "name",
          "type": "string"
        }
      ],
      "name": "joinTreeAsRoot",
      "outputs": [],
      "stateMutability": "nonpayable",
      "type": "function"
    },
    {
      "inputs": [
        {
          "internalType": "address",
          "name": "voter",
          "type": "address"
        }
      ],
      "name": "leaveTree",
      "outputs": [],
      "stateMutability": "nonpayable",
      "type": "function"
    },
    {
      "inputs": [
        {
          "internalType": "address",
          "name": "voter",
          "type": "address"
        },
        {
          "internalType": "address",
          "name": "recipient",
          "type": "address"
        }
      ],
      "name": "moveTreeVote",
      "outputs": [],
      "stateMutability": "nonpayable",
      "type": "function"
    },
    {
      "inputs": [
        {
          "internalType": "address",
          "name": "voter",
          "type": "address"
        }
      ],
      "name": "readDepth",
      "outputs": [
        {
          "internalType": "uint32",
          "name": "",
          "type": "uint32"
        }
      ],
      "stateMutability": "view",
      "type": "function"
    },
    {
      "inputs": [],
      "name": "readMaxRelRootDepth",
      "outputs": [
        {
          "internalType": "uint32",
          "name": "",
          "type": "uint32"
        }
      ],
      "stateMutability": "view",
      "type": "function"
    },
    {
      "inputs": [
        {
          "internalType": "address",
          "name": "voter",
          "type": "address"
        }
      ],
      "name": "readName",
      "outputs": [
        {
          "internalType": "string",
          "name": "",
          "type": "string"
        }
      ],
      "stateMutability": "view",
      "type": "function"
    },
    {
      "inputs": [
        {
          "internalType": "address",
          "name": "recipient",
          "type": "address"
        },
        {
          "internalType": "uint32",
          "name": "rdist",
          "type": "uint32"
        },
        {
          "internalType": "uint32",
          "name": "depth",
          "type": "uint32"
        },
        {
          "internalType": "uint32",
          "name": "votePos",
          "type": "uint32"
        }
      ],
      "name": "readRecDagVote",
      "outputs": [
        {
          "components": [
            {
              "internalType": "address",
              "name": "id",
              "type": "address"
            },
            {
              "internalType": "uint32",
              "name": "weight",
              "type": "uint32"
            },
            {
              "internalType": "uint32",
              "name": "posInOther",
              "type": "uint32"
            }
          ],
          "internalType": "struct DagVote",
          "name": "",
          "type": "tuple"
        }
      ],
      "stateMutability": "view",
      "type": "function"
    },
    {
      "inputs": [
        {
          "internalType": "address",
          "name": "recipient",
          "type": "address"
        },
        {
          "internalType": "uint32",
          "name": "rdist",
          "type": "uint32"
        },
        {
          "internalType": "uint32",
          "name": "depth",
          "type": "uint32"
        }
      ],
      "name": "readRecDagVoteCount",
      "outputs": [
        {
          "internalType": "uint32",
          "name": "",
          "type": "uint32"
        }
      ],
      "stateMutability": "view",
      "type": "function"
    },
    {
      "inputs": [
        {
          "internalType": "address",
          "name": "recipient",
          "type": "address"
        }
      ],
      "name": "readRecDagVoteDepthDiff",
      "outputs": [
        {
          "internalType": "uint32",
          "name": "",
          "type": "uint32"
        }
      ],
      "stateMutability": "view",
      "type": "function"
    },
    {
      "inputs": [
        {
          "internalType": "address",
          "name": "recipient",
          "type": "address"
        }
      ],
      "name": "readRecDagVoteDistDiff",
      "outputs": [
        {
          "internalType": "uint32",
          "name": "",
          "type": "uint32"
        }
      ],
      "stateMutability": "view",
      "type": "function"
    },
    {
      "inputs": [
        {
          "internalType": "address",
          "name": "recipient",
          "type": "address"
        },
        {
          "internalType": "uint32",
          "name": "votePos",
          "type": "uint32"
        }
      ],
      "name": "readRecTreeVote",
      "outputs": [
        {
          "internalType": "address",
          "name": "",
          "type": "address"
        }
      ],
      "stateMutability": "view",
      "type": "function"
    },
    {
      "inputs": [
        {
          "internalType": "address",
          "name": "recipient",
          "type": "address"
        }
      ],
      "name": "readRecTreeVoteCount",
      "outputs": [
        {
          "internalType": "uint32",
          "name": "",
          "type": "uint32"
        }
      ],
      "stateMutability": "view",
      "type": "function"
    },
    {
      "inputs": [
        {
          "internalType": "address",
          "name": "voter",
          "type": "address"
        }
      ],
      "name": "readReputation",
      "outputs": [
        {
          "internalType": "uint256",
          "name": "",
          "type": "uint256"
        }
      ],
      "stateMutability": "view",
      "type": "function"
    },
    {
      "inputs": [],
      "name": "readRoot",
      "outputs": [
        {
          "internalType": "address",
          "name": "",
          "type": "address"
        }
      ],
      "stateMutability": "view",
      "type": "function"
    },
    {
      "inputs": [
        {
          "internalType": "address",
          "name": "voter",
          "type": "address"
        },
        {
          "internalType": "uint32",
          "name": "sdist",
          "type": "uint32"
        },
        {
          "internalType": "uint32",
          "name": "depth",
          "type": "uint32"
        },
        {
          "internalType": "uint32",
          "name": "votePos",
          "type": "uint32"
        }
      ],
      "name": "readSentDagVote",
      "outputs": [
        {
          "components": [
            {
              "internalType": "address",
              "name": "id",
              "type": "address"
            },
            {
              "internalType": "uint32",
              "name": "weight",
              "type": "uint32"
            },
            {
              "internalType": "uint32",
              "name": "posInOther",
              "type": "uint32"
            }
          ],
          "internalType": "struct DagVote",
          "name": "",
          "type": "tuple"
        }
      ],
      "stateMutability": "view",
      "type": "function"
    },
    {
      "inputs": [
        {
          "internalType": "address",
          "name": "voter",
          "type": "address"
        },
        {
          "internalType": "uint32",
          "name": "sdist",
          "type": "uint32"
        },
        {
          "internalType": "uint32",
          "name": "depth",
          "type": "uint32"
        }
      ],
      "name": "readSentDagVoteCount",
      "outputs": [
        {
          "internalType": "uint32",
          "name": "",
          "type": "uint32"
        }
      ],
      "stateMutability": "view",
      "type": "function"
    },
    {
      "inputs": [
        {
          "internalType": "address",
          "name": "voter",
          "type": "address"
        }
      ],
      "name": "readSentDagVoteDepthDiff",
      "outputs": [
        {
          "internalType": "uint32",
          "name": "",
          "type": "uint32"
        }
      ],
      "stateMutability": "view",
      "type": "function"
    },
    {
      "inputs": [
        {
          "internalType": "address",
          "name": "voter",
          "type": "address"
        }
      ],
      "name": "readSentDagVoteDistDiff",
      "outputs": [
        {
          "internalType": "uint32",
          "name": "",
          "type": "uint32"
        }
      ],
      "stateMutability": "view",
      "type": "function"
    },
    {
      "inputs": [
        {
          "internalType": "address",
          "name": "voter",
          "type": "address"
        }
      ],
      "name": "readSentDagVoteTotalWeight",
      "outputs": [
        {
          "internalType": "uint32",
          "name": "",
          "type": "uint32"
        }
      ],
      "stateMutability": "view",
      "type": "function"
    },
    {
      "inputs": [
        {
          "internalType": "address",
          "name": "voter",
          "type": "address"
        }
      ],
      "name": "readSentTreeVote",
      "outputs": [
        {
          "internalType": "address",
          "name": "",
          "type": "address"
        }
      ],
      "stateMutability": "view",
      "type": "function"
    },
    {
      "inputs": [
        {
          "internalType": "address",
          "name": "voter",
          "type": "address"
        },
        {
          "internalType": "address",
          "name": "recipient",
          "type": "address"
        }
      ],
      "name": "removeDagVote",
      "outputs": [],
      "stateMutability": "nonpayable",
      "type": "function"
    },
    {
      "inputs": [
        {
          "internalType": "address",
          "name": "voter",
          "type": "address"
        }
      ],
      "name": "switchPositionWithParent",
      "outputs": [],
      "stateMutability": "nonpayable",
      "type": "function"
    }
  ],
  "bytecode": {
    "object": "0x6080806040523461002d57600080546001600160401b03191664060000001217905561330390816100338239f35b600080fdfe60a080604052600436101561001357600080fd5b600060805260003560e01c908162a1efe514612997575080630520b5a4146128f757806305279858146128b457806310839bf714612812578063199cd8c0146125ae578063270e32cd1461253f57806327c06fd5146125145780632e4ba760146124ca57806337ba0eb11461238e57806339273f59146123155780633aaf189b1461226a5780633d325c36146121fb578063429ccb05146121be57806345ca25ed1461200a57806349bb27e014611f9157806350ab663114611f04578063519bf72d14611e8b57806359bf02a514611dde5780636be22cd214611c0a5780637199f96b14611bb75780637cb7ed4414611b355780637fb2ed2a14611a77578063806df9591461193b578063825a38551461190a578063a16877d514611874578063a571dcd7146117de578063ab70b4c614611765578063b062aaec146116c4578063b9aae95d146115f3578063c0a6033c1461151d578063c5ce031814610d4e578063cfaced4c14610c56578063d5a6436114610ba7578063dceb5b7914610a45578063dd88aa9514610978578063e614a68d146108da578063ebc9bd6214610811578063eeaebe871461035a5763ff8f07de146101d057600080fd5b3461032a57602036600319011261032a576001600160a01b036101f1612a0c565b166101fd813314612bf1565b6000805160206132ae83398151915260606040516040815260805160408201526080516020820152a173__$49ce59d1ddda15b782622b110191f6a6ba$__803b1561032a5760405163039c39a160e01b8152608080516004830152602482018490525181604481855af4801561031d57610345575b50803b1561032a57604051633c53f05560e21b8152608080516004830152602482018490525181604481855af4801561031d57610330575b50803b1561032a5760405190632cc8ea6f60e01b8252608051600483015282602483015281604481608051935af4801561031d57610307575b50608051526002602052608051604081206001600160601b0360a01b815416905580f35b61031090612c23565b60805180156102e3575b80fd5b6040513d608051823e3d90fd5b60805180fd5b61033990612c23565b60805180156102aa5780fd5b61034e90612c23565b60805180156102725780fd5b3461032a57606036600319011261032a57610373612a0c565b67ffffffffffffffff9060243582811161032a57610395903690600401612a97565b604435936001600160a01b039290919083861686036106c3576000805160206132ae83398151915260606040516040815260805160408201526080516020820152a16103e48486163314612bf1565b83851660805152600260205261040284604060805120541615612bf1565b8386166080515260026020526104218460406080512054161515612bf1565b838616608051526003602052610445600263ffffffff604060805120541610612bf1565b838516608051526002602052608051604081208588166001600160601b0360a01b8254161790556001602052604081209383116107fa57508254608051600182811c921680156107f0575b60208310146107d957509081601f849311610785575b5060805190601f831160011461071c5760805192610711575b50508160011b916000199060031b1c19161790555b8083166080515260046020526080516040812090600360205263ffffffff6040822054169052602052608051604081208284166001600160601b0360a01b8254161790558184169052600360205261053763ffffffff6040608051205416612c0e565b8184166080515260036020526080516040812063ffffffff8019931683825416179055828416905260056020526080516040808220916103e892838582541617905560066020528181208385825416179055600a6020528181208385825416179055600b60205220918254161790556105b38183163314612bf1565b6000805160206132ae8339815191526060604051604081526000604082015260006020820152a1604051637e168e6360e11b815260006004820152818316602482015283821660448201526101009273__$49ce59d1ddda15b782622b110191f6a6ba$__8483606481845af49283156106b7576000906000906000976000966106d1575b50509061064a91816106c8575b50612bf1565b803b156106c35763ffffffff60c49381600097876040519a8b998a98639037412f60e01b8a528c60048b0152166024890152166044870152166064850152166084830152600160a48301525af480156106b7576106a8575b60805180f35b6106b190612c23565b806106a2565b6040513d6000823e3d90fd5b600080fd5b90501588610644565b915091506106fa92965061064a9450803d1061070a575b6106f28183612c4d565b810190612cf9565b5091979095909392915089610637565b503d6106e8565b0135905086806104bf565b84825260805160208120909450915b601f198416851061076d576001945083601f19811610610753575b505050811b0190556104d4565b0135600019600384901b60f8161c19169055868080610746565b8181013583556020948501946001909301920161072b565b909150836080515260805160208120601f850160051c8101602086106107d2575b9085949392915b601f840160051c820181106107c4575050506104a6565b8281558695506001016107ad565b50806107a6565b634e487b7160e01b90526022600452608051602490fd5b91607f1691610490565b634e487b7160e01b90526041600452608051602490fd5b3461032a57604036600319011261032a5761082a612a0c565b610832612b09565b60405163c78fff5b60e01b815260805160048201526001600160a01b03928316602482015263ffffffff90911660448201529060208260648173__$49ce59d1ddda15b782622b110191f6a6ba$__5af490811561031d576080519161089f575b6020925060405191168152f35b90506020823d82116108d2575b816108b960209383612c4d565b8101031261032a576108cc602092612c8d565b90610892565b3d91506108ac565b3461032a576080518060031936011261031a57604051638c001bb760e01b8152608051600482015260208160248173__$49ce59d1ddda15b782622b110191f6a6ba$__5af4801561031d576080519061093f575b60209063ffffffff60405191168152f35b506020813d8211610970575b8161095860209383612c4d565b8101031261032a5761096b602091612c7c565b61092e565b3d915061094b565b3461032a57604036600319011261032a57610991612a0c565b610999612a22565b60408051637485fa6b60e01b815260805160048201526001600160a01b0393841660248201529290911660448301528160648173__$49ce59d1ddda15b782622b110191f6a6ba$__5af490811561031d57608051908192610a13575b5060408051911515825263ffffffff929092166020820152f35b0390f35b9050610a37915060403d604011610a3e575b610a2f8183612c4d565b81019061326c565b90826109f5565b503d610a25565b3461032a57606036600319011261032a57610a5e612a0c565b610a66612a22565b610a6e612b1c565b6001600160a01b0392831690610a85338314612bf1565b6000805160206132ae8339815191526060604051604081526000604082015260006020820152a173__$49ce59d1ddda15b782622b110191f6a6ba$__9360405193637e168e6360e11b8552600060048601528360248601521691826044850152610100948585606481845af49485156106b757600090600090600098600098610b77575b505090610b1b91816106c85750612bf1565b803b156106c35760009460c4936040519788968795639037412f60e01b87528960048801526024870152604486015263ffffffff928380921660648701521660848501521660a48301525af480156106b7576106a85760805180f35b91509150610b97929750610b1b9650803d1061070a576106f28183612c4d565b5091989097909392915089610b09565b3461032a5760208060031936011261032a57610bc1612a0c565b60405163cc0a57c960e01b815260805160048201526001600160a01b039091166024820152818160448173__$49ce59d1ddda15b782622b110191f6a6ba$__5af490811561031d5760805191610c21575b5063ffffffff60405191168152f35b90508181813d8311610c4f575b610c388183612c4d565b8101031261032a57610c4990612c7c565b82610c12565b503d610c2e565b3461032a57606036600319011261032a57610c6f612a0c565b60a0610c79612b09565b610c81612b1c565b92610c8a61323c565b50610ca960405194859384936330e995ed60e21b855260048501612e51565b038173__$49ce59d1ddda15b782622b110191f6a6ba$__5af4801561031d576080519081928291610d18575b5060408051921515835263ffffffff93841660208085019190915282516001600160a01b031684830152820151841660608401520151909116608082015260a090f35b9050610a0f9250610d40915060a03d8111610d47575b610d388183612c4d565b810190613286565b9092610cd5565b503d610d2e565b3461032a57604036600319011261032a57610d67612a0c565b610d6f612a22565b6000805160206132ae83398151915260606040516040815260805160408201526080516020820152a1610dac336001600160a01b03841614612bf1565b608080516001600160a01b03848116909152600260205290516040902054610dd691161515612bf1565b608080516001600160a01b03838116909152600260205290516040902054610e0091161515612bf1565b60018060a01b038116608051526003602052610e2a600263ffffffff604060805120541610612bf1565b60408051624c9bfd60e11b815260805160048201526001600160a01b0384166024820152908160448173__$49ce59d1ddda15b782622b110191f6a6ba$__5af490811561031d57608051916114ed575b5060405163873823fb60e01b815260805160048201526001600160a01b038381166024830152841660448201529060608260648173__$49ce59d1ddda15b782622b110191f6a6ba$__5af4801561031d5760805190819382916114c6575b508093610ee58282612e27565b60405163873823fb60e01b815260805160048201526001600160a01b038981166024830152881660448201529094909260608460648173__$49ce59d1ddda15b782622b110191f6a6ba$__5af494851561031d57608051908195829761149d575b5060405163873823fb60e01b815260805160048201526001600160a01b038b81166024830152909416604485015260608460648173__$49ce59d1ddda15b782622b110191f6a6ba$__5af492831561031d576080519384958591611463575b50610fbc9063ffffffff6080515460201c16612e27565b9563ffffffff808816818816011161144d57608080516001600160a01b038f81169091526002602052905160408120549091169073__$49ce59d1ddda15b782622b110191f6a6ba$__3b1561031a57508d60405190632cc8ea6f60e01b8252608051600483015260018060a01b031660248201526080518160448173__$49ce59d1ddda15b782622b110191f6a6ba$__5af4801561031d57611438575b5063ffffffff8b161580611431575b611367575b5050506000146111825750505050505073__$49ce59d1ddda15b782622b110191f6a6ba$__3b1561032a576110bc91604051809381926326da1a9d60e11b8352608051948789600486016131ff565b038173__$49ce59d1ddda15b782622b110191f6a6ba$__5af4801561031d5761116d575b505b73__$49ce59d1ddda15b782622b110191f6a6ba$__3b1561032a57604051632ce48cf360e21b81526080805160048301526001600160a01b039384166024830152919092166044830152518160648173__$49ce59d1ddda15b782622b110191f6a6ba$__5af4801561031d576111585760805180f35b61116190612c23565b60805180156106a25780fd5b61117690612c23565b60805180156110e05780fd5b91939550919395506000146112125750505073__$49ce59d1ddda15b782622b110191f6a6ba$__3b1561032a576111d3916040518093819263241d9d2160e21b8352608051948789600486016131ff565b038173__$49ce59d1ddda15b782622b110191f6a6ba$__5af4801561031d576111fd575b506110e2565b61120690612c23565b60805180156111f75780fd5b919350915080611357575b1561126c5773__$49ce59d1ddda15b782622b110191f6a6ba$__3b1561032a576111d3916040518093819263241d9d2160e21b83526080519463ffffffff8083169116018789600486016131ff565b505073__$49ce59d1ddda15b782622b110191f6a6ba$__3b1561032a5760405163039c39a160e01b81526080805160048301526001600160a01b0384166024830152518160448173__$49ce59d1ddda15b782622b110191f6a6ba$__5af4801561031d57611342575b5073__$49ce59d1ddda15b782622b110191f6a6ba$__3b1561032a57604051633c53f05560e21b81526080805160048301526001600160a01b0384166024830152518160448173__$49ce59d1ddda15b782622b110191f6a6ba$__5af4801561031d576111fd57506110e2565b61134b90612c23565b60805180156112d55780fd5b50600163ffffffff83161161121d565b604051631eab285960e21b815260805160048201526001600160a01b038e16602482015263ffffffff8416604482015260208160648173__$49ce59d1ddda15b782622b110191f6a6ba$__5af490811561031d57608051916113f7575b506001600160a01b0316146113da575b8061106d565b6113ef929a506113e990612e11565b50612e11565b978b806113d4565b90506020813d602011611429575b8161141260209383612c4d565b8101031261032a5761142390612c8d565b8f6113c4565b3d9150611405565b5083611068565b61144190612c23565b60805180156110595780fd5b634e487b7160e01b600052601160045260246000fd5b905061148d919550610fbc945060603d606011611496575b6114858183612c4d565b8101906131d9565b90959194610fa5565b503d61147b565b915095506114bb91945060603d606011611496576114858183612c4d565b94919094958b610f46565b9150506114e391925060603d606011611496576114858183612c4d565b9291909286610ed8565b61150f915060403d604011611516575b6115078183612c4d565b8101906131b8565b5083610e7a565b503d6114fd565b3461032a5761155a606061153036612b80565b61153e95919593929361323c565b506040516306a6c17960e41b8152958694859460048601612d5f565b038173__$49ce59d1ddda15b782622b110191f6a6ba$__5af4801561031d57608051906115b9575b6060906115b7604051809260409060018060a01b0381511683528163ffffffff91826020820151166020860152015116910152565bf35b5060603d81116115ec575b6115ce8183612c4d565b81019060608183031261032a576060916115e791612ca1565b611582565b503d6115c4565b3461032a57604036600319011261032a5761160c612a0c565b611614612a22565b9061161d61323c565b5060405163b7f9a17960e01b815260805160048201526001600160a01b0391821660248201529116604482015261010090818160648173__$49ce59d1ddda15b782622b110191f6a6ba$__5af4801561031d5760805190819282839084928594611694575b5060405196508695610a0f9587612a38565b9450505050506116b5915082610a0f93903d1061070a576106f28183612c4d565b93958695949391929190611682565b3461032a5760208060031936011261032a576116de612a0c565b6040516302fd7b8d60e21b815260805160048201526001600160a01b039091166024820152818160448173__$49ce59d1ddda15b782622b110191f6a6ba$__5af490811561031d5760805191611738575b50604051908152f35b90508181813d831161175e575b61174f8183612c4d565b8101031261032a57518261172f565b503d611745565b3461032a5760208060031936011261032a5761177f612a0c565b604051638cea4c9b60e01b815260805160048201526001600160a01b039091166024820152818160448173__$49ce59d1ddda15b782622b110191f6a6ba$__5af490811561031d5760805191610c21575063ffffffff60405191168152f35b3461032a57604036600319011261032a576117f7612a0c565b6117ff612a22565b6040805163eb826b3d60e01b815260805160048201526001600160a01b0393841660248201529290911660448301528160648173__$49ce59d1ddda15b782622b110191f6a6ba$__5af490811561031d57608051908192610a13575060408051911515825263ffffffff929092166020820152f35b3461032a57604036600319011261032a5761188d612a0c565b611895612a22565b6040805163d934a2b160e01b815260805160048201526001600160a01b0393841660248201529290911660448301528160648173__$49ce59d1ddda15b782622b110191f6a6ba$__5af490811561031d57608051908192610a13575060408051911515825263ffffffff929092166020820152f35b3461032a57602036600319011261032a57602061192d611928612a0c565b612d96565b63ffffffff60405191168152f35b3461032a5760208060031936011261032a57611955612a0c565b6040516315611cab60e21b81526080805160048301526001600160a01b03909216602482015290518160448173__$49ce59d1ddda15b782622b110191f6a6ba$__5af490811561031d57608051916119d9575b6119cb604084848251938285938452825192818480938701528686019101612bce565b601f01601f19168101030190f35b903d8091833e6119e98183612c4d565b810191808284031261032a57815167ffffffffffffffff9283821161032a57019280601f8501121561032a578351928311611a5f5760405190611a35601f8501601f1916840183612c4d565b83825282848601011161032a57611a576040936119cb95848085019101612bce565b9150916119a8565b634e487b7160e01b6080515260416004526024608051fd5b3461032a57604036600319011261032a57611a90612a0c565b611a98612a22565b60405163873823fb60e01b815260805160048201526001600160a01b0392831660248201529116604482015260608160648173__$49ce59d1ddda15b782622b110191f6a6ba$__5af4801561031d576060916080519182918391611b15575b50604051921515835263ffffffff8092166020840152166040820152f35b915050611b2f9150823d8111611496576114858183612c4d565b84611af7565b3461032a57606036600319011261032a57611b4e612a0c565b6020611b58612b09565b611b60612b1c565b92611b7f60405194859384936351dc622d60e11b855260048501612e51565b038173__$49ce59d1ddda15b782622b110191f6a6ba$__5af4801561031d576080519061093f5760209063ffffffff60405191168152f35b3461032a57606036600319011261032a57611bd0612a0c565b60a0611bda612b09565b611be2612b1c565b92611beb61323c565b50610ca96040519485938493632c159e2b60e11b855260048501612e51565b3461032a57602036600319011261032a57611c23612a0c565b6001600160a01b0381811691611c3a338414612bf1565b6000805160206132ae8339815191526060604051604081526000604082015260006020820152a1611cce611cbf83611c848460018060a01b03166000526002602052604060002090565b541693611c92851515612bf1565b611c9f6001861415612bf1565b6001600160a01b0385166000908152600260205260409020541692612ee7565b611cc884612ee7565b10612bf1565b73__$49ce59d1ddda15b782622b110191f6a6ba$__91823b1561032a576040516326da1a9d60e11b81526000600482015281602482015281604482015284606482015260006084820152600060a48201526080518160c481875af480156106b757611dcf575b50823b1561032a576040519163241d9d2160e21b8352600060048401528460248401526044830152606482015260026084820152600260a48201526080518160c481855af480156106b757611dc0575b50803b1561032a57604051916302995b5b60e51b835260006004840152602483015281604481608051935af480156106b7576106a85760805180f35b611dc990612c23565b82611d84565b611dd890612c23565b84611d34565b3461032a5760208060031936011261032a57611df8612a0c565b604051632184acd960e01b815260805160048201526001600160a01b03918216602482015290828260448173__$49ce59d1ddda15b782622b110191f6a6ba$__5af491821561031d5760805192611e54575b5060405191168152f35b9091508281813d8311611e84575b611e6c8183612c4d565b8101031261032a57611e7d90612c8d565b9083611e4a565b503d611e62565b3461032a5760208060031936011261032a57611ea5612a0c565b60405163276dcfeb60e11b815260805160048201526001600160a01b039091166024820152818160448173__$49ce59d1ddda15b782622b110191f6a6ba$__5af490811561031d5760805191610c21575063ffffffff60405191168152f35b3461032a57604036600319011261032a57611f1d612a0c565b611f25612b09565b604051631eab285960e21b815260805160048201526001600160a01b03928316602482015263ffffffff90911660448201529060208260648173__$49ce59d1ddda15b782622b110191f6a6ba$__5af490811561031d576080519161089f576020925060405191168152f35b3461032a5760208060031936011261032a57611fab612a0c565b60405163187d2b1360e31b815260805160048201526001600160a01b039091166024820152818160448173__$49ce59d1ddda15b782622b110191f6a6ba$__5af490811561031d5760805191610c21575063ffffffff60405191168152f35b3461032a5761201836612ac5565b90916001600160a01b0391908216612031338214612bf1565b612079604051936040855260805160408601526000805160206132ae83398151915260606080519660209788820152a182608051526002855260406080512054161515612bf1565b6080515260019182815260805193604085209467ffffffffffffffff84116107fa575084546080518582811c921680156121b4575b848310146107d95750601f8111612168575b5060805191601f84116001146121025750928293918392608051946120f7575b50501b916000199060031b1c191617905560805180f35b0135925085806120e0565b85835260805181812093918591601f198316915b8883831061214e5750505010612134575b505050811b0190556106a2565b0135600019600384901b60f8161c19169055838080612127565b868601358855909601959384019387935090810190612116565b8560805152608051838120601f860160051c8101928587106121aa575b601f0160051c019186905b83811061219f575050506120c0565b828155018690612190565b9092508290612185565b91607f16916120ae565b3461032a5761155a60606121d136612b80565b6121df95919593929361323c565b5060405163d6e2ac4f60e01b8152958694859460048601612d5f565b3461032a57610ca960a061220e36612b2f565b61221c95919593929361323c565b5060405163464b46fd60e11b8152600060048201526001600160a01b03938416602482015293909216604484015263ffffffff948516606484015293166084820152918290819060a4820190565b3461032a57602036600319011261032a57612283612a0c565b60408051624c9bfd60e11b815260805160048201526001600160a01b03928316602482015291908260448173__$49ce59d1ddda15b782622b110191f6a6ba$__5af491821561031d576040926080519182916122f0575b5063ffffffff9192845193168352166020820152f35b63ffffffff925061230e9150843d8611611516576115078183612c4d565b90916122da565b3461032a5760208060031936011261032a5761232f612a0c565b604051634a7fd3db60e01b815260805160048201526001600160a01b039091166024820152818160448173__$49ce59d1ddda15b782622b110191f6a6ba$__5af490811561031d5760805191610c21575063ffffffff60405191168152f35b3461032a57604036600319011261032a576123a7612a0c565b6123af612a22565b906000805160206132ae83398151915260606040516040815260805160408201526080516020820152a16001600160a01b0381811692906123f1338514612bf1565b604051637e168e6360e11b81526080516004820152602481019490945216604483015261010073__$49ce59d1ddda15b782622b110191f6a6ba$__8184606481845af491821561031d57608051809581928295612499575b5050600161245991151514612bf1565b813b1561032a576124859460405195869485938493635467b2b360e01b85526080519860048601612d5f565b03915af4801561031d576106a85760805180f35b6124599750600195506124bc935080919250903d1061070a576106f28183612c4d565b509197919590935090612449565b3461032a57606036600319011261032a576124e3612a0c565b60206124ed612b09565b6124f5612b1c565b92611b7f604051948593849363331adc3560e11b855260048501612e51565b3461032a57602036600319011261032a576020612537612532612a0c565b612ee7565b604051908152f35b3461032a57610ca960a061255236612b2f565b61256095919593929361323c565b50604051632151e2c960e21b8152600060048201526001600160a01b03938416602482015293909216604484015263ffffffff948516606484015293166084820152918290819060a4820190565b3461032a576125bc36612ac5565b9091604051916040835260805160408401526001936000805160206132ae83398151915260606020958787820152a16001600160a01b03838116929061263090612607338614612bf1565b84608051526002875261262281604060805120541615612bf1565b6080515460401c1615612bf1565b826080515285855260805191604083209267ffffffffffffffff83116107fa575082546080518882811c92168015612808575b888310146107d957509081601f8493116127b1575b5060805190601f831160011461274e5760805192612743575b5050600019600383901b1c191690861b1790555b60805152600282526080519260408420906001600160601b0360a01b82541617905582549068010000000000000000600160e01b039060401b169067ffffffffffffffff63ffffffff60e01b0116178255600581526040822090600b6103e89163ffffffff1993838582541617905560068152604085208385825416179055600a815260408520838582541617905552604083209182541617905580f35b013590508780612691565b8482526080518881208a95509290601f198516905b8a82821061279b5750508411612781575b505050811b0190556126a5565b0135600019600384901b60f8161c19169055878080612774565b8385013586558c97909501949283019201612763565b9091508360805152608051878120601f850160051c8101928986106127fe575b8594939291601f8c920160051c01925b8381106127f057505050612678565b8281558695508b91016127e1565b90925082906127d1565b91607f1691612663565b3461032a576080518060031936011261031a57604051631dd94a4360e21b8152608051600482015260208160248173__$49ce59d1ddda15b782622b110191f6a6ba$__5af4801561031d576080519061287b575b6040516001600160a01b039091168152602090f35b506020813d82116128ac575b8161289460209383612c4d565b8101031261032a576128a7602091612c8d565b612866565b3d9150612887565b3461032a576080518060031936011261031a57546040805163ffffffff8084168252602084811c9091169082015291811c6001600160a01b031690820152606090f35b3461032a57604036600319011261032a57612910612a0c565b612918612a22565b9061292161323c565b50604051637e168e6360e11b815260805160048201526001600160a01b0391821660248201529116604482015261010090818160648173__$49ce59d1ddda15b782622b110191f6a6ba$__5af4801561031d5760805190819282839084928594611694575060405196508695610a0f9587612a38565b346106c357602090816003193601126106c3576129b2612a0c565b63d6bb8c2d60e01b825260805160048301526001600160a01b03166024820152818160448173__$49ce59d1ddda15b782622b110191f6a6ba$__5af490811561031d5760805191610c21575063ffffffff60405191168152f35b600435906001600160a01b03821682036106c357565b602435906001600160a01b03821682036106c357565b901515815290151560208083019190915263ffffffff9283166040808401919091529383166060830152938216608082015284516001600160a01b031660a082015292840151811660c084015292015190911660e08201526101000190565b9181601f840112156106c35782359167ffffffffffffffff83116106c357602083818601950101116106c357565b9060406003198301126106c3576004356001600160a01b03811681036106c357916024359067ffffffffffffffff82116106c357612b0591600401612a97565b9091565b6024359063ffffffff821682036106c357565b6044359063ffffffff821682036106c357565b60809060031901126106c3576001600160a01b039060043582811681036106c3579160243590811681036106c3579063ffffffff9060443582811681036106c3579160643590811681036106c35790565b60809060031901126106c3576004356001600160a01b03811681036106c3579063ffffffff60243581811681036106c3579160443582811681036106c3579160643590811681036106c35790565b60005b838110612be15750506000910152565b8181015183820152602001612bd1565b15612bf857565b634e487b7160e01b600052600160045260246000fd5b90600163ffffffff8093160191821161144d57565b67ffffffffffffffff8111612c3757604052565b634e487b7160e01b600052604160045260246000fd5b90601f8019910116810190811067ffffffffffffffff821117612c3757604052565b519081151582036106c357565b519063ffffffff821682036106c357565b51906001600160a01b03821682036106c357565b91908260609103126106c3576040516060810181811067ffffffffffffffff821117612c37576040526040612cf4818395612cdb81612c8d565b8552612ce960208201612c7c565b602086015201612c7c565b910152565b9091610100828403126106c357612d0f82612c6f565b92612d1c60208401612c6f565b92612d2960408201612c7c565b92612d4f612d3960608401612c7c565b9360a0612d4860808601612c7c565b9401612ca1565b90565b506040513d6000823e3d90fd5b600081526001600160a01b03909116602082015263ffffffff91821660408201529181166060830152909116608082015260a00190565b6001600160a01b03818116600090815260026020526040902054811615612df5576001816040600020541614612df557612de5612dec9260018060a01b03166000526002602052604060002090565b5416612d96565b612d4f90612c0e565b5050600090565b63ffffffff80911690811461144d5760010190565b63ffffffff908116600019019190821161144d57565b63ffffffff918216908216039190821161144d57565b908160209103126106c357612d4f90612c7c565b600081526001600160a01b03909116602082015263ffffffff91821660408201529116606082015260800190565b906060828203126106c357612d4f91612ca1565b8181029291811591840414171561144d57565b8115612eb0570490565b634e487b7160e01b600052601260045260246000fd5b9190820180921161144d57565b63ffffffff16604d811161144d57600a0a90565b906000906001600160a01b038316156131b3578173__$49ce59d1ddda15b782622b110191f6a6ba$__5b600054612f2b9060201c63ffffffff165b63ffffffff1690565b9263ffffffff938486161015613170579085916001905b612f61612f2288612f5c60005463ffffffff9060201c1690565b612e27565b8683161161315c576000945b604080516351dc622d60e11b815260006004808301919091526001600160a01b038816602483015263ffffffff8b81166044840152861660648301526020939290918b91908b9086816084818d5af490811561314f575b600091613122575b50168b8b16101561310c57516306a6c17960e41b815260009281019283526001600160a01b038916602084015263ffffffff9182166040840152818716606084810191909152918a1660808401529093929184908290819060a00103818a5af49384156130ff575b6000946130d0575b50508251613052906001600160a01b0316612ee7565b6130ca936130b8612f226130ae6130946130866130c498613080612f226130be999289015163ffffffff1690565b90612e93565b94516001600160a01b031690565b6001600160a01b0316600090815260096020526040902090565b5463ffffffff1690565b90612ea6565b90612ec6565b95612dfc565b94612f6d565b6130f0929450803d106130f8575b6130e88183612c4d565b810190612e7f565b91388061303c565b503d6130de565b613107612d52565b613034565b5050509550509061311c90612dfc565b90612f42565b6131429150873d8911613148575b61313a8183612c4d565b810190612e3d565b38612fcc565b503d613130565b613157612d52565b612fc4565b9450509361316a9150612dfc565b92612f11565b949250506131af9250613194906130be61318f60005463ffffffff1690565b612ed3565b91829160018060a01b0316600052600e602052604060002090565b5590565b915090565b91908260409103126106c357612d4f60206131d284612c8d565b9301612c7c565b908160609103126106c3576131ed81612c6f565b91612d4f60406131d260208501612c7c565b60008082526001600160a01b039283166020830152919092166040830152606082015263ffffffff9182166080820152911660a082015260c00190565b604051906060820182811067ffffffffffffffff821117612c375760405260006040838281528260208201520152565b91908260409103126106c357612d4f60206131d284612c6f565b909160a0828403126106c357612d4f61329e83612c6f565b936040612d4860208601612c7c56fe1fbe8156cf474a4c0655ec4c8974520601db142702d1591fde9b9df5cbae5174a26469706673582212205321d9d15cf35164f53d26e495243d2cb0f14fe98838a5a8cf5ed5ac5431fb0264736f6c63430008110033",
    "linkReferences": {
      "src/Anthill.sol": {
        "AnthillInner": [
          {
            "start": 603,
            "length": 20
          },
          {
            "start": 1591,
            "length": 20
          },
          {
            "start": 2208,
            "length": 20
          },
          {
            "start": 2365,
            "length": 20
          },
          {
            "start": 2561,
            "length": 20
          },
          {
            "start": 2785,
            "length": 20
          },
          {
            "start": 3104,
            "length": 20
          },
          {
            "start": 3296,
            "length": 20
          },
          {
            "start": 3720,
            "length": 20
          },
          {
            "start": 3811,
            "length": 20
          },
          {
            "start": 3920,
            "length": 20
          },
          {
            "start": 4015,
            "length": 20
          },
          {
            "start": 4133,
            "length": 20
          },
          {
            "start": 4204,
            "length": 20
          },
          {
            "start": 4274,
            "length": 20
          },
          {
            "start": 4339,
            "length": 20
          },
          {
            "start": 4375,
            "length": 20
          },
          {
            "start": 4454,
            "length": 20
          },
          {
            "start": 4553,
            "length": 20
          },
          {
            "start": 4618,
            "length": 20
          },
          {
            "start": 4695,
            "length": 20
          },
          {
            "start": 4771,
            "length": 20
          },
          {
            "start": 4840,
            "length": 20
          },
          {
            "start": 4875,
            "length": 20
          },
          {
            "start": 4944,
            "length": 20
          },
          {
            "start": 5074,
            "length": 20
          },
          {
            "start": 5521,
            "length": 20
          },
          {
            "start": 5768,
            "length": 20
          },
          {
            "start": 5949,
            "length": 20
          },
          {
            "start": 6110,
            "length": 20
          },
          {
            "start": 6247,
            "length": 20
          },
          {
            "start": 6397,
            "length": 20
          },
          {
            "start": 6582,
            "length": 20
          },
          {
            "start": 6911,
            "length": 20
          },
          {
            "start": 7094,
            "length": 20
          },
          {
            "start": 7427,
            "length": 20
          },
          {
            "start": 7768,
            "length": 20
          },
          {
            "start": 7940,
            "length": 20
          },
          {
            "start": 8083,
            "length": 20
          },
          {
            "start": 8202,
            "length": 20
          },
          {
            "start": 8931,
            "length": 20
          },
          {
            "start": 9102,
            "length": 20
          },
          {
            "start": 9292,
            "length": 20
          },
          {
            "start": 10357,
            "length": 20
          },
          {
            "start": 10636,
            "length": 20
          },
          {
            "start": 10764,
            "length": 20
          },
          {
            "start": 12080,
            "length": 20
          }
        ]
      }
    }
  },
  "methodIdentifiers": {
    "addDagVote(address,address,uint32)": "dceb5b79",
    "calculateReputation(address)": "27c06fd5",
    "changeName(address,string)": "45ca25ed",
    "dag()": "05279858",
    "findDistAtSameDepth(address,address)": "a16877d5",
    "findLastRecDagVoteAtDistDepth(address,uint32,uint32)": "cfaced4c",
    "findLastSentDagVoteAtDistDepth(address,uint32,uint32)": "7199f96b",
    "findNthParent(address,uint32)": "50ab6631",
    "findRecDagVote(address,address)": "b9aae95d",
    "findRecDagVotePosAtDistDepth(address,address,uint32,uint32)": "3d325c36",
    "findRecTreeVotePos(address,address)": "a571dcd7",
    "findRelDepth(address,address)": "dd88aa95",
    "findRelRoot(address)": "3aaf189b",
    "findSDistDepth(address,address)": "7fb2ed2a",
    "findSentDagVote(address,address)": "0520b5a4",
    "findSentDagVotePosAtDistDepth(address,address,uint32,uint32)": "270e32cd",
    "joinTree(address,string,address)": "eeaebe87",
    "joinTreeAsRoot(address,string)": "199cd8c0",
    "leaveTree(address)": "ff8f07de",
    "moveTreeVote(address,address)": "c5ce0318",
    "readDepth(address)": "825a3855",
    "readMaxRelRootDepth()": "e614a68d",
    "readName(address)": "806df959",
    "readRecDagVote(address,uint32,uint32,uint32)": "c0a6033c",
    "readRecDagVoteCount(address,uint32,uint32)": "7cb7ed44",
    "readRecDagVoteDepthDiff(address)": "d5a64361",
    "readRecDagVoteDistDiff(address)": "519bf72d",
    "readRecTreeVote(address,uint32)": "ebc9bd62",
    "readRecTreeVoteCount(address)": "49bb27e0",
    "readReputation(address)": "b062aaec",
    "readRoot()": "10839bf7",
    "readSentDagVote(address,uint32,uint32,uint32)": "429ccb05",
    "readSentDagVoteCount(address,uint32,uint32)": "2e4ba760",
    "readSentDagVoteDepthDiff(address)": "ab70b4c6",
    "readSentDagVoteDistDiff(address)": "39273f59",
    "readSentDagVoteTotalWeight(address)": "00a1efe5",
    "readSentTreeVote(address)": "59bf02a5",
    "removeDagVote(address,address)": "37ba0eb1",
    "switchPositionWithParent(address)": "6be22cd2"
  },
  "id": 16
}