{
  "abi": [
    {
      "inputs": [],
      "stateMutability": "nonpayable",
      "type": "constructor"
    },
    {
      "anonymous": false,
      "inputs": [
        {
          "indexed": false,
          "internalType": "string",
          "name": "str",
          "type": "string"
        },
        {
          "indexed": false,
          "internalType": "uint256",
          "name": "num",
          "type": "uint256"
        }
      ],
      "name": "SimpleEventForUpdates",
      "type": "event"
    },
    {
      "anonymous": false,
      "inputs": [
        {
          "indexed": false,
          "internalType": "address",
          "name": "voter",
          "type": "address"
        },
        {
          "indexed": false,
          "internalType": "address",
          "name": "recipient",
          "type": "address"
        },
        {
          "indexed": false,
          "internalType": "uint256",
          "name": "weight",
          "type": "uint256"
        }
      ],
      "name": "addDagVoteEvent",
      "type": "event"
    },
    {
      "anonymous": false,
      "inputs": [
        {
          "indexed": false,
          "internalType": "address",
          "name": "voter",
          "type": "address"
        },
        {
          "indexed": false,
          "internalType": "string",
          "name": "newName",
          "type": "string"
        }
      ],
      "name": "changeNameEvent",
      "type": "event"
    },
    {
      "anonymous": false,
      "inputs": [
        {
          "indexed": false,
          "internalType": "address",
          "name": "voter",
          "type": "address"
        },
        {
          "indexed": false,
          "internalType": "string",
          "name": "name",
          "type": "string"
        },
        {
          "indexed": false,
          "internalType": "address",
          "name": "recipient",
          "type": "address"
        }
      ],
      "name": "joinTreeEvent",
      "type": "event"
    },
    {
      "anonymous": false,
      "inputs": [
        {
          "indexed": false,
          "internalType": "address",
          "name": "voter",
          "type": "address"
        }
      ],
      "name": "leaveTreeEvent",
      "type": "event"
    },
    {
      "anonymous": false,
      "inputs": [
        {
          "indexed": false,
          "internalType": "address",
          "name": "voter",
          "type": "address"
        },
        {
          "indexed": false,
          "internalType": "address",
          "name": "recipient",
          "type": "address"
        }
      ],
      "name": "moveTreeVoteEvent",
      "type": "event"
    },
    {
      "anonymous": false,
      "inputs": [
        {
          "indexed": false,
          "internalType": "address",
          "name": "voter",
          "type": "address"
        },
        {
          "indexed": false,
          "internalType": "address",
          "name": "recipient",
          "type": "address"
        }
      ],
      "name": "removeDagVoteEvent",
      "type": "event"
    },
    {
      "anonymous": false,
      "inputs": [
        {
          "indexed": false,
          "internalType": "address",
          "name": "voter",
          "type": "address"
        }
      ],
      "name": "switchPositionWithParentEvent",
      "type": "event"
    },
    {
      "inputs": [
        {
          "internalType": "address",
          "name": "voter",
          "type": "address"
        },
        {
          "internalType": "address",
          "name": "recipient",
          "type": "address"
        },
        {
          "internalType": "uint256",
          "name": "weight",
          "type": "uint256"
        }
      ],
      "name": "addDagVote",
      "outputs": [],
      "stateMutability": "nonpayable",
      "type": "function"
    },
    {
      "inputs": [
        {
          "internalType": "address",
          "name": "voter",
          "type": "address"
        }
      ],
      "name": "balanceOf",
      "outputs": [
        {
          "internalType": "uint256",
          "name": "",
          "type": "uint256"
        }
      ],
      "stateMutability": "view",
      "type": "function"
    },
    {
      "inputs": [
        {
          "internalType": "address",
          "name": "voter",
          "type": "address"
        }
      ],
      "name": "calculateReputation",
      "outputs": [
        {
          "internalType": "uint256",
          "name": "",
          "type": "uint256"
        }
      ],
      "stateMutability": "nonpayable",
      "type": "function"
    },
    {
      "inputs": [
        {
          "internalType": "address",
          "name": "voter",
          "type": "address"
        }
      ],
      "name": "calculateReputationRec",
      "outputs": [],
      "stateMutability": "nonpayable",
      "type": "function"
    },
    {
      "inputs": [
        {
          "internalType": "address",
          "name": "recipient",
          "type": "address"
        },
        {
          "internalType": "uint256",
          "name": "rdist",
          "type": "uint256"
        },
        {
          "internalType": "uint256",
          "name": "depth",
          "type": "uint256"
        },
        {
          "internalType": "uint256",
          "name": "oldRDist",
          "type": "uint256"
        },
        {
          "internalType": "uint256",
          "name": "oldDepth",
          "type": "uint256"
        }
      ],
      "name": "changeDistDepthFromRecCellOnOp",
      "outputs": [],
      "stateMutability": "nonpayable",
      "type": "function"
    },
    {
      "inputs": [
        {
          "internalType": "address",
          "name": "recipient",
          "type": "address"
        },
        {
          "internalType": "uint256",
          "name": "rdist",
          "type": "uint256"
        },
        {
          "internalType": "uint256",
          "name": "depth",
          "type": "uint256"
        },
        {
          "internalType": "uint256",
          "name": "rPos",
          "type": "uint256"
        },
        {
          "internalType": "uint256",
          "name": "newRDist",
          "type": "uint256"
        },
        {
          "internalType": "uint256",
          "name": "newDepth",
          "type": "uint256"
        },
        {
          "internalType": "address",
          "name": "voter",
          "type": "address"
        },
        {
          "internalType": "uint256",
          "name": "sPos",
          "type": "uint256"
        },
        {
          "internalType": "uint256",
          "name": "weight",
          "type": "uint256"
        }
      ],
      "name": "changeDistDepthRec",
      "outputs": [],
      "stateMutability": "nonpayable",
      "type": "function"
    },
    {
      "inputs": [
        {
          "internalType": "address",
          "name": "voter",
          "type": "address"
        },
        {
          "internalType": "uint256",
          "name": "sdist",
          "type": "uint256"
        },
        {
          "internalType": "uint256",
          "name": "depth",
          "type": "uint256"
        },
        {
          "internalType": "uint256",
          "name": "sPos",
          "type": "uint256"
        },
        {
          "internalType": "uint256",
          "name": "newSDist",
          "type": "uint256"
        },
        {
          "internalType": "uint256",
          "name": "newDepth",
          "type": "uint256"
        },
        {
          "internalType": "address",
          "name": "recipient",
          "type": "address"
        },
        {
          "internalType": "uint256",
          "name": "rPos",
          "type": "uint256"
        },
        {
          "internalType": "uint256",
          "name": "weight",
          "type": "uint256"
        }
      ],
      "name": "changeDistDepthSent",
      "outputs": [],
      "stateMutability": "nonpayable",
      "type": "function"
    },
    {
      "inputs": [
        {
          "internalType": "address",
          "name": "voter",
          "type": "address"
        },
        {
          "internalType": "string",
          "name": "name",
          "type": "string"
        }
      ],
      "name": "changeName",
      "outputs": [],
      "stateMutability": "nonpayable",
      "type": "function"
    },
    {
      "inputs": [
        {
          "internalType": "address",
          "name": "voter",
          "type": "address"
        }
      ],
      "name": "clearReputationCalculatedRec",
      "outputs": [],
      "stateMutability": "nonpayable",
      "type": "function"
    },
    {
      "inputs": [
        {
          "internalType": "address",
          "name": "voter",
          "type": "address"
        },
        {
          "internalType": "uint256",
          "name": "rdistDestination",
          "type": "uint256"
        }
      ],
      "name": "collapseRecDagVoteIntoColumn",
      "outputs": [],
      "stateMutability": "nonpayable",
      "type": "function"
    },
    {
      "inputs": [
        {
          "internalType": "address",
          "name": "voter",
          "type": "address"
        },
        {
          "internalType": "uint256",
          "name": "sdistDestination",
          "type": "uint256"
        }
      ],
      "name": "collapseSentDagVoteIntoColumn",
      "outputs": [],
      "stateMutability": "nonpayable",
      "type": "function"
    },
    {
      "inputs": [],
      "name": "dag",
      "outputs": [
        {
          "internalType": "uint256",
          "name": "decimalPoint",
          "type": "uint256"
        },
        {
          "internalType": "uint256",
          "name": "MAX_REL_ROOT_DEPTH",
          "type": "uint256"
        },
        {
          "internalType": "address",
          "name": "root",
          "type": "address"
        }
      ],
      "stateMutability": "view",
      "type": "function"
    },
    {
      "inputs": [],
      "name": "decimals",
      "outputs": [
        {
          "internalType": "uint256",
          "name": "",
          "type": "uint256"
        }
      ],
      "stateMutability": "view",
      "type": "function"
    },
    {
      "inputs": [
        {
          "internalType": "address",
          "name": "add1",
          "type": "address"
        },
        {
          "internalType": "address",
          "name": "add2",
          "type": "address"
        }
      ],
      "name": "findDistAtSameDepth",
      "outputs": [
        {
          "internalType": "bool",
          "name": "isSameDepth",
          "type": "bool"
        },
        {
          "internalType": "uint256",
          "name": "distance",
          "type": "uint256"
        }
      ],
      "stateMutability": "view",
      "type": "function"
    },
    {
      "inputs": [
        {
          "internalType": "address",
          "name": "recipient",
          "type": "address"
        },
        {
          "internalType": "uint256",
          "name": "rdist",
          "type": "uint256"
        },
        {
          "internalType": "uint256",
          "name": "depth",
          "type": "uint256"
        }
      ],
      "name": "findLastRecDagVoteAtDistDepth",
      "outputs": [
        {
          "internalType": "bool",
          "name": "voted",
          "type": "bool"
        },
        {
          "internalType": "uint256",
          "name": "votePos",
          "type": "uint256"
        },
        {
          "components": [
            {
              "internalType": "address",
              "name": "id",
              "type": "address"
            },
            {
              "internalType": "uint256",
              "name": "weight",
              "type": "uint256"
            },
            {
              "internalType": "uint256",
              "name": "posInOther",
              "type": "uint256"
            }
          ],
          "internalType": "struct DagVote",
          "name": "vote",
          "type": "tuple"
        }
      ],
      "stateMutability": "view",
      "type": "function"
    },
    {
      "inputs": [
        {
          "internalType": "address",
          "name": "voter",
          "type": "address"
        },
        {
          "internalType": "uint256",
          "name": "sdist",
          "type": "uint256"
        },
        {
          "internalType": "uint256",
          "name": "depth",
          "type": "uint256"
        }
      ],
      "name": "findLastSentDagVoteAtDistDepth",
      "outputs": [
        {
          "internalType": "bool",
          "name": "voted",
          "type": "bool"
        },
        {
          "internalType": "uint256",
          "name": "votePos",
          "type": "uint256"
        },
        {
          "components": [
            {
              "internalType": "address",
              "name": "id",
              "type": "address"
            },
            {
              "internalType": "uint256",
              "name": "weight",
              "type": "uint256"
            },
            {
              "internalType": "uint256",
              "name": "posInOther",
              "type": "uint256"
            }
          ],
          "internalType": "struct DagVote",
          "name": "vote",
          "type": "tuple"
        }
      ],
      "stateMutability": "view",
      "type": "function"
    },
    {
      "inputs": [
        {
          "internalType": "address",
          "name": "voter",
          "type": "address"
        },
        {
          "internalType": "uint256",
          "name": "height",
          "type": "uint256"
        }
      ],
      "name": "findNthParent",
      "outputs": [
        {
          "internalType": "address",
          "name": "parent",
          "type": "address"
        }
      ],
      "stateMutability": "view",
      "type": "function"
    },
    {
      "inputs": [
        {
          "internalType": "address",
          "name": "voter",
          "type": "address"
        },
        {
          "internalType": "address",
          "name": "recipient",
          "type": "address"
        }
      ],
      "name": "findRecDagVote",
      "outputs": [
        {
          "internalType": "bool",
          "name": "votable",
          "type": "bool"
        },
        {
          "internalType": "bool",
          "name": "voted",
          "type": "bool"
        },
        {
          "internalType": "uint256",
          "name": "rdist",
          "type": "uint256"
        },
        {
          "internalType": "uint256",
          "name": "depth",
          "type": "uint256"
        },
        {
          "internalType": "uint256",
          "name": "votePos",
          "type": "uint256"
        },
        {
          "components": [
            {
              "internalType": "address",
              "name": "id",
              "type": "address"
            },
            {
              "internalType": "uint256",
              "name": "weight",
              "type": "uint256"
            },
            {
              "internalType": "uint256",
              "name": "posInOther",
              "type": "uint256"
            }
          ],
          "internalType": "struct DagVote",
          "name": "dagVote",
          "type": "tuple"
        }
      ],
      "stateMutability": "view",
      "type": "function"
    },
    {
      "inputs": [
        {
          "internalType": "address",
          "name": "voter",
          "type": "address"
        },
        {
          "internalType": "address",
          "name": "recipient",
          "type": "address"
        },
        {
          "internalType": "uint256",
          "name": "rdist",
          "type": "uint256"
        },
        {
          "internalType": "uint256",
          "name": "depth",
          "type": "uint256"
        }
      ],
      "name": "findRecDagVotePosAtDistDepth",
      "outputs": [
        {
          "internalType": "bool",
          "name": "voted",
          "type": "bool"
        },
        {
          "internalType": "uint256",
          "name": "votePos",
          "type": "uint256"
        },
        {
          "components": [
            {
              "internalType": "address",
              "name": "id",
              "type": "address"
            },
            {
              "internalType": "uint256",
              "name": "weight",
              "type": "uint256"
            },
            {
              "internalType": "uint256",
              "name": "posInOther",
              "type": "uint256"
            }
          ],
          "internalType": "struct DagVote",
          "name": "vote",
          "type": "tuple"
        }
      ],
      "stateMutability": "view",
      "type": "function"
    },
    {
      "inputs": [
        {
          "internalType": "address",
          "name": "voter",
          "type": "address"
        },
        {
          "internalType": "address",
          "name": "recipient",
          "type": "address"
        }
      ],
      "name": "findRecTreeVotePos",
      "outputs": [
        {
          "internalType": "bool",
          "name": "voted",
          "type": "bool"
        },
        {
          "internalType": "uint256",
          "name": "votePos",
          "type": "uint256"
        }
      ],
      "stateMutability": "view",
      "type": "function"
    },
    {
      "inputs": [
        {
          "internalType": "address",
          "name": "voter",
          "type": "address"
        },
        {
          "internalType": "address",
          "name": "recipient",
          "type": "address"
        }
      ],
      "name": "findRelDepth",
      "outputs": [
        {
          "internalType": "bool",
          "name": "isLocal",
          "type": "bool"
        },
        {
          "internalType": "uint256",
          "name": "relDepth",
          "type": "uint256"
        }
      ],
      "stateMutability": "view",
      "type": "function"
    },
    {
      "inputs": [
        {
          "internalType": "address",
          "name": "voter",
          "type": "address"
        }
      ],
      "name": "findRelRoot",
      "outputs": [
        {
          "internalType": "address",
          "name": "relRoot",
          "type": "address"
        },
        {
          "internalType": "uint256",
          "name": "relDepth",
          "type": "uint256"
        }
      ],
      "stateMutability": "view",
      "type": "function"
    },
    {
      "inputs": [
        {
          "internalType": "address",
          "name": "voter",
          "type": "address"
        },
        {
          "internalType": "address",
          "name": "recipient",
          "type": "address"
        }
      ],
      "name": "findSDistDepth",
      "outputs": [
        {
          "internalType": "bool",
          "name": "isLocal",
          "type": "bool"
        },
        {
          "internalType": "uint256",
          "name": "distance",
          "type": "uint256"
        },
        {
          "internalType": "uint256",
          "name": "relDepth",
          "type": "uint256"
        }
      ],
      "stateMutability": "view",
      "type": "function"
    },
    {
      "inputs": [
        {
          "internalType": "address",
          "name": "voter",
          "type": "address"
        },
        {
          "internalType": "address",
          "name": "recipient",
          "type": "address"
        }
      ],
      "name": "findSentDagVote",
      "outputs": [
        {
          "internalType": "bool",
          "name": "votable",
          "type": "bool"
        },
        {
          "internalType": "bool",
          "name": "voted",
          "type": "bool"
        },
        {
          "internalType": "uint256",
          "name": "sdist",
          "type": "uint256"
        },
        {
          "internalType": "uint256",
          "name": "depth",
          "type": "uint256"
        },
        {
          "internalType": "uint256",
          "name": "votePos",
          "type": "uint256"
        },
        {
          "components": [
            {
              "internalType": "address",
              "name": "id",
              "type": "address"
            },
            {
              "internalType": "uint256",
              "name": "weight",
              "type": "uint256"
            },
            {
              "internalType": "uint256",
              "name": "posInOther",
              "type": "uint256"
            }
          ],
          "internalType": "struct DagVote",
          "name": "dagVote",
          "type": "tuple"
        }
      ],
      "stateMutability": "view",
      "type": "function"
    },
    {
      "inputs": [
        {
          "internalType": "address",
          "name": "voter",
          "type": "address"
        },
        {
          "internalType": "address",
          "name": "recipient",
          "type": "address"
        },
        {
          "internalType": "uint256",
          "name": "sdist",
          "type": "uint256"
        },
        {
          "internalType": "uint256",
          "name": "depth",
          "type": "uint256"
        }
      ],
      "name": "findSentDagVotePosAtDistDepth",
      "outputs": [
        {
          "internalType": "bool",
          "name": "voted",
          "type": "bool"
        },
        {
          "internalType": "uint256",
          "name": "votePos",
          "type": "uint256"
        },
        {
          "components": [
            {
              "internalType": "address",
              "name": "id",
              "type": "address"
            },
            {
              "internalType": "uint256",
              "name": "weight",
              "type": "uint256"
            },
            {
              "internalType": "uint256",
              "name": "posInOther",
              "type": "uint256"
            }
          ],
          "internalType": "struct DagVote",
          "name": "vote",
          "type": "tuple"
        }
      ],
      "stateMutability": "view",
      "type": "function"
    },
    {
      "inputs": [
        {
          "internalType": "address",
          "name": "voter",
          "type": "address"
        },
        {
          "internalType": "address",
          "name": "recipient",
          "type": "address"
        },
        {
          "internalType": "address",
          "name": "replaced",
          "type": "address"
        },
        {
          "internalType": "uint256",
          "name": "moveDist",
          "type": "uint256"
        },
        {
          "internalType": "uint256",
          "name": "depthToRec",
          "type": "uint256"
        }
      ],
      "name": "handleDagVoteMoveFall",
      "outputs": [],
      "stateMutability": "nonpayable",
      "type": "function"
    },
    {
      "inputs": [
        {
          "internalType": "address",
          "name": "voter",
          "type": "address"
        },
        {
          "internalType": "address",
          "name": "recipient",
          "type": "address"
        },
        {
          "internalType": "address",
          "name": "replaced",
          "type": "address"
        },
        {
          "internalType": "uint256",
          "name": "moveDist",
          "type": "uint256"
        },
        {
          "internalType": "uint256",
          "name": "depthToRec",
          "type": "uint256"
        }
      ],
      "name": "handleDagVoteMoveRise",
      "outputs": [],
      "stateMutability": "nonpayable",
      "type": "function"
    },
    {
      "inputs": [
        {
          "internalType": "address",
          "name": "voter",
          "type": "address"
        }
      ],
      "name": "handleLeavingVoterBranch",
      "outputs": [],
      "stateMutability": "nonpayable",
      "type": "function"
    },
    {
      "inputs": [
        {
          "internalType": "address",
          "name": "voter",
          "type": "address"
        },
        {
          "internalType": "string",
          "name": "name",
          "type": "string"
        },
        {
          "internalType": "address",
          "name": "recipient",
          "type": "address"
        }
      ],
      "name": "joinTree",
      "outputs": [],
      "stateMutability": "nonpayable",
      "type": "function"
    },
    {
      "inputs": [
        {
          "internalType": "address",
          "name": "voter",
          "type": "address"
        },
        {
          "internalType": "string",
          "name": "name",
          "type": "string"
        }
      ],
      "name": "joinTreeAsRoot",
      "outputs": [],
      "stateMutability": "nonpayable",
      "type": "function"
    },
    {
      "inputs": [
        {
          "internalType": "address",
          "name": "voter",
          "type": "address"
        }
      ],
      "name": "leaveTree",
      "outputs": [],
      "stateMutability": "nonpayable",
      "type": "function"
    },
    {
      "inputs": [],
      "name": "lockTree",
      "outputs": [],
      "stateMutability": "nonpayable",
      "type": "function"
    },
    {
      "inputs": [
        {
          "internalType": "address",
          "name": "voter",
          "type": "address"
        },
        {
          "internalType": "uint256",
          "name": "diff",
          "type": "uint256"
        }
      ],
      "name": "moveRecDagVoteDownLeftRising",
      "outputs": [],
      "stateMutability": "nonpayable",
      "type": "function"
    },
    {
      "inputs": [
        {
          "internalType": "address",
          "name": "voter",
          "type": "address"
        },
        {
          "internalType": "address",
          "name": "recipient",
          "type": "address"
        }
      ],
      "name": "moveTreeVote",
      "outputs": [],
      "stateMutability": "nonpayable",
      "type": "function"
    },
    {
      "inputs": [],
      "name": "name",
      "outputs": [
        {
          "internalType": "string",
          "name": "",
          "type": "string"
        }
      ],
      "stateMutability": "view",
      "type": "function"
    },
    {
      "inputs": [
        {
          "internalType": "address",
          "name": "pulledVoter",
          "type": "address"
        },
        {
          "internalType": "address",
          "name": "parent",
          "type": "address"
        }
      ],
      "name": "pullUpBranch",
      "outputs": [],
      "stateMutability": "nonpayable",
      "type": "function"
    },
    {
      "inputs": [
        {
          "internalType": "address",
          "name": "voter",
          "type": "address"
        }
      ],
      "name": "readDepth",
      "outputs": [
        {
          "internalType": "uint256",
          "name": "",
          "type": "uint256"
        }
      ],
      "stateMutability": "view",
      "type": "function"
    },
    {
      "inputs": [],
      "name": "readMaxRelRootDepth",
      "outputs": [
        {
          "internalType": "uint256",
          "name": "",
          "type": "uint256"
        }
      ],
      "stateMutability": "view",
      "type": "function"
    },
    {
      "inputs": [
        {
          "internalType": "address",
          "name": "voter",
          "type": "address"
        }
      ],
      "name": "readName",
      "outputs": [
        {
          "internalType": "string",
          "name": "",
          "type": "string"
        }
      ],
      "stateMutability": "view",
      "type": "function"
    },
    {
      "inputs": [
        {
          "internalType": "address",
          "name": "recipient",
          "type": "address"
        },
        {
          "internalType": "uint256",
          "name": "rdist",
          "type": "uint256"
        },
        {
          "internalType": "uint256",
          "name": "depth",
          "type": "uint256"
        },
        {
          "internalType": "uint256",
          "name": "votePos",
          "type": "uint256"
        }
      ],
      "name": "readRecDagVote",
      "outputs": [
        {
          "components": [
            {
              "internalType": "address",
              "name": "id",
              "type": "address"
            },
            {
              "internalType": "uint256",
              "name": "weight",
              "type": "uint256"
            },
            {
              "internalType": "uint256",
              "name": "posInOther",
              "type": "uint256"
            }
          ],
          "internalType": "struct DagVote",
          "name": "",
          "type": "tuple"
        }
      ],
      "stateMutability": "view",
      "type": "function"
    },
    {
      "inputs": [
        {
          "internalType": "address",
          "name": "recipient",
          "type": "address"
        },
        {
          "internalType": "uint256",
          "name": "rdist",
          "type": "uint256"
        },
        {
          "internalType": "uint256",
          "name": "depth",
          "type": "uint256"
        }
      ],
      "name": "readRecDagVoteCount",
      "outputs": [
        {
          "internalType": "uint256",
          "name": "",
          "type": "uint256"
        }
      ],
      "stateMutability": "view",
      "type": "function"
    },
    {
      "inputs": [
        {
          "internalType": "address",
          "name": "recipient",
          "type": "address"
        }
      ],
      "name": "readRecDagVoteDepthDiff",
      "outputs": [
        {
          "internalType": "uint256",
          "name": "",
          "type": "uint256"
        }
      ],
      "stateMutability": "view",
      "type": "function"
    },
    {
      "inputs": [
        {
          "internalType": "address",
          "name": "recipient",
          "type": "address"
        }
      ],
      "name": "readRecDagVoteDistDiff",
      "outputs": [
        {
          "internalType": "uint256",
          "name": "",
          "type": "uint256"
        }
      ],
      "stateMutability": "view",
      "type": "function"
    },
    {
      "inputs": [
        {
          "internalType": "address",
          "name": "recipient",
          "type": "address"
        },
        {
          "internalType": "uint256",
          "name": "votePos",
          "type": "uint256"
        }
      ],
      "name": "readRecTreeVote",
      "outputs": [
        {
          "internalType": "address",
          "name": "",
          "type": "address"
        }
      ],
      "stateMutability": "view",
      "type": "function"
    },
    {
      "inputs": [
        {
          "internalType": "address",
          "name": "recipient",
          "type": "address"
        }
      ],
      "name": "readRecTreeVoteCount",
      "outputs": [
        {
          "internalType": "uint256",
          "name": "",
          "type": "uint256"
        }
      ],
      "stateMutability": "view",
      "type": "function"
    },
    {
      "inputs": [
        {
          "internalType": "address",
          "name": "voter",
          "type": "address"
        }
      ],
      "name": "readReputation",
      "outputs": [
        {
          "internalType": "uint256",
          "name": "",
          "type": "uint256"
        }
      ],
      "stateMutability": "view",
      "type": "function"
    },
    {
      "inputs": [],
      "name": "readRoot",
      "outputs": [
        {
          "internalType": "address",
          "name": "",
          "type": "address"
        }
      ],
      "stateMutability": "view",
      "type": "function"
    },
    {
      "inputs": [
        {
          "internalType": "address",
          "name": "voter",
          "type": "address"
        },
        {
          "internalType": "uint256",
          "name": "sdist",
          "type": "uint256"
        },
        {
          "internalType": "uint256",
          "name": "depth",
          "type": "uint256"
        },
        {
          "internalType": "uint256",
          "name": "votePos",
          "type": "uint256"
        }
      ],
      "name": "readSentDagVote",
      "outputs": [
        {
          "components": [
            {
              "internalType": "address",
              "name": "id",
              "type": "address"
            },
            {
              "internalType": "uint256",
              "name": "weight",
              "type": "uint256"
            },
            {
              "internalType": "uint256",
              "name": "posInOther",
              "type": "uint256"
            }
          ],
          "internalType": "struct DagVote",
          "name": "",
          "type": "tuple"
        }
      ],
      "stateMutability": "view",
      "type": "function"
    },
    {
      "inputs": [
        {
          "internalType": "address",
          "name": "voter",
          "type": "address"
        },
        {
          "internalType": "uint256",
          "name": "sdist",
          "type": "uint256"
        },
        {
          "internalType": "uint256",
          "name": "depth",
          "type": "uint256"
        }
      ],
      "name": "readSentDagVoteCount",
      "outputs": [
        {
          "internalType": "uint256",
          "name": "",
          "type": "uint256"
        }
      ],
      "stateMutability": "view",
      "type": "function"
    },
    {
      "inputs": [
        {
          "internalType": "address",
          "name": "voter",
          "type": "address"
        }
      ],
      "name": "readSentDagVoteDepthDiff",
      "outputs": [
        {
          "internalType": "uint256",
          "name": "",
          "type": "uint256"
        }
      ],
      "stateMutability": "view",
      "type": "function"
    },
    {
      "inputs": [
        {
          "internalType": "address",
          "name": "voter",
          "type": "address"
        }
      ],
      "name": "readSentDagVoteDistDiff",
      "outputs": [
        {
          "internalType": "uint256",
          "name": "",
          "type": "uint256"
        }
      ],
      "stateMutability": "view",
      "type": "function"
    },
    {
      "inputs": [
        {
          "internalType": "address",
          "name": "voter",
          "type": "address"
        }
      ],
      "name": "readSentDagVoteTotalWeight",
      "outputs": [
        {
          "internalType": "uint256",
          "name": "",
          "type": "uint256"
        }
      ],
      "stateMutability": "view",
      "type": "function"
    },
    {
      "inputs": [
        {
          "internalType": "address",
          "name": "voter",
          "type": "address"
        }
      ],
      "name": "readSentTreeVote",
      "outputs": [
        {
          "internalType": "address",
          "name": "",
          "type": "address"
        }
      ],
      "stateMutability": "view",
      "type": "function"
    },
    {
      "inputs": [
        {
          "internalType": "address",
          "name": "recipient",
          "type": "address"
        },
        {
          "internalType": "uint256",
          "name": "rdist",
          "type": "uint256"
        },
        {
          "internalType": "uint256",
          "name": "depth",
          "type": "uint256"
        },
        {
          "internalType": "address",
          "name": "voter",
          "type": "address"
        },
        {
          "internalType": "uint256",
          "name": "weight",
          "type": "uint256"
        },
        {
          "internalType": "uint256",
          "name": "sPos",
          "type": "uint256"
        }
      ],
      "name": "recDagAppend",
      "outputs": [],
      "stateMutability": "nonpayable",
      "type": "function"
    },
    {
      "inputs": [],
      "name": "recalculateAllReputation",
      "outputs": [],
      "stateMutability": "nonpayable",
      "type": "function"
    },
    {
      "inputs": [
        {
          "internalType": "address",
          "name": "voter",
          "type": "address"
        },
        {
          "internalType": "address",
          "name": "recipient",
          "type": "address"
        }
      ],
      "name": "removeDagVote",
      "outputs": [],
      "stateMutability": "nonpayable",
      "type": "function"
    },
    {
      "inputs": [
        {
          "internalType": "address",
          "name": "recipient",
          "type": "address"
        },
        {
          "internalType": "uint256",
          "name": "rdist",
          "type": "uint256"
        },
        {
          "internalType": "uint256",
          "name": "depth",
          "type": "uint256"
        }
      ],
      "name": "removeRecDagVoteCell",
      "outputs": [],
      "stateMutability": "nonpayable",
      "type": "function"
    },
    {
      "inputs": [
        {
          "internalType": "address",
          "name": "recipient",
          "type": "address"
        },
        {
          "internalType": "uint256",
          "name": "rdist",
          "type": "uint256"
        },
        {
          "internalType": "address",
          "name": "newTreeVote",
          "type": "address"
        }
      ],
      "name": "sortRecDagVoteColumn",
      "outputs": [],
      "stateMutability": "nonpayable",
      "type": "function"
    },
    {
      "inputs": [
        {
          "internalType": "address",
          "name": "recipient",
          "type": "address"
        },
        {
          "internalType": "address",
          "name": "replaced",
          "type": "address"
        }
      ],
      "name": "sortRecDagVoteColumnDescendants",
      "outputs": [],
      "stateMutability": "nonpayable",
      "type": "function"
    },
    {
      "inputs": [
        {
          "internalType": "address",
          "name": "voter",
          "type": "address"
        },
        {
          "internalType": "uint256",
          "name": "sdist",
          "type": "uint256"
        },
        {
          "internalType": "address",
          "name": "newTreeVote",
          "type": "address"
        }
      ],
      "name": "sortSentDagVoteColumn",
      "outputs": [],
      "stateMutability": "nonpayable",
      "type": "function"
    },
    {
      "inputs": [
        {
          "internalType": "address",
          "name": "voter",
          "type": "address"
        }
      ],
      "name": "switchPositionWithParent",
      "outputs": [],
      "stateMutability": "nonpayable",
      "type": "function"
    },
    {
      "inputs": [],
      "name": "symbol",
      "outputs": [
        {
          "internalType": "string",
          "name": "",
          "type": "string"
        }
      ],
      "stateMutability": "view",
      "type": "function"
    },
    {
      "inputs": [],
      "name": "tokenName",
      "outputs": [
        {
          "internalType": "string",
          "name": "",
          "type": "string"
        }
      ],
      "stateMutability": "view",
      "type": "function"
    },
    {
      "inputs": [],
      "name": "tokenSymbol",
      "outputs": [
        {
          "internalType": "string",
          "name": "",
          "type": "string"
        }
      ],
      "stateMutability": "view",
      "type": "function"
    },
    {
      "inputs": [],
      "name": "unlocked",
      "outputs": [
        {
          "internalType": "bool",
          "name": "",
          "type": "bool"
        }
      ],
      "stateMutability": "view",
      "type": "function"
    },
    {
      "inputs": [
        {
          "internalType": "address",
          "name": "recipient",
          "type": "address"
        },
        {
          "internalType": "uint256",
          "name": "rdist",
          "type": "uint256"
        },
        {
          "internalType": "uint256",
          "name": "depth",
          "type": "uint256"
        },
        {
          "internalType": "uint256",
          "name": "rPos",
          "type": "uint256"
        }
      ],
      "name": "unsafeReplaceRecDagVoteAtDistDepthPosWithLast",
      "outputs": [],
      "stateMutability": "nonpayable",
      "type": "function"
    }
  ],
  "bytecode": {
    "object": "0x6012805460ff1916600117905560c06040526007608090815266105b9d1a1a5b1b60ca1b60a05260139062000035908262000124565b506040805180820190915260048152630829ca8960e31b602082015260149062000060908262000124565b503480156200006e57600080fd5b5060126000556006600155620001f0565b634e487b7160e01b600052604160045260246000fd5b600181811c90821680620000aa57607f821691505b602082108103620000cb57634e487b7160e01b600052602260045260246000fd5b50919050565b601f8211156200011f57600081815260208120601f850160051c81016020861015620000fa5750805b601f850160051c820191505b818110156200011b5782815560010162000106565b5050505b505050565b81516001600160401b038111156200014057620001406200007f565b620001588162000151845462000095565b84620000d1565b602080601f831160018114620001905760008415620001775750858301515b600019600386901b1c1916600185901b1785556200011b565b600085815260208120601f198616915b82811015620001c157888601518255948401946001909101908401620001a0565b5085821015620001e05787850151600019600388901b60f8161c191681555b5050505050600190811b01905550565b61446f80620002006000396000f3fe608060405234801561001057600080fd5b50600436106103e45760003560e01c80636be22cd21161020a578063b529ef4c11610125578063d7b547f0116100b8578063ed747e9411610087578063ed747e94146108eb578063eeaebe87146108fe578063f358f68314610911578063fa2465f114610924578063ff8f07de1461093757600080fd5b8063d7b547f0146108aa578063dd88aa95146108bd578063e414c457146108d0578063e614a68d146108e357600080fd5b8063c68d6f61116100f4578063c68d6f611461085e578063c9f05d0914610871578063cf59ba2114610884578063d5a643611461089757600080fd5b8063b529ef4c1461081d578063b9aae95d14610830578063c389ccc014610843578063c5ce03181461084b57600080fd5b8063825a38551161019d578063a16877d51161016c578063a16877d5146107cd578063a571dcd7146107f7578063ab70b4c61461080a578063b062aaec1461070857600080fd5b8063825a38551461078c5780638b66a6591461079f57806394c41cb2146107b257806395d89b41146107c557600080fd5b806377a63f9b116101d957806377a63f9b1461072e5780637b61c320146107415780637fb2ed2a14610749578063806df9591461077957600080fd5b80636be22cd2146106ed5780636c02a9311461070057806370a082311461070857806373d701df1461071b57600080fd5b80632b7cec531161030557806345ca25ed1161029857806359bf02a51161026757806359bf02a51461068f5780635c68f16d146106a257806360c69aa5146106aa5780636521e277146106bd5780636a5e2650146106d057600080fd5b806345ca25ed1461064357806349bb27e0146106565780634ca57db914610669578063519bf72d1461067c57600080fd5b806339273f59116102d457806339273f59146105d85780633a47ce83146105eb5780633aaf189b146105fe5780634356454b1461063057600080fd5b80632b7cec531461059757806330e66631146105aa578063313ce567146105bd57806337ba0eb1146105c557600080fd5b806312e94ea21161037d578063199cd8c01161034c578063199cd8c01461054b57806321ffcf501461055e57806327c06fd5146105715780632990cf121461058457600080fd5b806312e94ea2146104e357806315d4936a146104f6578063184cc14514610516578063192400721461052957600080fd5b806305279858116103b9578063052798581461045c57806306fdde031461049b5780630a04f8a8146104b057806310839bf7146104c357600080fd5b8062a1efe5146103e9578062f71abc1461040f578063050cd8af146104225780630520b5a414610437575b600080fd5b6103fc6103f73660046137ae565b61094a565b6040519081526020015b60405180910390f35b6103fc61041d3660046137cb565b6109cd565b610435610430366004613800565b610a56565b005b61044a610445366004613842565b610af4565b6040516104069695949392919061387b565b6000546001546002546104779291906001600160a01b031683565b6040805193845260208401929092526001600160a01b031690820152606001610406565b6104a3610b97565b60405161040691906138fc565b6104356104be36600461392f565b610c29565b6104cb610cdf565b6040516001600160a01b039091168152602001610406565b6104356104f136600461398b565b610d5b565b610509610504366004613a08565b610df7565b6040516104069190613a43565b6104356105243660046137cb565b610e89565b61053c6105373660046137cb565b610ede565b60405161040693929190613a6d565b610435610559366004613ae9565b610f77565b61043561056c366004613b3e565b6110f6565b6103fc61057f3660046137ae565b611175565b61053c610592366004613b6a565b611386565b6104356105a5366004613800565b61143b565b6104356105b836600461398b565b6114a8565b6000546103fc565b6104356105d3366004613842565b611509565b6103fc6105e63660046137ae565b611689565b6104cb6105f9366004613b3e565b6116c5565b61061161060c3660046137ae565b61174b565b604080516001600160a01b039093168352602083019190915201610406565b61053c61063e366004613b6a565b6117d0565b610435610651366004613ae9565b611838565b6103fc6106643660046137ae565b6118e5565b610435610677366004613bb0565b611921565b6103fc61068a3660046137ae565b6119b1565b6104cb61069d3660046137ae565b6119ed565b610435611a6a565b6104356106b83660046137ae565b611a86565b6104356106cb366004613a08565b611b28565b6012546106dd9060ff1681565b6040519015158152602001610406565b6104356106fb3660046137ae565b611bb5565b6104a3611df1565b6103fc6107163660046137ae565b611e7f565b61053c6107293660046137cb565b611ebb565b61050961073c366004613a08565b611f04565b6104a3611f4c565b61075c610757366004613842565b611f59565b604080519315158452602084019290925290820152606001610406565b6104a36107873660046137ae565b611fe9565b6103fc61079a3660046137ae565b61206b565b6104356107ad366004613bb0565b6120ee565b6104356107c0366004613b3e565b612147565b6104a361219a565b6107e06107db366004613842565b6121a9565b604080519215158352602083019190915201610406565b6107e0610805366004613842565b612235565b6103fc6108183660046137ae565b612275565b61043561082b366004613842565b6122b1565b61044a61083e366004613842565b612304565b610435612350565b610435610859366004613842565b61237a565b6104cb61086c366004613b3e565b612849565b61043561087f366004613842565b612887565b610435610892366004613c0b565b6128da565b6103fc6108a53660046137ae565b612954565b6104356108b83660046137ae565b612990565b6107e06108cb366004613842565b612c46565b6103fc6108de3660046137cb565b612c86565b6103fc612cc6565b6104356108f9366004613b3e565b612d3d565b61043561090c366004613c4f565b612d90565b61043561091f3660046137ae565b61308d565b610435610932366004613cb7565b613111565b6104356109453660046137ae565b6132bc565b60405163d6bb8c2d60e01b815260009073__$c6d9457c6dbcc90c1d7f2fc4ea4e9c912f$__9063d6bb8c2d906109869084908690600401613cf8565b602060405180830381865af41580156109a3573d6000803e3d6000fd5b505050506040513d601f19601f820116820180604052508101906109c79190613d0f565b92915050565b6040516310170c5960e31b815260009073__$c6d9457c6dbcc90c1d7f2fc4ea4e9c912f$__906380b862c890610a0d908490889088908890600401613d28565b602060405180830381865af4158015610a2a573d6000803e3d6000fd5b505050506040513d601f19601f82011682018060405250810190610a4e9190613d0f565b949350505050565b60125460ff161515600114610a6d57610a6d613d4c565b60405163296fbde360e11b8152600060048201526001600160a01b038085166024830152604482018490528216606482015273__$c6d9457c6dbcc90c1d7f2fc4ea4e9c912f$__906352df7bc6906084015b60006040518083038186803b158015610ad757600080fd5b505af4158015610aeb573d6000803e3d6000fd5b50505050505050565b6000806000806000610b0461376c565b604051637e168e6360e11b815273__$c6d9457c6dbcc90c1d7f2fc4ea4e9c912f$__9063fc2d1cc690610b40906000908c908c90600401613d62565b61010060405180830381865af4158015610b5e573d6000803e3d6000fd5b505050506040513d601f19601f82011682018060405250810190610b829190613e13565b949d939c50919a509850965090945092505050565b606060138054610ba690613e74565b80601f0160208091040260200160405190810160405280929190818152602001828054610bd290613e74565b8015610c1f5780601f10610bf457610100808354040283529160200191610c1f565b820191906000526020600020905b815481529060010190602001808311610c0257829003601f168201915b5050505050905090565b60125460ff161515600114610c4057610c40613d4c565b604051630a2e003360e21b8152600060048201526001600160a01b03808816602483015260448201879052606482018690528416608482015260a4810183905260c4810182905273__$c6d9457c6dbcc90c1d7f2fc4ea4e9c912f$__906328b800cc9060e40160006040518083038186803b158015610cbe57600080fd5b505af4158015610cd2573d6000803e3d6000fd5b505050505b505050505050565b604051631dd94a4360e21b81526000600482018190529073__$c6d9457c6dbcc90c1d7f2fc4ea4e9c912f$__90637765290c90602401602060405180830381865af4158015610d32573d6000803e3d6000fd5b505050506040513d601f19601f82011682018060405250810190610d569190613eae565b905090565b60125460ff161515600114610d7257610d72613d4c565b604051631589e69560e21b815273__$c6d9457c6dbcc90c1d7f2fc4ea4e9c912f$__906356279a5490610dbc906000908d908d908d908d908d908d908d908d908d90600401613ecb565b60006040518083038186803b158015610dd457600080fd5b505af4158015610de8573d6000803e3d6000fd5b50505050505050505050505050565b610dff61376c565b6040516310bacf7760e31b815273__$c6d9457c6dbcc90c1d7f2fc4ea4e9c912f$__906385d67bb890610e3f906000908990899089908990600401613f21565b606060405180830381865af4158015610e5c573d6000803e3d6000fd5b505050506040513d601f19601f82011682018060405250810190610e809190613f4d565b95945050505050565b60125460ff161515600114610ea057610ea0613d4c565b60405163044307f160e11b815273__$c6d9457c6dbcc90c1d7f2fc4ea4e9c912f$__906308860fe290610abf90600090879087908790600401613d28565b600080610ee961376c565b6040516302a906f360e01b815273__$c6d9457c6dbcc90c1d7f2fc4ea4e9c912f$__906302a906f390610f27906000908a908a908a90600401613d28565b60a060405180830381865af4158015610f44573d6000803e3d6000fd5b505050506040513d601f19601f82011682018060405250810190610f689190613f69565b92509250925093509350939050565b604080518181526000818301526001602082015290517f1fbe8156cf474a4c0655ec4c8974520601db142702d1591fde9b9df5cbae51749181900360600190a160125460ff16610fd957336001600160a01b03841614610fd957610fd9613d4c565b6001600160a01b03838116600090815260046020526040902054161561100157611001613d4c565b6002546001600160a01b03161561101a5761101a613d4c565b6001600160a01b038316600090815260036020526040902061103d828483613ff1565b5050506001600160a01b0316600081815260046020908152604080832080546001600160a01b03199081166001908117909255600280548216871790557f558e8cd53b467e9e56a1fc646b287819bef55e9e9b1cef531285b78fb892c6f58054909116861790557f1471eb6eb2c5e789fc3de43f8ce62938c7d1836ec861730447e2ada8fd81017b55928252600781528282206103e89081905560088252838320819055600c8252838320819055600d90915291902055565b60125460ff16151560011461110d5761110d613d4c565b6040516313f5b13b60e21b815273__$c6d9457c6dbcc90c1d7f2fc4ea4e9c912f$__90634fd6c4ec9061114990600090869086906004016140b1565b60006040518083038186803b15801561116157600080fd5b505af4158015610cd7573d6000803e3d6000fd5b6000806001600160a01b03831661118f5750600092915050565b60005b60015481101561134a5760015b6001546111ad9083906140e6565b81116113375760005b6040516356dff47b60e01b815273__$c6d9457c6dbcc90c1d7f2fc4ea4e9c912f$__906356dff47b906111f4906000908a9088908890600401613d28565b602060405180830381865af4158015611211573d6000803e3d6000fd5b505050506040513d601f19601f820116820180604052508101906112359190613d0f565b811015611324576040516310bacf7760e31b815260009073__$c6d9457c6dbcc90c1d7f2fc4ea4e9c912f$__906385d67bb89061127e9084908b90899089908990600401613f21565b606060405180830381865af415801561129b573d6000803e3d6000fd5b505050506040513d601f19601f820116820180604052508101906112bf9190613f4d565b80516001600160a01b03166000908152600b602090815260409091205490820151825192935090916112f090611175565b6112fa91906140f9565b6113049190614110565b61130e9086614132565b945050808061131c90614145565b9150506111b6565b508061132f81614145565b91505061119f565b508061134281614145565b915050611192565b5060005461135990600a614242565b6113639082614132565b6001600160a01b0390931660009081526010602052604090208390555090919050565b60008061139161376c565b60405163199bdb3760e01b8152600060048201526001600160a01b03808916602483015287166044820152606481018690526084810185905273__$c6d9457c6dbcc90c1d7f2fc4ea4e9c912f$__9063199bdb379060a4015b60a060405180830381865af4158015611407573d6000803e3d6000fd5b505050506040513d601f19601f8201168201806040525081019061142b9190613f69565b9250925092509450945094915050565b60125460ff16151560011461145257611452613d4c565b604051630456262b60e11b8152600060048201526001600160a01b038085166024830152604482018490528216606482015273__$c6d9457c6dbcc90c1d7f2fc4ea4e9c912f$__906308ac4c5690608401610abf565b60125460ff1615156001146114bf576114bf613d4c565b6040516337faee7360e01b815273__$c6d9457c6dbcc90c1d7f2fc4ea4e9c912f$__906337faee7390610dbc906000908d908d908d908d908d908d908d908d908d90600401613ecb565b60125460ff1661152b57336001600160a01b0383161461152b5761152b613d4c565b60008060008073__$c6d9457c6dbcc90c1d7f2fc4ea4e9c912f$__63fc2d1cc6600088886040518463ffffffff1660e01b815260040161156d93929190613d62565b61010060405180830381865af415801561158b573d6000803e3d6000fd5b505050506040513d601f19601f820116820180604052508101906115af9190613e13565b5094509450945094505083151560011515146115cd576115cd613d4c565b6040516344fdd8ad60e01b815273__$c6d9457c6dbcc90c1d7f2fc4ea4e9c912f$__906344fdd8ad9061160d906000908a90889088908890600401613f21565b60006040518083038186803b15801561162557600080fd5b505af4158015611639573d6000803e3d6000fd5b5050604080516001600160a01b03808b168252891660208201527fd6728385e5b2a1ea4a0bd688ee4b37009289e99c994fe5179d8a04e6a2a3962d935001905060405180910390a1505050505050565b604051634a7fd3db60e01b815260009073__$c6d9457c6dbcc90c1d7f2fc4ea4e9c912f$__90634a7fd3db906109869084908690600401613cf8565b60405163b105f13160e01b815260009073__$c6d9457c6dbcc90c1d7f2fc4ea4e9c912f$__9063b105f13190611703908490879087906004016140b1565b602060405180830381865af4158015611720573d6000803e3d6000fd5b505050506040513d601f19601f820116820180604052508101906117449190613eae565b9392505050565b604051624c9bfd60e11b8152600090819073__$c6d9457c6dbcc90c1d7f2fc4ea4e9c912f$__90629937fa906117879084908790600401613cf8565b6040805180830381865af41580156117a3573d6000803e3d6000fd5b505050506040513d601f19601f820116820180604052508101906117c7919061424e565b91509150915091565b6000806117db61376c565b604051630ad3961b60e41b8152600060048201526001600160a01b03808916602483015287166044820152606481018690526084810185905273__$c6d9457c6dbcc90c1d7f2fc4ea4e9c912f$__9063ad3961b09060a4016113ea565b60125460ff1661185a57336001600160a01b0384161461185a5761185a613d4c565b6001600160a01b038381166000908152600460205260409020541661188157611881613d4c565b6001600160a01b03831660009081526003602052604090206118a4828483613ff1565b507f2e0fa36889174e9aea584196418e6bb096e03ca996176c96613ab715e39441d88383836040516118d8939291906142a5565b60405180910390a1505050565b60405163187d2b1360e31b815260009073__$c6d9457c6dbcc90c1d7f2fc4ea4e9c912f$__9063c3e95898906109869084908690600401613cf8565b60125460ff16151560011461193857611938613d4c565b604051631778ca9d60e11b815273__$c6d9457c6dbcc90c1d7f2fc4ea4e9c912f$__90632ef1953a9061197a90600090899089908990899089906004016142ca565b60006040518083038186803b15801561199257600080fd5b505af41580156119a6573d6000803e3d6000fd5b505050505050505050565b60405163276dcfeb60e11b815260009073__$c6d9457c6dbcc90c1d7f2fc4ea4e9c912f$__90634edb9fd6906109869084908690600401613cf8565b604051632184acd960e01b815260009073__$c6d9457c6dbcc90c1d7f2fc4ea4e9c912f$__90632184acd990611a299084908690600401613cf8565b602060405180830381865af4158015611a46573d6000803e3d6000fd5b505050506040513d601f19601f820116820180604052508101906109c79190613eae565b60125460ff161515600103611a84576012805460ff191690555b565b6000611a91826119ed565b6001600160a01b031603611aa25750565b6001600160a01b0381166000908152601160205260408120805460ff191690555b6001600160a01b038216600090815260056020526040902054811015611b24576001600160a01b038083166000908152600660209081526040808320858452909152902054611b129116611a86565b80611b1c81614145565b915050611ac3565b5050565b60125460ff161515600114611b3f57611b3f613d4c565b60405163f7cae4a360e01b815273__$c6d9457c6dbcc90c1d7f2fc4ea4e9c912f$__9063f7cae4a390611b7f906000908890889088908890600401613f21565b60006040518083038186803b158015611b9757600080fd5b505af4158015611bab573d6000803e3d6000fd5b5050505050505050565b60125460ff16611bd757336001600160a01b03821614611bd757611bd7613d4c565b6001600160a01b038082166000908152600460205260409020541680611bff57611bff613d4c565b6000196001600160a01b03821601611c1957611c19613d4c565b6001600160a01b0380821660009081526004602052604081205490911690611c4084611175565b90506000611c4d84611175565b9050808211611c5e57611c5e613d4c565b6040516319cd627f60e31b815273__$c6d9457c6dbcc90c1d7f2fc4ea4e9c912f$__9063ce6b13f890611ca090600090889081908b90849081906004016142ca565b60006040518083038186803b158015611cb857600080fd5b505af4158015611ccc573d6000803e3d6000fd5b5050604051631778ca9d60e11b815273__$c6d9457c6dbcc90c1d7f2fc4ea4e9c912f$__9250632ef1953a9150611d1390600090899088908a9060029081906004016142ca565b60006040518083038186803b158015611d2b57600080fd5b505af4158015611d3f573d6000803e3d6000fd5b50506040516302995b5b60e51b815273__$c6d9457c6dbcc90c1d7f2fc4ea4e9c912f$__925063532b6b609150611d7d906000908990600401613cf8565b60006040518083038186803b158015611d9557600080fd5b505af4158015611da9573d6000803e3d6000fd5b50506040516001600160a01b03881681527f6de55b32d2f146d2b38635df7fd77a0f6b873247375d54072611002d6f82ee5f9250602001905060405180910390a15050505050565b60138054611dfe90613e74565b80601f0160208091040260200160405190810160405280929190818152602001828054611e2a90613e74565b8015611e775780601f10611e4c57610100808354040283529160200191611e77565b820191906000526020600020905b815481529060010190602001808311611e5a57829003601f168201915b505050505081565b6040516302fd7b8d60e21b815260009073__$c6d9457c6dbcc90c1d7f2fc4ea4e9c912f$__90630bf5ee34906109869084908690600401613cf8565b600080611ec661376c565b604051639337d81760e01b815273__$c6d9457c6dbcc90c1d7f2fc4ea4e9c912f$__90639337d81790610f27906000908a908a908a90600401613d28565b611f0c61376c565b604051632c10acf360e11b815273__$c6d9457c6dbcc90c1d7f2fc4ea4e9c912f$__9063582159e690610e3f906000908990899089908990600401613f21565b60148054611dfe90613e74565b60405163873823fb60e01b81526000908190819073__$c6d9457c6dbcc90c1d7f2fc4ea4e9c912f$__9063873823fb90611f9b90849089908990600401613d62565b606060405180830381865af4158015611fb8573d6000803e3d6000fd5b505050506040513d601f19601f82011682018060405250810190611fdc91906142ff565b9250925092509250925092565b6040516315611cab60e21b815260609073__$c6d9457c6dbcc90c1d7f2fc4ea4e9c912f$__9063558472ac90612026906000908690600401613cf8565b600060405180830381865af4158015612043573d6000803e3d6000fd5b505050506040513d6000823e601f3d908101601f191682016040526109c79190810190614334565b6001600160a01b0381811660009081526004602052604081205490911661209457506000919050565b6001600160a01b0382811660009081526004602052604090205416600019016120bf57506000919050565b6001600160a01b038083166000908152600460205260409020546120e3911661206b565b6109c7906001614132565b60125460ff16151560011461210557612105613d4c565b6040516319cd627f60e31b815273__$c6d9457c6dbcc90c1d7f2fc4ea4e9c912f$__9063ce6b13f89061197a90600090899089908990899089906004016142ca565b60125460ff16151560011461215e5761215e613d4c565b604051635452782360e11b815273__$c6d9457c6dbcc90c1d7f2fc4ea4e9c912f$__9063a8a4f0469061114990600090869086906004016140b1565b606060148054610ba690613e74565b60405163d934a2b160e01b8152600090819073__$c6d9457c6dbcc90c1d7f2fc4ea4e9c912f$__9063d934a2b1906121e990849088908890600401613d62565b6040805180830381865af4158015612205573d6000803e3d6000fd5b505050506040513d601f19601f8201168201806040525081019061222991906143d6565b915091505b9250929050565b60405163eb826b3d60e01b8152600090819073__$c6d9457c6dbcc90c1d7f2fc4ea4e9c912f$__9063eb826b3d906121e990849088908890600401613d62565b604051638cea4c9b60e01b815260009073__$c6d9457c6dbcc90c1d7f2fc4ea4e9c912f$__90638cea4c9b906109869084908690600401613cf8565b60125460ff1615156001146122c8576122c8613d4c565b6040516306a299cf60e21b815273__$c6d9457c6dbcc90c1d7f2fc4ea4e9c912f$__90631a8a673c906111499060009086908690600401613d62565b600080600080600061231461376c565b60405163b7f9a17960e01b815273__$c6d9457c6dbcc90c1d7f2fc4ea4e9c912f$__9063b7f9a17990610b40906000908c908c90600401613d62565b600254612365906001600160a01b0316611a86565b600254611a84906001600160a01b0316612990565b60125460ff1661239c57336001600160a01b0383161461239c5761239c613d4c565b6001600160a01b03828116600090815260046020526040902054166123c3576123c3613d4c565b6001600160a01b03818116600090815260046020526040902054166123ea576123ea613d4c565b6001600160a01b03811660009081526005602052604090205460021161241257612412613d4c565b600061241e8383613479565b6001600160a01b038085166000908152600460208190526040808320549051632cc8ea6f60e01b81529495509092169273__$c6d9457c6dbcc90c1d7f2fc4ea4e9c912f$__92632cc8ea6f92612478929091899101613cf8565b60006040518083038186803b15801561249057600080fd5b505af41580156124a4573d6000803e3d6000fd5b50505050816080015160001480156124ba575081515b156125855760a08201516040516340f6259760e01b81526001600160a01b0383169173__$c6d9457c6dbcc90c1d7f2fc4ea4e9c912f$__916340f62597916125099160009189916004016140b1565b602060405180830381865af4158015612526573d6000803e3d6000fd5b505050506040513d601f19601f8201168201806040525081019061254a9190613eae565b6001600160a01b031603612585576001826060015161256991906140e6565b606083015260a082015161257f906001906140e6565b60a08301525b5080511561260c57608081015160a08201516040516319cd627f60e31b815273__$c6d9457c6dbcc90c1d7f2fc4ea4e9c912f$__9263ce6b13f8926125d79260009289928992859291906004016142ca565b60006040518083038186803b1580156125ef57600080fd5b505af4158015612603573d6000803e3d6000fd5b5050505061279c565b8060200151156126605760c081015160e0820151604051631778ca9d60e11b815273__$c6d9457c6dbcc90c1d7f2fc4ea4e9c912f$__92632ef1953a926125d79260009289928992859291906004016142ca565b8060400151801561267657506001816101200151115b156126c757610100810151610120820151604051631778ca9d60e11b815273__$c6d9457c6dbcc90c1d7f2fc4ea4e9c912f$__92632ef1953a926125d79260009289928992859291906004016142ca565b60405163039c39a160e01b815273__$c6d9457c6dbcc90c1d7f2fc4ea4e9c912f$__9063039c39a190612701906000908790600401613cf8565b60006040518083038186803b15801561271957600080fd5b505af415801561272d573d6000803e3d6000fd5b5050604051633c53f05560e21b815273__$c6d9457c6dbcc90c1d7f2fc4ea4e9c912f$__925063f14fc154915061276b906000908790600401613cf8565b60006040518083038186803b15801561278357600080fd5b505af4158015612797573d6000803e3d6000fd5b505050505b604051632ce48cf360e21b815273__$c6d9457c6dbcc90c1d7f2fc4ea4e9c912f$__9063b39233cc906127d89060009087908790600401613d62565b60006040518083038186803b1580156127f057600080fd5b505af4158015612804573d6000803e3d6000fd5b5050604080516001600160a01b038088168252861660208201527f42fe77741ba69d01586c0f5cab2c4eac1f3815f77986c3dac065615ff1e187c093500190506118d8565b6040516340f6259760e01b815260009073__$c6d9457c6dbcc90c1d7f2fc4ea4e9c912f$__906340f6259790611703908490879087906004016140b1565b60125460ff16151560011461289e5761289e613d4c565b604051635bb7eaf960e11b815273__$c6d9457c6dbcc90c1d7f2fc4ea4e9c912f$__9063b76fd5f2906111499060009086908690600401613d62565b60125460ff1615156001146128f1576128f1613d4c565b604051630f55083360e11b8152600060048201526001600160a01b038616602482015260448101859052606481018490526084810183905260a4810182905273__$c6d9457c6dbcc90c1d7f2fc4ea4e9c912f$__90631eaa10669060c40161197a565b60405163cc0a57c960e01b815260009073__$c6d9457c6dbcc90c1d7f2fc4ea4e9c912f$__9063cc0a57c9906109869084908690600401613cf8565b600061299b826119ed565b6001600160a01b0316036129ac5750565b6001600160a01b03811660009081526011602052604090205460ff16156129d05750565b60005b6001600160a01b038216600090815260056020526040902054811015612a34576001600160a01b038083166000908152600660209081526040808320858452909152902054612a229116612990565b80612a2c81614145565b9150506129d3565b506000805b600154811015612bf75760015b600154612a549083906140e6565b8111612be45760005b6040516356dff47b60e01b815273__$c6d9457c6dbcc90c1d7f2fc4ea4e9c912f$__906356dff47b90612a9b90600090899088908890600401613d28565b602060405180830381865af4158015612ab8573d6000803e3d6000fd5b505050506040513d601f19601f82011682018060405250810190612adc9190613d0f565b811015612bd1576040516310bacf7760e31b815260009073__$c6d9457c6dbcc90c1d7f2fc4ea4e9c912f$__906385d67bb890612b259084908a90899089908990600401613f21565b606060405180830381865af4158015612b42573d6000803e3d6000fd5b505050506040513d601f19601f82011682018060405250810190612b669190613f4d565b80516001600160a01b039081166000908152600b6020908152604080832054828601518651909516845260109092529091205492935091612ba791906140f9565b612bb19190614110565b612bbb9086614132565b9450508080612bc990614145565b915050612a5d565b5080612bdc81614145565b915050612a46565b5080612bef81614145565b915050612a39565b50600054612c0690600a614242565b612c109082614132565b6001600160a01b039092166000908152601060209081526040808320949094556011905291909120805460ff1916600117905550565b604051637485fa6b60e01b8152600090819073__$c6d9457c6dbcc90c1d7f2fc4ea4e9c912f$__90637485fa6b906121e990849088908890600401613d62565b6040516356dff47b60e01b815260009073__$c6d9457c6dbcc90c1d7f2fc4ea4e9c912f$__906356dff47b90610a0d908490889088908890600401613d28565b604051638c001bb760e01b81526000600482018190529073__$c6d9457c6dbcc90c1d7f2fc4ea4e9c912f$__90638c001bb790602401602060405180830381865af4158015612d19573d6000803e3d6000fd5b505050506040513d601f19601f82011682018060405250810190610d569190613d0f565b60125460ff161515600114612d5457612d54613d4c565b6040516302216c6760e51b815273__$c6d9457c6dbcc90c1d7f2fc4ea4e9c912f$__9063442d8ce09061114990600090869086906004016140b1565b60125460ff16612db257336001600160a01b03851614612db257612db2613d4c565b6001600160a01b038481166000908152600460205260409020541615612dda57612dda613d4c565b6001600160a01b0381811660009081526004602052604090205416612e0157612e01613d4c565b6001600160a01b038116600090815260056020526040902054600211612e2957612e29613d4c565b6001600160a01b03848116600090815260046020908152604080832080546001600160a01b031916948616949094179093556003905220612e6b838583613ff1565b506001600160a01b03818116600081815260066020908152604080832060058084528285208054865291845291842080546001600160a01b031916968b1696909617909555929091525254612ec1906001614132565b6001600160a01b038083166000908152600560209081526040808320949094559187168152600782528281206103e89081905560088352838220819055600c8352838220819055600d909252828120919091559051637e168e6360e11b815281908190819073__$c6d9457c6dbcc90c1d7f2fc4ea4e9c912f$__9063fc2d1cc690612f549084908c908a90600401613d62565b61010060405180830381865af4158015612f72573d6000803e3d6000fd5b505050506040513d601f19601f82011682018060405250810190612f969190613e13565b50509350935093509350838015612fab575082155b612fb757612fb7613d4c565b604051630904402760e31b8152600060048201526001600160a01b03808a166024830152861660448201526064810183905260848101829052600160a482015273__$c6d9457c6dbcc90c1d7f2fc4ea4e9c912f$__9063482201389060c40160006040518083038186803b15801561302e57600080fd5b505af4158015613042573d6000803e3d6000fd5b505050507fa53de098e478f323d976b7cee2981a2fa6bdf0c952e970a1963650500277cb3d8888888860405161307b9493929190614402565b60405180910390a15050505050505050565b60125460ff1615156001146130a4576130a4613d4c565b604051632cc8ea6f60e01b815273__$c6d9457c6dbcc90c1d7f2fc4ea4e9c912f$__90632cc8ea6f906130de906000908590600401613cf8565b60006040518083038186803b1580156130f657600080fd5b505af415801561310a573d6000803e3d6000fd5b5050505050565b60125460ff1661313357336001600160a01b0384161461313357613133613d4c565b60008060008073__$c6d9457c6dbcc90c1d7f2fc4ea4e9c912f$__63fc2d1cc6600089896040518463ffffffff1660e01b815260040161317593929190613d62565b61010060405180830381865af4158015613193573d6000803e3d6000fd5b505050506040513d601f19601f820116820180604052508101906131b79190613e13565b505093509350935093508380156131cc575082155b6131d8576131d8613d4c565b604051630904402760e31b8152600060048201526001600160a01b03808916602483015287166044820152606481018390526084810182905260a4810186905273__$c6d9457c6dbcc90c1d7f2fc4ea4e9c912f$__9063482201389060c40160006040518083038186803b15801561324f57600080fd5b505af4158015613263573d6000803e3d6000fd5b5050604080516001600160a01b03808c1682528a1660208201529081018890527f304cae11085637ce50fcf9a75651bb27340f12517d0174081fe96f0610f3422a9250606001905060405180910390a150505050505050565b60125460ff166132de57336001600160a01b038216146132de576132de613d4c565b60405163039c39a160e01b815273__$c6d9457c6dbcc90c1d7f2fc4ea4e9c912f$__9063039c39a190613318906000908590600401613cf8565b60006040518083038186803b15801561333057600080fd5b505af4158015613344573d6000803e3d6000fd5b5050604051633c53f05560e21b815273__$c6d9457c6dbcc90c1d7f2fc4ea4e9c912f$__925063f14fc1549150613382906000908590600401613cf8565b60006040518083038186803b15801561339a57600080fd5b505af41580156133ae573d6000803e3d6000fd5b5050604051632cc8ea6f60e01b815273__$c6d9457c6dbcc90c1d7f2fc4ea4e9c912f$__9250632cc8ea6f91506133ec906000908590600401613cf8565b60006040518083038186803b15801561340457600080fd5b505af4158015613418573d6000803e3d6000fd5b505050506001600160a01b03811660008181526004602090815260409182902080546001600160a01b031916905590519182527fc785f44913a829c9e52595c7fd4ebe0cf9bc8216324ec100363351dfa1c1926e910160405180910390a150565b6134d5604051806101400160405280600015158152602001600015158152602001600015158152602001600081526020016000815260200160008152602001600081526020016000815260200160008152602001600081525090565b604051624c9bfd60e11b815260009073__$c6d9457c6dbcc90c1d7f2fc4ea4e9c912f$__90629937fa9061350f9084908890600401613cf8565b6040805180830381865af415801561352b573d6000803e3d6000fd5b505050506040513d601f19601f8201168201806040525081019061354f919061424e565b509050600080600073__$c6d9457c6dbcc90c1d7f2fc4ea4e9c912f$__63873823fb6000888a6040518463ffffffff1660e01b815260040161359393929190613d62565b606060405180830381865af41580156135b0573d6000803e3d6000fd5b505050506040513d601f19601f820116820180604052508101906135d491906142ff565b9194509250905060006135e782846140e6565b9050600080600073__$c6d9457c6dbcc90c1d7f2fc4ea4e9c912f$__63873823fb60008d8d6040518463ffffffff1660e01b815260040161362a93929190613d62565b606060405180830381865af4158015613647573d6000803e3d6000fd5b505050506040513d601f19601f8201168201806040525081019061366b91906142ff565b925092509250600080600073__$c6d9457c6dbcc90c1d7f2fc4ea4e9c912f$__63873823fb60008f8e6040518463ffffffff1660e01b81526004016136b293929190613d62565b606060405180830381865af41580156136cf573d6000803e3d6000fd5b505050506040513d601f19601f820116820180604052508101906136f391906142ff565b92509250925060008160006001015461370c91906140e6565b9050600061371a8285614132565b9b15158e525095151560208d01525050151560408a01526060890195909552608088019290925260a087019290925260c086015260e08501919091526101008401919091526101208301525092915050565b604051806060016040528060006001600160a01b0316815260200160008152602001600081525090565b6001600160a01b03811681146137ab57600080fd5b50565b6000602082840312156137c057600080fd5b813561174481613796565b6000806000606084860312156137e057600080fd5b83356137eb81613796565b95602085013595506040909401359392505050565b60008060006060848603121561381557600080fd5b833561382081613796565b925060208401359150604084013561383781613796565b809150509250925092565b6000806040838503121561385557600080fd5b823561386081613796565b9150602083013561387081613796565b809150509250929050565b600061010082019050871515825286151560208301528560408301528460608301528360808301526138cd60a083018480516001600160a01b0316825260208082015190830152604090810151910152565b979650505050505050565b60005b838110156138f35781810151838201526020016138db565b50506000910152565b602081526000825180602084015261391b8160408501602087016138d8565b601f01601f19169190910160400192915050565b60008060008060008060c0878903121561394857600080fd5b863561395381613796565b95506020870135945060408701359350606087013561397181613796565b9598949750929560808101359460a0909101359350915050565b60008060008060008060008060006101208a8c0312156139aa57600080fd5b89356139b581613796565b985060208a0135975060408a0135965060608a0135955060808a0135945060a08a0135935060c08a01356139e881613796565b8093505060e08a013591506101008a013590509295985092959850929598565b60008060008060808587031215613a1e57600080fd5b8435613a2981613796565b966020860135965060408601359560600135945092505050565b81516001600160a01b031681526020808301519082015260408083015190820152606081016109c7565b83151581526020810183905260a08101610a4e604083018480516001600160a01b0316825260208082015190830152604090810151910152565b60008083601f840112613ab957600080fd5b50813567ffffffffffffffff811115613ad157600080fd5b60208301915083602082850101111561222e57600080fd5b600080600060408486031215613afe57600080fd5b8335613b0981613796565b9250602084013567ffffffffffffffff811115613b2557600080fd5b613b3186828701613aa7565b9497909650939450505050565b60008060408385031215613b5157600080fd5b8235613b5c81613796565b946020939093013593505050565b60008060008060808587031215613b8057600080fd5b8435613b8b81613796565b93506020850135613b9b81613796565b93969395505050506040820135916060013590565b600080600080600060a08688031215613bc857600080fd5b8535613bd381613796565b94506020860135613be381613796565b93506040860135613bf381613796565b94979396509394606081013594506080013592915050565b600080600080600060a08688031215613c2357600080fd5b8535613c2e81613796565b97602087013597506040870135966060810135965060800135945092505050565b60008060008060608587031215613c6557600080fd5b8435613c7081613796565b9350602085013567ffffffffffffffff811115613c8c57600080fd5b613c9887828801613aa7565b9094509250506040850135613cac81613796565b939692955090935050565b600080600060608486031215613ccc57600080fd5b8335613cd781613796565b92506020840135613ce781613796565b929592945050506040919091013590565b9182526001600160a01b0316602082015260400190565b600060208284031215613d2157600080fd5b5051919050565b9384526001600160a01b039290921660208401526040830152606082015260800190565b634e487b7160e01b600052600160045260246000fd5b9283526001600160a01b03918216602084015216604082015260600190565b80518015158114613d9157600080fd5b919050565b634e487b7160e01b600052604160045260246000fd5b600060608284031215613dbe57600080fd5b6040516060810181811067ffffffffffffffff82111715613de157613de1613d96565b80604052508091508251613df481613796565b8082525060208301516020820152604083015160408201525092915050565b6000806000806000806101008789031215613e2d57600080fd5b613e3687613d81565b9550613e4460208801613d81565b9450604087015193506060870151925060808701519150613e688860a08901613dac565b90509295509295509295565b600181811c90821680613e8857607f821691505b602082108103613ea857634e487b7160e01b600052602260045260246000fd5b50919050565b600060208284031215613ec057600080fd5b815161174481613796565b998a526001600160a01b0398891660208b015260408a01979097526060890195909552608088019390935260a087019190915260c086015290921660e08401526101008301919091526101208201526101400190565b9485526001600160a01b0393909316602085015260408401919091526060830152608082015260a00190565b600060608284031215613f5f57600080fd5b6117448383613dac565b600080600060a08486031215613f7e57600080fd5b613f8784613d81565b925060208401519150613f9d8560408601613dac565b90509250925092565b601f821115613fec57600081815260208120601f850160051c81016020861015613fcd5750805b601f850160051c820191505b81811015610cd757828155600101613fd9565b505050565b67ffffffffffffffff83111561400957614009613d96565b61401d836140178354613e74565b83613fa6565b6000601f84116001811461405157600085156140395750838201355b600019600387901b1c1916600186901b17835561310a565b600083815260209020601f19861690835b828110156140825786850135825560209485019460019092019101614062565b508682101561409f5760001960f88860031b161c19848701351681555b505060018560011b0183555050505050565b9283526001600160a01b03919091166020830152604082015260600190565b634e487b7160e01b600052601160045260246000fd5b818103818111156109c7576109c76140d0565b80820281158282048414176109c7576109c76140d0565b60008261412d57634e487b7160e01b600052601260045260246000fd5b500490565b808201808211156109c7576109c76140d0565b600060018201614157576141576140d0565b5060010190565b600181815b8085111561419957816000190482111561417f5761417f6140d0565b8085161561418c57918102915b93841c9390800290614163565b509250929050565b6000826141b0575060016109c7565b816141bd575060006109c7565b81600181146141d357600281146141dd576141f9565b60019150506109c7565b60ff8411156141ee576141ee6140d0565b50506001821b6109c7565b5060208310610133831016604e8410600b841016171561421c575081810a6109c7565b614226838361415e565b806000190482111561423a5761423a6140d0565b029392505050565b600061174483836141a1565b6000806040838503121561426157600080fd5b825161426c81613796565b6020939093015192949293505050565b81835281816020850137506000828201602090810191909152601f909101601f19169091010190565b6001600160a01b0384168152604060208201819052600090610e80908301848661427c565b9586526001600160a01b039485166020870152928416604086015292166060840152608083019190915260a082015260c00190565b60008060006060848603121561431457600080fd5b61431d84613d81565b925060208401519150604084015190509250925092565b60006020828403121561434657600080fd5b815167ffffffffffffffff8082111561435e57600080fd5b818401915084601f83011261437257600080fd5b81518181111561438457614384613d96565b604051601f8201601f19908116603f011681019083821181831017156143ac576143ac613d96565b816040528281528760208487010111156143c557600080fd5b6138cd8360208301602088016138d8565b600080604083850312156143e957600080fd5b6143f283613d81565b9150602083015190509250929050565b600060018060a01b0380871683526060602084015261442560608401868861427c565b91508084166040840152509594505050505056fea264697066735822122064599830ab2b94cf52f2eeb3dd849b5cb52bbad178a0779232decee3cb0eb97364736f6c63430008150033",
    "linkReferences": {
      "src/AnthillInner.sol": {
        "AnthillInner": [
          {
            "start": 2908,
            "length": 20
          },
          {
            "start": 3039,
            "length": 20
          },
          {
            "start": 3233,
            "length": 20
          },
          {
            "start": 3347,
            "length": 20
          },
          {
            "start": 3721,
            "length": 20
          },
          {
            "start": 3832,
            "length": 20
          },
          {
            "start": 3969,
            "length": 20
          },
          {
            "start": 4110,
            "length": 20
          },
          {
            "start": 4271,
            "length": 20
          },
          {
            "start": 4344,
            "length": 20
          },
          {
            "start": 4892,
            "length": 20
          },
          {
            "start": 5061,
            "length": 20
          },
          {
            "start": 5198,
            "length": 20
          },
          {
            "start": 5580,
            "length": 20
          },
          {
            "start": 5766,
            "length": 20
          },
          {
            "start": 5838,
            "length": 20
          },
          {
            "start": 5939,
            "length": 20
          },
          {
            "start": 6108,
            "length": 20
          },
          {
            "start": 6299,
            "length": 20
          },
          {
            "start": 6359,
            "length": 20
          },
          {
            "start": 6494,
            "length": 20
          },
          {
            "start": 6678,
            "length": 20
          },
          {
            "start": 6903,
            "length": 20
          },
          {
            "start": 6983,
            "length": 20
          },
          {
            "start": 7107,
            "length": 20
          },
          {
            "start": 7167,
            "length": 20
          },
          {
            "start": 7502,
            "length": 20
          },
          {
            "start": 7789,
            "length": 20
          },
          {
            "start": 7901,
            "length": 20
          },
          {
            "start": 8016,
            "length": 20
          },
          {
            "start": 8337,
            "length": 20
          },
          {
            "start": 8405,
            "length": 20
          },
          {
            "start": 8475,
            "length": 20
          },
          {
            "start": 8559,
            "length": 20
          },
          {
            "start": 8699,
            "length": 20
          },
          {
            "start": 8980,
            "length": 20
          },
          {
            "start": 9069,
            "length": 20
          },
          {
            "start": 9149,
            "length": 20
          },
          {
            "start": 9289,
            "length": 20
          },
          {
            "start": 9351,
            "length": 20
          },
          {
            "start": 9431,
            "length": 20
          },
          {
            "start": 9507,
            "length": 20
          },
          {
            "start": 9808,
            "length": 20
          },
          {
            "start": 9950,
            "length": 20
          },
          {
            "start": 10150,
            "length": 20
          },
          {
            "start": 10287,
            "length": 20
          },
          {
            "start": 10390,
            "length": 20
          },
          {
            "start": 10454,
            "length": 20
          },
          {
            "start": 10558,
            "length": 20
          },
          {
            "start": 10667,
            "length": 20
          },
          {
            "start": 10843,
            "length": 20
          },
          {
            "start": 10925,
            "length": 20
          },
          {
            "start": 11058,
            "length": 20
          },
          {
            "start": 11110,
            "length": 20
          },
          {
            "start": 11372,
            "length": 20
          },
          {
            "start": 11509,
            "length": 20
          },
          {
            "start": 11866,
            "length": 20
          },
          {
            "start": 11928,
            "length": 20
          },
          {
            "start": 11999,
            "length": 20
          },
          {
            "start": 12131,
            "length": 20
          },
          {
            "start": 12584,
            "length": 20
          },
          {
            "start": 12793,
            "length": 20
          },
          {
            "start": 12979,
            "length": 20
          },
          {
            "start": 13115,
            "length": 20
          },
          {
            "start": 13338,
            "length": 20
          },
          {
            "start": 13549,
            "length": 20
          },
          {
            "start": 13653,
            "length": 20
          },
          {
            "start": 13759,
            "length": 20
          },
          {
            "start": 14054,
            "length": 20
          },
          {
            "start": 14169,
            "length": 20
          },
          {
            "start": 14320,
            "length": 20
          },
          {
            "start": 14456,
            "length": 20
          }
        ]
      }
    }
  },
  "methodIdentifiers": {
    "addDagVote(address,address,uint256)": "fa2465f1",
    "balanceOf(address)": "70a08231",
    "calculateReputation(address)": "27c06fd5",
    "calculateReputationRec(address)": "d7b547f0",
    "changeDistDepthFromRecCellOnOp(address,uint256,uint256,uint256,uint256)": "cf59ba21",
    "changeDistDepthRec(address,uint256,uint256,uint256,uint256,uint256,address,uint256,uint256)": "30e66631",
    "changeDistDepthSent(address,uint256,uint256,uint256,uint256,uint256,address,uint256,uint256)": "12e94ea2",
    "changeName(address,string)": "45ca25ed",
    "clearReputationCalculatedRec(address)": "60c69aa5",
    "collapseRecDagVoteIntoColumn(address,uint256)": "ed747e94",
    "collapseSentDagVoteIntoColumn(address,uint256)": "94c41cb2",
    "dag()": "05279858",
    "decimals()": "313ce567",
    "findDistAtSameDepth(address,address)": "a16877d5",
    "findLastRecDagVoteAtDistDepth(address,uint256,uint256)": "73d701df",
    "findLastSentDagVoteAtDistDepth(address,uint256,uint256)": "19240072",
    "findNthParent(address,uint256)": "c68d6f61",
    "findRecDagVote(address,address)": "b9aae95d",
    "findRecDagVotePosAtDistDepth(address,address,uint256,uint256)": "2990cf12",
    "findRecTreeVotePos(address,address)": "a571dcd7",
    "findRelDepth(address,address)": "dd88aa95",
    "findRelRoot(address)": "3aaf189b",
    "findSDistDepth(address,address)": "7fb2ed2a",
    "findSentDagVote(address,address)": "0520b5a4",
    "findSentDagVotePosAtDistDepth(address,address,uint256,uint256)": "4356454b",
    "handleDagVoteMoveFall(address,address,address,uint256,uint256)": "8b66a659",
    "handleDagVoteMoveRise(address,address,address,uint256,uint256)": "4ca57db9",
    "handleLeavingVoterBranch(address)": "f358f683",
    "joinTree(address,string,address)": "eeaebe87",
    "joinTreeAsRoot(address,string)": "199cd8c0",
    "leaveTree(address)": "ff8f07de",
    "lockTree()": "5c68f16d",
    "moveRecDagVoteDownLeftRising(address,uint256)": "21ffcf50",
    "moveTreeVote(address,address)": "c5ce0318",
    "name()": "06fdde03",
    "pullUpBranch(address,address)": "c9f05d09",
    "readDepth(address)": "825a3855",
    "readMaxRelRootDepth()": "e614a68d",
    "readName(address)": "806df959",
    "readRecDagVote(address,uint256,uint256,uint256)": "15d4936a",
    "readRecDagVoteCount(address,uint256,uint256)": "e414c457",
    "readRecDagVoteDepthDiff(address)": "d5a64361",
    "readRecDagVoteDistDiff(address)": "519bf72d",
    "readRecTreeVote(address,uint256)": "3a47ce83",
    "readRecTreeVoteCount(address)": "49bb27e0",
    "readReputation(address)": "b062aaec",
    "readRoot()": "10839bf7",
    "readSentDagVote(address,uint256,uint256,uint256)": "77a63f9b",
    "readSentDagVoteCount(address,uint256,uint256)": "00f71abc",
    "readSentDagVoteDepthDiff(address)": "ab70b4c6",
    "readSentDagVoteDistDiff(address)": "39273f59",
    "readSentDagVoteTotalWeight(address)": "00a1efe5",
    "readSentTreeVote(address)": "59bf02a5",
    "recDagAppend(address,uint256,uint256,address,uint256,uint256)": "0a04f8a8",
    "recalculateAllReputation()": "c389ccc0",
    "removeDagVote(address,address)": "37ba0eb1",
    "removeRecDagVoteCell(address,uint256,uint256)": "184cc145",
    "sortRecDagVoteColumn(address,uint256,address)": "2b7cec53",
    "sortRecDagVoteColumnDescendants(address,address)": "b529ef4c",
    "sortSentDagVoteColumn(address,uint256,address)": "050cd8af",
    "switchPositionWithParent(address)": "6be22cd2",
    "symbol()": "95d89b41",
    "tokenName()": "6c02a931",
    "tokenSymbol()": "7b61c320",
    "unlocked()": "6a5e2650",
    "unsafeReplaceRecDagVoteAtDistDepthPosWithLast(address,uint256,uint256,uint256)": "6521e277"
  },
  "id": 16
}