{
  "abi": [
    {
      "type": "constructor",
      "inputs": [],
      "stateMutability": "nonpayable"
    },
    {
      "type": "function",
      "name": "MAX_REL_ROOT_DEPTH",
      "inputs": [],
      "outputs": [
        {
          "name": "",
          "type": "uint256",
          "internalType": "uint256"
        }
      ],
      "stateMutability": "view"
    },
    {
      "type": "function",
      "name": "addDagVote",
      "inputs": [
        {
          "name": "voter",
          "type": "address",
          "internalType": "address"
        },
        {
          "name": "recipient",
          "type": "address",
          "internalType": "address"
        },
        {
          "name": "weight",
          "type": "uint256",
          "internalType": "uint256"
        }
      ],
      "outputs": [],
      "stateMutability": "nonpayable"
    },
    {
      "type": "function",
      "name": "balanceOf",
      "inputs": [
        {
          "name": "voter",
          "type": "address",
          "internalType": "address"
        }
      ],
      "outputs": [
        {
          "name": "",
          "type": "uint256",
          "internalType": "uint256"
        }
      ],
      "stateMutability": "view"
    },
    {
      "type": "function",
      "name": "calculateReputation",
      "inputs": [
        {
          "name": "voter",
          "type": "address",
          "internalType": "address"
        }
      ],
      "outputs": [
        {
          "name": "",
          "type": "uint256",
          "internalType": "uint256"
        }
      ],
      "stateMutability": "nonpayable"
    },
    {
      "type": "function",
      "name": "calculateReputationRec",
      "inputs": [
        {
          "name": "voter",
          "type": "address",
          "internalType": "address"
        }
      ],
      "outputs": [],
      "stateMutability": "nonpayable"
    },
    {
      "type": "function",
      "name": "changeName",
      "inputs": [
        {
          "name": "voter",
          "type": "address",
          "internalType": "address"
        },
        {
          "name": "voterName",
          "type": "string",
          "internalType": "string"
        }
      ],
      "outputs": [],
      "stateMutability": "nonpayable"
    },
    {
      "type": "function",
      "name": "clearReputationCalculatedRec",
      "inputs": [
        {
          "name": "voter",
          "type": "address",
          "internalType": "address"
        }
      ],
      "outputs": [],
      "stateMutability": "nonpayable"
    },
    {
      "type": "function",
      "name": "decimalPoint",
      "inputs": [],
      "outputs": [
        {
          "name": "",
          "type": "uint256",
          "internalType": "uint256"
        }
      ],
      "stateMutability": "view"
    },
    {
      "type": "function",
      "name": "decimals",
      "inputs": [],
      "outputs": [
        {
          "name": "",
          "type": "uint256",
          "internalType": "uint256"
        }
      ],
      "stateMutability": "view"
    },
    {
      "type": "function",
      "name": "findDistAtSameDepth",
      "inputs": [
        {
          "name": "add1",
          "type": "address",
          "internalType": "address"
        },
        {
          "name": "add2",
          "type": "address",
          "internalType": "address"
        }
      ],
      "outputs": [
        {
          "name": "isSameDepth",
          "type": "bool",
          "internalType": "bool"
        },
        {
          "name": "distance",
          "type": "uint256",
          "internalType": "uint256"
        }
      ],
      "stateMutability": "view"
    },
    {
      "type": "function",
      "name": "findDistances",
      "inputs": [
        {
          "name": "voter",
          "type": "address",
          "internalType": "address"
        },
        {
          "name": "recipient",
          "type": "address",
          "internalType": "address"
        }
      ],
      "outputs": [
        {
          "name": "isLocal",
          "type": "bool",
          "internalType": "bool"
        },
        {
          "name": "sDist",
          "type": "uint256",
          "internalType": "uint256"
        },
        {
          "name": "rDist",
          "type": "uint256",
          "internalType": "uint256"
        }
      ],
      "stateMutability": "view"
    },
    {
      "type": "function",
      "name": "findDistancesRecNotLower",
      "inputs": [
        {
          "name": "voter",
          "type": "address",
          "internalType": "address"
        },
        {
          "name": "recipient",
          "type": "address",
          "internalType": "address"
        }
      ],
      "outputs": [
        {
          "name": "isLocal",
          "type": "bool",
          "internalType": "bool"
        },
        {
          "name": "sDist",
          "type": "uint256",
          "internalType": "uint256"
        },
        {
          "name": "rDist",
          "type": "uint256",
          "internalType": "uint256"
        }
      ],
      "stateMutability": "view"
    },
    {
      "type": "function",
      "name": "findNthParent",
      "inputs": [
        {
          "name": "voter",
          "type": "address",
          "internalType": "address"
        },
        {
          "name": "height",
          "type": "uint256",
          "internalType": "uint256"
        }
      ],
      "outputs": [
        {
          "name": "parent",
          "type": "address",
          "internalType": "address"
        }
      ],
      "stateMutability": "view"
    },
    {
      "type": "function",
      "name": "findRecDagVote",
      "inputs": [
        {
          "name": "voter",
          "type": "address",
          "internalType": "address"
        },
        {
          "name": "recipient",
          "type": "address",
          "internalType": "address"
        }
      ],
      "outputs": [
        {
          "name": "votable",
          "type": "bool",
          "internalType": "bool"
        },
        {
          "name": "voted",
          "type": "bool",
          "internalType": "bool"
        },
        {
          "name": "sdist",
          "type": "uint256",
          "internalType": "uint256"
        },
        {
          "name": "depth",
          "type": "uint256",
          "internalType": "uint256"
        },
        {
          "name": "votePos",
          "type": "uint256",
          "internalType": "uint256"
        },
        {
          "name": "dagVote",
          "type": "tuple",
          "internalType": "struct DagVote",
          "components": [
            {
              "name": "id",
              "type": "address",
              "internalType": "address"
            },
            {
              "name": "weight",
              "type": "uint256",
              "internalType": "uint256"
            },
            {
              "name": "dist",
              "type": "uint256",
              "internalType": "uint256"
            },
            {
              "name": "posInOther",
              "type": "uint256",
              "internalType": "uint256"
            }
          ]
        }
      ],
      "stateMutability": "view"
    },
    {
      "type": "function",
      "name": "findRecDagVoteNew",
      "inputs": [
        {
          "name": "voter",
          "type": "address",
          "internalType": "address"
        },
        {
          "name": "recipient",
          "type": "address",
          "internalType": "address"
        }
      ],
      "outputs": [
        {
          "name": "votable",
          "type": "bool",
          "internalType": "bool"
        },
        {
          "name": "voted",
          "type": "bool",
          "internalType": "bool"
        },
        {
          "name": "votePos",
          "type": "uint256",
          "internalType": "uint256"
        },
        {
          "name": "dagVote",
          "type": "tuple",
          "internalType": "struct DagVote",
          "components": [
            {
              "name": "id",
              "type": "address",
              "internalType": "address"
            },
            {
              "name": "weight",
              "type": "uint256",
              "internalType": "uint256"
            },
            {
              "name": "dist",
              "type": "uint256",
              "internalType": "uint256"
            },
            {
              "name": "posInOther",
              "type": "uint256",
              "internalType": "uint256"
            }
          ]
        }
      ],
      "stateMutability": "view"
    },
    {
      "type": "function",
      "name": "findRelDepth",
      "inputs": [
        {
          "name": "voter",
          "type": "address",
          "internalType": "address"
        },
        {
          "name": "recipient",
          "type": "address",
          "internalType": "address"
        }
      ],
      "outputs": [
        {
          "name": "isLocal",
          "type": "bool",
          "internalType": "bool"
        },
        {
          "name": "relDepth",
          "type": "uint256",
          "internalType": "uint256"
        }
      ],
      "stateMutability": "view"
    },
    {
      "type": "function",
      "name": "findRelDepthInner",
      "inputs": [
        {
          "name": "voter",
          "type": "address",
          "internalType": "address"
        },
        {
          "name": "recipient",
          "type": "address",
          "internalType": "address"
        }
      ],
      "outputs": [
        {
          "name": "isLocal",
          "type": "bool",
          "internalType": "bool"
        },
        {
          "name": "relRootDiff",
          "type": "uint256",
          "internalType": "uint256"
        },
        {
          "name": "rDist",
          "type": "uint256",
          "internalType": "uint256"
        }
      ],
      "stateMutability": "view"
    },
    {
      "type": "function",
      "name": "findRelRoot",
      "inputs": [
        {
          "name": "voter",
          "type": "address",
          "internalType": "address"
        }
      ],
      "outputs": [
        {
          "name": "relRoot",
          "type": "address",
          "internalType": "address"
        },
        {
          "name": "relDepth",
          "type": "uint256",
          "internalType": "uint256"
        }
      ],
      "stateMutability": "view"
    },
    {
      "type": "function",
      "name": "findSentDagVote",
      "inputs": [
        {
          "name": "voter",
          "type": "address",
          "internalType": "address"
        },
        {
          "name": "recipient",
          "type": "address",
          "internalType": "address"
        }
      ],
      "outputs": [
        {
          "name": "votable",
          "type": "bool",
          "internalType": "bool"
        },
        {
          "name": "voted",
          "type": "bool",
          "internalType": "bool"
        },
        {
          "name": "sDist",
          "type": "uint256",
          "internalType": "uint256"
        },
        {
          "name": "rDist",
          "type": "uint256",
          "internalType": "uint256"
        },
        {
          "name": "votePos",
          "type": "uint256",
          "internalType": "uint256"
        },
        {
          "name": "dagVote",
          "type": "tuple",
          "internalType": "struct DagVote",
          "components": [
            {
              "name": "id",
              "type": "address",
              "internalType": "address"
            },
            {
              "name": "weight",
              "type": "uint256",
              "internalType": "uint256"
            },
            {
              "name": "dist",
              "type": "uint256",
              "internalType": "uint256"
            },
            {
              "name": "posInOther",
              "type": "uint256",
              "internalType": "uint256"
            }
          ]
        }
      ],
      "stateMutability": "view"
    },
    {
      "type": "function",
      "name": "findSentDagVoteNew",
      "inputs": [
        {
          "name": "voter",
          "type": "address",
          "internalType": "address"
        },
        {
          "name": "recipient",
          "type": "address",
          "internalType": "address"
        }
      ],
      "outputs": [
        {
          "name": "votable",
          "type": "bool",
          "internalType": "bool"
        },
        {
          "name": "voted",
          "type": "bool",
          "internalType": "bool"
        },
        {
          "name": "votePos",
          "type": "uint256",
          "internalType": "uint256"
        },
        {
          "name": "dagVote",
          "type": "tuple",
          "internalType": "struct DagVote",
          "components": [
            {
              "name": "id",
              "type": "address",
              "internalType": "address"
            },
            {
              "name": "weight",
              "type": "uint256",
              "internalType": "uint256"
            },
            {
              "name": "dist",
              "type": "uint256",
              "internalType": "uint256"
            },
            {
              "name": "posInOther",
              "type": "uint256",
              "internalType": "uint256"
            }
          ]
        }
      ],
      "stateMutability": "view"
    },
    {
      "type": "function",
      "name": "handleDagVoteReplace",
      "inputs": [
        {
          "name": "voterWithChangingDagVotes",
          "type": "address",
          "internalType": "address"
        },
        {
          "name": "recipient",
          "type": "address",
          "internalType": "address"
        },
        {
          "name": "replacedPositionInTree",
          "type": "address",
          "internalType": "address"
        },
        {
          "name": "sDistToNewRec",
          "type": "uint256",
          "internalType": "uint256"
        },
        {
          "name": "rDistForNewRec",
          "type": "uint256",
          "internalType": "uint256"
        }
      ],
      "outputs": [],
      "stateMutability": "nonpayable"
    },
    {
      "type": "function",
      "name": "joinTree",
      "inputs": [
        {
          "name": "voter",
          "type": "address",
          "internalType": "address"
        },
        {
          "name": "voterName",
          "type": "string",
          "internalType": "string"
        },
        {
          "name": "recipient",
          "type": "address",
          "internalType": "address"
        }
      ],
      "outputs": [],
      "stateMutability": "nonpayable"
    },
    {
      "type": "function",
      "name": "joinTreeAsRoot",
      "inputs": [
        {
          "name": "voter",
          "type": "address",
          "internalType": "address"
        },
        {
          "name": "voterName",
          "type": "string",
          "internalType": "string"
        }
      ],
      "outputs": [],
      "stateMutability": "nonpayable"
    },
    {
      "type": "function",
      "name": "leaveTree",
      "inputs": [
        {
          "name": "voter",
          "type": "address",
          "internalType": "address"
        }
      ],
      "outputs": [],
      "stateMutability": "nonpayable"
    },
    {
      "type": "function",
      "name": "lockTree",
      "inputs": [],
      "outputs": [],
      "stateMutability": "nonpayable"
    },
    {
      "type": "function",
      "name": "moveTreeVote",
      "inputs": [
        {
          "name": "voter",
          "type": "address",
          "internalType": "address"
        },
        {
          "name": "recipient",
          "type": "address",
          "internalType": "address"
        }
      ],
      "outputs": [],
      "stateMutability": "nonpayable"
    },
    {
      "type": "function",
      "name": "name",
      "inputs": [],
      "outputs": [
        {
          "name": "",
          "type": "string",
          "internalType": "string"
        }
      ],
      "stateMutability": "view"
    },
    {
      "type": "function",
      "name": "readDepth",
      "inputs": [
        {
          "name": "voter",
          "type": "address",
          "internalType": "address"
        }
      ],
      "outputs": [
        {
          "name": "",
          "type": "uint256",
          "internalType": "uint256"
        }
      ],
      "stateMutability": "view"
    },
    {
      "type": "function",
      "name": "readMaxRelRootDepth",
      "inputs": [],
      "outputs": [
        {
          "name": "",
          "type": "uint256",
          "internalType": "uint256"
        }
      ],
      "stateMutability": "view"
    },
    {
      "type": "function",
      "name": "readName",
      "inputs": [
        {
          "name": "voter",
          "type": "address",
          "internalType": "address"
        }
      ],
      "outputs": [
        {
          "name": "",
          "type": "string",
          "internalType": "string"
        }
      ],
      "stateMutability": "view"
    },
    {
      "type": "function",
      "name": "readRecDagVote",
      "inputs": [
        {
          "name": "recipient",
          "type": "address",
          "internalType": "address"
        },
        {
          "name": "",
          "type": "uint256",
          "internalType": "uint256"
        },
        {
          "name": "",
          "type": "uint256",
          "internalType": "uint256"
        },
        {
          "name": "votePos",
          "type": "uint256",
          "internalType": "uint256"
        }
      ],
      "outputs": [
        {
          "name": "",
          "type": "tuple",
          "internalType": "struct DagVote",
          "components": [
            {
              "name": "id",
              "type": "address",
              "internalType": "address"
            },
            {
              "name": "weight",
              "type": "uint256",
              "internalType": "uint256"
            },
            {
              "name": "dist",
              "type": "uint256",
              "internalType": "uint256"
            },
            {
              "name": "posInOther",
              "type": "uint256",
              "internalType": "uint256"
            }
          ]
        }
      ],
      "stateMutability": "view"
    },
    {
      "type": "function",
      "name": "readRecDagVoteCount",
      "inputs": [
        {
          "name": "recipient",
          "type": "address",
          "internalType": "address"
        },
        {
          "name": "rdist",
          "type": "uint256",
          "internalType": "uint256"
        },
        {
          "name": "depth",
          "type": "uint256",
          "internalType": "uint256"
        }
      ],
      "outputs": [
        {
          "name": "",
          "type": "uint256",
          "internalType": "uint256"
        }
      ],
      "stateMutability": "view"
    },
    {
      "type": "function",
      "name": "readRecDagVoteDepthDiff",
      "inputs": [
        {
          "name": "recipient",
          "type": "address",
          "internalType": "address"
        }
      ],
      "outputs": [
        {
          "name": "",
          "type": "uint256",
          "internalType": "uint256"
        }
      ],
      "stateMutability": "view"
    },
    {
      "type": "function",
      "name": "readRecDagVoteDistDiff",
      "inputs": [
        {
          "name": "recipient",
          "type": "address",
          "internalType": "address"
        }
      ],
      "outputs": [
        {
          "name": "",
          "type": "uint256",
          "internalType": "uint256"
        }
      ],
      "stateMutability": "view"
    },
    {
      "type": "function",
      "name": "readRecTreeVote",
      "inputs": [
        {
          "name": "recipient",
          "type": "address",
          "internalType": "address"
        },
        {
          "name": "votePos",
          "type": "uint256",
          "internalType": "uint256"
        }
      ],
      "outputs": [
        {
          "name": "",
          "type": "address",
          "internalType": "address"
        }
      ],
      "stateMutability": "view"
    },
    {
      "type": "function",
      "name": "readRecTreeVoteCount",
      "inputs": [
        {
          "name": "recipient",
          "type": "address",
          "internalType": "address"
        }
      ],
      "outputs": [
        {
          "name": "",
          "type": "uint256",
          "internalType": "uint256"
        }
      ],
      "stateMutability": "view"
    },
    {
      "type": "function",
      "name": "readReputation",
      "inputs": [
        {
          "name": "voter",
          "type": "address",
          "internalType": "address"
        }
      ],
      "outputs": [
        {
          "name": "",
          "type": "uint256",
          "internalType": "uint256"
        }
      ],
      "stateMutability": "view"
    },
    {
      "type": "function",
      "name": "readRoot",
      "inputs": [],
      "outputs": [
        {
          "name": "",
          "type": "address",
          "internalType": "address"
        }
      ],
      "stateMutability": "view"
    },
    {
      "type": "function",
      "name": "readSentDagVote",
      "inputs": [
        {
          "name": "voter",
          "type": "address",
          "internalType": "address"
        },
        {
          "name": "",
          "type": "uint256",
          "internalType": "uint256"
        },
        {
          "name": "",
          "type": "uint256",
          "internalType": "uint256"
        },
        {
          "name": "votePos",
          "type": "uint256",
          "internalType": "uint256"
        }
      ],
      "outputs": [
        {
          "name": "",
          "type": "tuple",
          "internalType": "struct DagVote",
          "components": [
            {
              "name": "id",
              "type": "address",
              "internalType": "address"
            },
            {
              "name": "weight",
              "type": "uint256",
              "internalType": "uint256"
            },
            {
              "name": "dist",
              "type": "uint256",
              "internalType": "uint256"
            },
            {
              "name": "posInOther",
              "type": "uint256",
              "internalType": "uint256"
            }
          ]
        }
      ],
      "stateMutability": "view"
    },
    {
      "type": "function",
      "name": "readSentDagVoteCount",
      "inputs": [
        {
          "name": "voter",
          "type": "address",
          "internalType": "address"
        },
        {
          "name": "",
          "type": "uint256",
          "internalType": "uint256"
        },
        {
          "name": "",
          "type": "uint256",
          "internalType": "uint256"
        }
      ],
      "outputs": [
        {
          "name": "",
          "type": "uint256",
          "internalType": "uint256"
        }
      ],
      "stateMutability": "view"
    },
    {
      "type": "function",
      "name": "readSentDagVoteDepthDiff",
      "inputs": [
        {
          "name": "voter",
          "type": "address",
          "internalType": "address"
        }
      ],
      "outputs": [
        {
          "name": "",
          "type": "uint256",
          "internalType": "uint256"
        }
      ],
      "stateMutability": "view"
    },
    {
      "type": "function",
      "name": "readSentDagVoteDistDiff",
      "inputs": [
        {
          "name": "voter",
          "type": "address",
          "internalType": "address"
        }
      ],
      "outputs": [
        {
          "name": "",
          "type": "uint256",
          "internalType": "uint256"
        }
      ],
      "stateMutability": "view"
    },
    {
      "type": "function",
      "name": "readSentDagVoteTotalWeight",
      "inputs": [
        {
          "name": "voter",
          "type": "address",
          "internalType": "address"
        }
      ],
      "outputs": [
        {
          "name": "",
          "type": "uint256",
          "internalType": "uint256"
        }
      ],
      "stateMutability": "view"
    },
    {
      "type": "function",
      "name": "readSentTreeVote",
      "inputs": [
        {
          "name": "voter",
          "type": "address",
          "internalType": "address"
        }
      ],
      "outputs": [
        {
          "name": "",
          "type": "address",
          "internalType": "address"
        }
      ],
      "stateMutability": "view"
    },
    {
      "type": "function",
      "name": "recalculateAllReputation",
      "inputs": [],
      "outputs": [],
      "stateMutability": "nonpayable"
    },
    {
      "type": "function",
      "name": "removeAllRecDagVotes",
      "inputs": [
        {
          "name": "recipient",
          "type": "address",
          "internalType": "address"
        }
      ],
      "outputs": [],
      "stateMutability": "nonpayable"
    },
    {
      "type": "function",
      "name": "removeAllSentDagVotes",
      "inputs": [
        {
          "name": "voter",
          "type": "address",
          "internalType": "address"
        }
      ],
      "outputs": [],
      "stateMutability": "nonpayable"
    },
    {
      "type": "function",
      "name": "removeDagVote",
      "inputs": [
        {
          "name": "voter",
          "type": "address",
          "internalType": "address"
        },
        {
          "name": "recipient",
          "type": "address",
          "internalType": "address"
        }
      ],
      "outputs": [],
      "stateMutability": "nonpayable"
    },
    {
      "type": "function",
      "name": "root",
      "inputs": [],
      "outputs": [
        {
          "name": "",
          "type": "address",
          "internalType": "address"
        }
      ],
      "stateMutability": "view"
    },
    {
      "type": "function",
      "name": "switchPositionWithParent",
      "inputs": [
        {
          "name": "voter",
          "type": "address",
          "internalType": "address"
        }
      ],
      "outputs": [],
      "stateMutability": "nonpayable"
    },
    {
      "type": "function",
      "name": "symbol",
      "inputs": [],
      "outputs": [
        {
          "name": "",
          "type": "string",
          "internalType": "string"
        }
      ],
      "stateMutability": "view"
    },
    {
      "type": "function",
      "name": "tokenName",
      "inputs": [],
      "outputs": [
        {
          "name": "",
          "type": "string",
          "internalType": "string"
        }
      ],
      "stateMutability": "view"
    },
    {
      "type": "function",
      "name": "tokenSymbol",
      "inputs": [],
      "outputs": [
        {
          "name": "",
          "type": "string",
          "internalType": "string"
        }
      ],
      "stateMutability": "view"
    },
    {
      "type": "function",
      "name": "unlocked",
      "inputs": [],
      "outputs": [
        {
          "name": "",
          "type": "bool",
          "internalType": "bool"
        }
      ],
      "stateMutability": "view"
    },
    {
      "type": "function",
      "name": "unsafeReplaceRecDagVoteWithLast",
      "inputs": [
        {
          "name": "recipient",
          "type": "address",
          "internalType": "address"
        },
        {
          "name": "rPos",
          "type": "uint256",
          "internalType": "uint256"
        }
      ],
      "outputs": [],
      "stateMutability": "nonpayable"
    },
    {
      "type": "event",
      "name": "AddDagVoteEvent",
      "inputs": [
        {
          "name": "voter",
          "type": "address",
          "indexed": false,
          "internalType": "address"
        },
        {
          "name": "recipient",
          "type": "address",
          "indexed": false,
          "internalType": "address"
        },
        {
          "name": "weight",
          "type": "uint256",
          "indexed": false,
          "internalType": "uint256"
        }
      ],
      "anonymous": false
    },
    {
      "type": "event",
      "name": "ChangeNameEvent",
      "inputs": [
        {
          "name": "voter",
          "type": "address",
          "indexed": false,
          "internalType": "address"
        },
        {
          "name": "newName",
          "type": "string",
          "indexed": false,
          "internalType": "string"
        }
      ],
      "anonymous": false
    },
    {
      "type": "event",
      "name": "JoinTreeEvent",
      "inputs": [
        {
          "name": "voter",
          "type": "address",
          "indexed": false,
          "internalType": "address"
        },
        {
          "name": "name",
          "type": "string",
          "indexed": false,
          "internalType": "string"
        },
        {
          "name": "recipient",
          "type": "address",
          "indexed": false,
          "internalType": "address"
        }
      ],
      "anonymous": false
    },
    {
      "type": "event",
      "name": "LeaveTreeEvent",
      "inputs": [
        {
          "name": "voter",
          "type": "address",
          "indexed": false,
          "internalType": "address"
        }
      ],
      "anonymous": false
    },
    {
      "type": "event",
      "name": "MoveTreeVoteEvent",
      "inputs": [
        {
          "name": "voter",
          "type": "address",
          "indexed": false,
          "internalType": "address"
        },
        {
          "name": "recipient",
          "type": "address",
          "indexed": false,
          "internalType": "address"
        }
      ],
      "anonymous": false
    },
    {
      "type": "event",
      "name": "RemoveDagVoteEvent",
      "inputs": [
        {
          "name": "voter",
          "type": "address",
          "indexed": false,
          "internalType": "address"
        },
        {
          "name": "recipient",
          "type": "address",
          "indexed": false,
          "internalType": "address"
        }
      ],
      "anonymous": false
    },
    {
      "type": "event",
      "name": "SwitchPositionWithParentEvent",
      "inputs": [
        {
          "name": "voter",
          "type": "address",
          "indexed": false,
          "internalType": "address"
        }
      ],
      "anonymous": false
    }
  ],
  "bytecode": {
    "object": "0x6000805460ff1916600190811790915560c06040526007608090815266105b9d1a1a5b1b60ca1b60a05262000035908262000126565b506040805180820190915260048152630829ca8960e31b602082015260029062000060908262000126565b503480156200006e57600080fd5b5060126003556006600455620001f2565b634e487b7160e01b600052604160045260246000fd5b600181811c90821680620000aa57607f821691505b602082108103620000cb57634e487b7160e01b600052602260045260246000fd5b50919050565b601f82111562000121576000816000526020600020601f850160051c81016020861015620000fc5750805b601f850160051c820191505b818110156200011d5782815560010162000108565b5050505b505050565b81516001600160401b038111156200014257620001426200007f565b6200015a8162000153845462000095565b84620000d1565b602080601f831160018114620001925760008415620001795750858301515b600019600386901b1c1916600185901b1785556200011d565b600085815260208120601f198616915b82811015620001c357888601518255948401946001909101908401620001a2565b5085821015620001e25787850151600019600388901b60f8161c191681555b5050505050600190811b01905550565b613af780620002026000396000f3fe608060405234801561001057600080fd5b506004361061035b5760003560e01c80637ea67015116101d3578063c5ce031811610104578063dd88aa95116100a2578063ebf0c7171161007c578063ebf0c717146107d0578063eeaebe87146107e3578063fa2465f1146107f6578063ff8f07de1461080957600080fd5b8063dd88aa951461078a578063e414c4571461079d578063e614a68d146107c857600080fd5b8063cf6ed9f9116100de578063cf6ed9f914610751578063d5a6436114610489578063d6f497cd14610764578063d7b547f01461077757600080fd5b8063c5ce031814610718578063c68d6f611461072b578063c88464bf1461073e57600080fd5b8063a9895c0411610171578063b062aaec1161014b578063b062aaec146106c1578063b9aae95d146106ea578063bad69ace146106fd578063c389ccc01461071057600080fd5b8063a9895c041461069b578063ab1e7a78146106ae578063ab70b4c61461048957600080fd5b806393dac9d1116101ad57806393dac9d11461063057806395d89b4114610660578063a16877d514610668578063a2e64c391461069257600080fd5b80637ea6701514610601578063806df9591461060a578063825a38551461061d57600080fd5b806345ca25ed116102ad5780636a5e26501161024b5780636c02a931116102255780636c02a931146105cb57806370a08231146105d357806377a63f9b146105e65780637b61c320146105f957600080fd5b80636a5e2650146105885780636ae6f05f146105a55780636be22cd2146105b857600080fd5b8063519bf72d11610287578063519bf72d1461048957806359bf02a5146105415780635c68f16d1461056d57806360c69aa51461057557600080fd5b806345ca25ed146104e257806349bb27e0146104f55780634cefac581461051e57600080fd5b8063199cd8c01161031a57806337ba0eb1116102f457806337ba0eb11461047657806339273f59146104895780633a47ce831461049d5780633aaf189b146104b057600080fd5b8063199cd8c01461044657806327c06fd51461045b578063313ce5671461046e57600080fd5b8062a1efe514610360578062f71abc1461039c5780630520b5a4146103c757806306fdde03146103ec57806310839bf71461040157806315d4936a14610426575b600080fd5b61038961036e3660046133be565b6001600160a01b03166000908152600c602052604090205490565b6040519081526020015b60405180910390f35b6103896103aa3660046133d9565b50506001600160a01b03166000908152600a602052604090205490565b6103da6103d536600461340c565b61081c565b6040516103939695949392919061346b565b6103f461096b565b60405161039391906134ab565b6005546001600160a01b03165b6040516001600160a01b039091168152602001610393565b6104396104343660046134fa565b6109fd565b6040516103939190613533565b610459610454366004613583565b610a63565b005b6103896104693660046133be565b610bee565b600354610389565b61045961048436600461340c565b610cfb565b6103896104973660046133be565b50600090565b61040e6104ab3660046135d6565b610dd2565b6104c36104be3660046133be565b610dff565b604080516001600160a01b039093168352602083019190915201610393565b6104596104f0366004613583565b610e9f565b6103896105033660046133be565b6001600160a01b031660009081526008602052604090205490565b61053161052c36600461340c565b610f8a565b6040516103939493929190613600565b61040e61054f3660046133be565b6001600160a01b039081166000908152600760205260409020541690565b610459610fb4565b6104596105833660046133be565b610fcc565b6000546105959060ff1681565b6040519015158152602001610393565b6104596105b33660046135d6565b61106a565b6104596105c63660046133be565b611268565b6103f46113fd565b6103896105e13660046133be565b61148b565b6104396105f43660046134fa565b6114a9565b6103f461150f565b61038960045481565b6103f46106183660046133be565b61151c565b61038961062b3660046133be565b6115c8565b61064361063e36600461340c565b61164b565b604080519315158452602084019290925290820152606001610393565b6103f4611704565b61067b61067636600461340c565b611713565b604080519215158352602083019190915201610393565b61038960035481565b6105316106a936600461340c565b61183c565b6106436106bc36600461340c565b611853565b6103896106cf3660046133be565b6001600160a01b03166000908152600f602052604090205490565b6103da6106f836600461340c565b611907565b61045961070b36600461362e565b611a68565b610459611db7565b61045961072636600461340c565b611de1565b61040e6107393660046135d6565b611ffa565b61045961074c3660046133be565b6120ba565b61064361075f36600461340c565b6120ff565b6104596107723660046133be565b6121f2565b6104596107853660046133be565b612232565b61067b61079836600461340c565b6123dd565b6103896107ab3660046133d9565b50506001600160a01b03166000908152600d602052604090205490565b600454610389565b60055461040e906001600160a01b031681565b6104596107f1366004613683565b612409565b6104596108043660046136e8565b612630565b6104596108173660046133be565b612721565b600080600080600061082c613371565b610836888861164b565b9197509450925085158061084957508284145b15610895576000806000806000604051806080016040528060006001600160a01b0316815260200160008152602001600081526020016000815250955095509550955095509550610961565b60005b6001600160a01b0389166000908152600a6020526040902054811015610931576001600160a01b03808a166000908152600b6020908152604080832085845282529182902082516080810184528154851680825260018301549382019390935260028201549381019390935260030154606083015290918a16900361092857600197508796509092509050610961565b50600101610898565b50506040805160808101825260008082526020820181905291810182905260608101829052600196509094508491505b9295509295509295565b60606001805461097a90613724565b80601f01602080910402602001604051908101604052809291908181526020018280546109a690613724565b80156109f35780601f106109c8576101008083540402835291602001916109f3565b820191906000526020600020905b8154815290600101906020018083116109d657829003601f168201915b5050505050905090565b610a05613371565b506001600160a01b038085166000908152600e60209081526040808320858452825291829020825160808101845281549094168452600181015491840191909152600281015491830191909152600301546060820152949350505050565b600054839060ff16610aa057336001600160a01b03821614610aa05760405162461bcd60e51b8152600401610a979061375e565b60405180910390fd5b6001600160a01b038481166000908152600760205260409020541615610af35760405162461bcd60e51b81526020600482015260086024820152672090352a20a9101960c11b6044820152606401610a97565b6005546001600160a01b031615610b375760405162461bcd60e51b815260206004820152600860248201526741206a544152203360c01b6044820152606401610a97565b6001600160a01b0384166000908152600660205260409020610b5a8385836137e6565b505050506001600160a01b031660008181526007602090815260408220805460016001600160a01b03199182168117909255600580548216861790557fb878081ec3704a5de178258b7387a20f00443d893bc5640352b547081b2d5c16805490911690941790935590829052600890527fad67d757c34507f157cacfa2e3153e9f260a2244f30428821be7be64587ac55f55565b6000806001600160a01b038316610c085750600092915050565b60005b6001600160a01b0384166000908152600d6020526040902054811015610cbf576001600160a01b038085166000908152600e60209081526040808320858452825280832081516080810183528154909516808652600182015486850190815260028301548785015260039092015460608701528452600c9092529091205490518251610c9690610bee565b610ca091906138bd565b610caa91906138d4565b610cb490846138f6565b925050600101610c0b565b50600354610cce90600a6139ed565b610cd890826138f6565b6001600160a01b039093166000908152600f602052604090208390555090919050565b600054829060ff16610d2f57336001600160a01b03821614610d2f5760405162461bcd60e51b8152600401610a979061375e565b6000806000610d3e868661183c565b5092509250925081610d7c5760405162461bcd60e51b8152602060048201526007602482015266209039222b101960c91b6044820152606401610a97565b610d8686826127ce565b604080516001600160a01b038089168252871660208201527f279965e71edc78fe4a286c30591ffcb9f45817389fb57d4f2d5d2dbbd20c5b1991015b60405180910390a1505050505050565b6001600160a01b038083166000908152600960209081526040808320858452909152902054165b92915050565b6001600160a01b038181166000908152600760205260408120549091829116610e565760405162461bcd60e51b815260206004820152600960248201526841692c20665252203160b81b6044820152606401610a97565b508190506000805b600454821015610e9957506001600160a01b0380831660009081526007602052604090205416600019810115610e9957915060010181610e5e565b50915091565b600054839060ff16610ed357336001600160a01b03821614610ed35760405162461bcd60e51b8152600401610a979061375e565b6001600160a01b0384811660009081526007602052604090205416610f255760405162461bcd60e51b815260206004820152600860248201526741206a544152203560c01b6044820152606401610a97565b6001600160a01b0384166000908152600660205260409020610f488385836137e6565b507f0a68bea90481253adfebc561eb239c93e477569441a54caca19db9b0013393c6848484604051610f7c93929190613a22565b60405180910390a150505050565b6000806000610f97613371565b610fa18686611907565b949b939a50985092965090945050505050565b60005460ff1615610fca576000805460ff191690555b565b6001600160a01b0381811660009081526007602052604090205416610fee5750565b6001600160a01b0381166000908152601060205260408120805460ff191690555b6001600160a01b038216600090815260086020526040902054811015611066576001600160a01b03808316600090815260096020908152604080832085845290915290205461105e9116610fcc565b60010161100f565b5050565b60005460ff166110a85760405162461bcd60e51b815260206004820152600960248201526841207553524456203160b81b6044820152606401610a97565b6001600160a01b0382166000908152600d60205260409020546110cd90600190613a47565b81146111d6576001600160a01b0382166000908152600e60209081526040808320600d909252822054829061110490600190613a47565b81526020808201929092526040908101600090812082516080808201855282546001600160a01b039081168352600180850154848901908152600280870154868a0190815260039788015460608089019182528b519788018c528851871688529351878d019081529151878c0190815281519488019485528f87168b52600e8d528b8b208f8c528d528b8b20975188546001600160a01b0319169088161788559151948701949094555190850155519285019290925591519091168352600b8552838320905183529093522001829055505b6001600160a01b0382166000908152600e60209081526040808320600d90925282205490919061120890600190613a47565b81526020808201929092526040908101600090812080546001600160a01b031916815560018101829055600281018290556003018190556001600160a01b0385168152600d9092528120805490919061126090613a5a565b909155505050565b600054819060ff1661129c57336001600160a01b0382161461129c5760405162461bcd60e51b8152600401610a979061375e565b6001600160a01b0380831660009081526007602052604090205416806112ed5760405162461bcd60e51b815260206004820152600660248201526541206c54203360d01b6044820152606401610a97565b6000196001600160a01b038216016113305760405162461bcd60e51b815260206004820152600660248201526510481b15080d60d21b6044820152606401610a97565b6001600160a01b038082166000908152600760205260408120549091169061135785610bee565b9050600061136484610bee565b905080821161139e5760405162461bcd60e51b815260206004820152600660248201526541206c54203560d01b6044820152606401610a97565b6113ac848588600080611a68565b6113bb86848660026000611a68565b6113c48661283f565b6040516001600160a01b03871681527f04be1b56fbf390324cfb0745416a4cc51f51253b68c570ec1e696c1044b2ddcf90602001610dc2565b6001805461140a90613724565b80601f016020809104026020016040519081016040528092919081815260200182805461143690613724565b80156114835780601f1061145857610100808354040283529160200191611483565b820191906000526020600020905b81548152906001019060200180831161146657829003601f168201915b505050505081565b6001600160a01b0381166000908152600f6020526040812054610df9565b6114b1613371565b506001600160a01b038085166000908152600b60209081526040808320858452825291829020825160808101845281549094168452600181015491840191909152600281015491830191909152600301546060820152949350505050565b6002805461140a90613724565b6001600160a01b038116600090815260066020526040902080546060919061154390613724565b80601f016020809104026020016040519081016040528092919081815260200182805461156f90613724565b80156115bc5780601f10611591576101008083540402835291602001916115bc565b820191906000526020600020905b81548152906001019060200180831161159f57829003601f168201915b50505050509050919050565b6001600160a01b038181166000908152600760205260408120549091166115f157506000919050565b6001600160a01b03828116600090815260076020526040902054166000190161161c57506000919050565b6001600160a01b0380831660009081526007602052604090205461164091166115c8565b610df99060016138f6565b6001600160a01b0382811660009081526007602052604081205490918291829116158061169057506001600160a01b0384811660009081526007602052604090205416155b156116a3575060009150819050806116fd565b60006116af86866123dd565b9094509050836116ca576000806000935093509350506116fd565b60006116d68783611ffa565b905060006116e48288611713565b91508690506116f384836138f6565b9096509450925050505b9250925092565b60606002805461097a90613724565b600080826001600160a01b0316846001600160a01b03160361173b5750600190506000611835565b6001600160a01b0384811660009081526007602052604090205416158061177a57506001600160a01b0383811660009081526007602052604090205416155b1561178a57506000905080611835565b6001600160a01b0384811660009081526007602052604090205416600114806117cd57506001600160a01b03838116600090815260076020526040902054166001145b156117dd57506000905080611835565b6001600160a01b0380851660009081526007602052604080822054868416835291205461180e929182169116611713565b9092509050811561182e57600161182582826138f6565b91509150611835565b5060009050805b9250929050565b6000806000611849613371565b610fa1868661081c565b6001600160a01b0382811660009081526007602052604081205490918291829116158061189857506001600160a01b0384811660009081526007602052604090205416155b156118ab575060009150819050806116fd565b6000806000806000806118be8b8b6120ff565b919750945090506118cf8a8c6120ff565b919650935091508580156118e05750845b98506118ec81856138f6565b97506118f882846138f6565b96505050505050509250925092565b6000806000806000611917613371565b60008060006119268b8b61164b565b9194509250905082158061193957508082145b15611988576000806000806000604051806080016040528060006001600160a01b0316815260200160008152602001600081526020016000815250985098509850985098509850505050610961565b60005b6001600160a01b038b166000908152600d6020526040902054811015611a2b576001600160a01b03808c166000908152600e6020908152604080832085845282529182902082516080810184528154851680825260018301549382019390935260028201549381019390935260030154606083015290918e169003611a225760019a508a9950929750909550935091506109619050565b5060010161198b565b50604080516080810182526000808252602082018190529181018290526060810182905260019d919c50929a509098508a97509095509350505050565b60005460ff16611ab05760405162461bcd60e51b815260206004820152601360248201527220b73a241d1037b7363c903ab73637b1b5b2b960691b6044820152606401610a97565b6305f5e0ff6001600160a01b038416611afa576001600160a01b038116600090815260076020526040902080546001600160a01b0319166001179055611af68186612a20565b8093505b6001600160a01b0386166000908152600a6020526040902054805b8015611c42576001600160a01b0388166000908152600b6020526040812081611b3f600185613a47565b815260208082019290925260409081016000908120825160808101845281546001600160a01b03168082526001830154958201959095526002820154938101939093526003015460608301529092509081908190611b9e908b9061164b565b92509250925082611bc657611bbd8c611bb8600188613a47565b6127ce565b50505050611c32565b6001600160a01b038c166000908152600b602052604081208391611beb600189613a47565b81526020808201929092526040908101600090812060029081019490945587516001600160a01b03168152600e835281812060608901518252909252902001819055505050505b611c3b81613a5a565b9050611b15565b50506001600160a01b0386166000908152600d6020526040902054805b8015611d8b576001600160a01b0388166000908152600e6020526040812081611c89600185613a47565b815260208082019290925260409081016000908120825160808101845281546001600160a01b03168082526001830154958201959095526002820154938101939093526003015460608301529092509081908190611ce7908b61164b565b92509250925082611d0f57611d068c611d01600188613a47565b612a7e565b50505050611d7b565b6001600160a01b038c166000908152600e602052604081208291611d34600189613a47565b81526020808201929092526040908101600090812060029081019490945587516001600160a01b03168152600b835281812060608901518252909252902001829055505050505b611d8481613a5a565b9050611c5f565b50816001600160a01b0316856001600160a01b031603611dae57611dae82612aef565b50505050505050565b600554611dcc906001600160a01b0316610fcc565b600554610fca906001600160a01b0316612232565b600054829060ff16611e1557336001600160a01b03821614611e155760405162461bcd60e51b8152600401610a979061375e565b6001600160a01b0383811660009081526007602052604090205416611e665760405162461bcd60e51b8152602060048201526007602482015266209036aa2b101960c91b6044820152606401610a97565b6001600160a01b0382811660009081526007602052604090205416611eb75760405162461bcd60e51b815260206004820152600760248201526641206d5456203360c81b6044820152606401610a97565b6001600160a01b038216600090815260086020526040902054600211611f095760405162461bcd60e51b815260206004820152600760248201526610481b5515880d60ca1b6044820152606401610a97565b6000806000611f188686611853565b6001600160a01b03808a16600090815260076020526040902054939650919450925016611f4487612c5e565b82158015611f4f5750835b15611f8457806001600160a01b0316611f688784611ffa565b6001600160a01b031603611f8457611f81600183613a47565b91505b508215611f9e57611f99868660008585611a68565b611fb0565b611fa7866121f2565b611fb0866120ba565b611fba8686612a20565b604080516001600160a01b038089168252871660208201527fc53fde28a3da784bd628fee9896334592fb5ba4b6ebc5f7259df043b0d3012479101610dc2565b60008160000361200b575081610df9565b6001600160a01b03838116600090815260076020526040902054166000190161203657506001610df9565b6001600160a01b03838116600090815260076020526040902054166120895760405162461bcd60e51b815260206004820152600960248201526841692c20664e50203160b81b6044820152606401610a97565b6001600160a01b038084166000908152600760205260409020546120b39116610739600185613a47565b9392505050565b6001600160a01b0381166000908152600d6020526040902054805b80156120fa576120ea83611d01600184613a47565b6120f381613a5a565b90506120d5565b505050565b6001600160a01b0382811660009081526007602052604081205490918291829116158061214457506001600160a01b0384811660009081526007602052604090205416155b15612157575060009150819050806116fd565b600061216286610dff565b935090508460005b8481116121e057826001600160a01b0316826001600160a01b031603612198576001955092506116fd915050565b6001600160a01b0391821660009081526007602052604090205490911690816121ce5760008060009550955095505050506116fd565b806121d881613a71565b91505061216a565b50600097889750879650945050505050565b6001600160a01b0381166000908152600a6020526040902054805b80156120fa5761222283611bb8600184613a47565b61222b81613a5a565b905061220d565b6001600160a01b03818116600090815260076020526040902054166122545750565b6001600160a01b03811660009081526010602052604090205460ff16156122785750565b60005b6001600160a01b0382166000908152600860205260409020548110156122d2576001600160a01b0380831660009081526009602090815260408083208584529091529020546122ca9116612232565b60010161227b565b506000805b6001600160a01b0383166000908152600d602052604090205481101561238e576001600160a01b038084166000908152600e602090815260408083208584528252808320815160808101835281548616808252600183015482860190815260028401548386015260039093015460608301528552600c845282852054915181519096168552600f909352922054909261236f916138bd565b61237991906138d4565b61238390846138f6565b9250506001016122d7565b5060035461239d90600a6139ed565b6123a790826138f6565b6001600160a01b039092166000908152600f60209081526040808320949094556010905291909120805460ff1916600117905550565b6000806000806123ed86866120ff565b919550925090506123fe8183613a47565b925050509250929050565b600054849060ff1661243d57336001600160a01b0382161461243d5760405162461bcd60e51b8152600401610a979061375e565b6001600160a01b03858116600090815260076020526040902054161561248e5760405162461bcd60e51b81526020600482015260066024820152652090362a101960d11b6044820152606401610a97565b6001600160a01b03828116600090815260076020526040902054166124de5760405162461bcd60e51b815260206004820152600660248201526541206c54203360d01b6044820152606401610a97565b6001600160a01b03821660009081526008602052604090205460021161252f5760405162461bcd60e51b815260206004820152600660248201526510481b15080d60d21b6044820152606401610a97565b6001600160a01b03858116600090815260076020908152604080832080546001600160a01b0319169487169490941790935560069052206125718486836137e6565b506001600160a01b03828116600081815260096020908152604080832060088084528285208054865291845291842080546001600160a01b031916968c16969096179095559290915252546125c79060016138f6565b6001600160a01b0383166000908152600860205260409020556125ec85836001612630565b7fca7e50aa547fb9bcc29db85b16153299ff137fdb6e0818d13795021889d3ddaa858585856040516126219493929190613a8a565b60405180910390a15050505050565b600054839060ff1661266457336001600160a01b038216146126645760405162461bcd60e51b8152600401610a979061375e565b600080600080612674888861081c565b50509350935093509350838015612689575082155b6126bf5760405162461bcd60e51b8152602060048201526007602482015266209030a22b101960c91b6044820152606401610a97565b6126cc888884848a612d8b565b604080516001600160a01b03808b168252891660208201529081018790527f7ac00444e3428c19fc2364070529d9672439c0dcc082b6d698337002f325001d9060600160405180910390a15050505050505050565b600054819060ff1661275557336001600160a01b038216146127555760405162461bcd60e51b8152600401610a979061375e565b61275e826121f2565b612767826120ba565b61277082612c5e565b6001600160a01b03821660008181526007602090815260409182902080546001600160a01b031916905590519182527fc6e5f8deeecea7a16e6150f79d6da5196e1861c255eb682de9e28576f0915f45910160405180910390a15050565b6001600160a01b038083166000908152600b6020908152604080832085845282529182902082516080810184528154909416845260018101549184019190915260028101549183019190915260030154606082015261282d8383612f1f565b6120fa8160000151826060015161106a565b6001600160a01b0380821660009081526007602052604090205416806128955760405162461bcd60e51b815260206004820152600b60248201526a41692c207354565750203160a81b6044820152606401610a97565b6000196001600160a01b038216016128dd5760405162461bcd60e51b815260206004820152600b60248201526a20b4961039aa2b2ba8101960a91b6044820152606401610a97565b6001600160a01b038082166000908152600760205260409020541661290183612aef565b816001600160a01b031661291d6005546001600160a01b031690565b6001600160a01b03160361294b57600580546001600160a01b0319166001600160a01b038516179055612954565b61295482612aef565b6001600160a01b038281166000908152600960208181526040808420848052825280842054888616855292825280842084805290915280832054600184529220549083169291821691166129a886856131ed565b6129b285876131ed565b6001600160a01b038316156129d4576129ca83612aef565b6129d483876131ed565b6001600160a01b038216156129f6576129ec82612aef565b6129f682866131ed565b6001600160a01b03811615612a1857612a0e81612aef565b612a1881866131ed565b505050505050565b6001600160a01b038116600090815260086020526040902054600211612a745760405162461bcd60e51b815260206004820152600960248201526820b4961030a22b101960b91b6044820152606401610a97565b61106682826131ed565b6001600160a01b038083166000908152600e60209081526040808320858452825291829020825160808101845281549094168452600181015491840191909152600281015491830191909152600301546060820152612add838361106a565b6120fa81600001518260600151612f1f565b6001600160a01b0380821660008181526007602090815260408083205485168084526009835281842084805290925282205490939192911614612b33576001612b36565b60005b6001600160a01b0383166000908152600960209081526040808320600890925282205460ff93909316935091612b6e90600190613a47565b815260208082019290925260409081016000908120546001600160a01b038681168084526009865284842087855280875285852080546001600160a01b03191693909416929092179092559082526008909352908120549091908290612bd690600190613a47565b81526020808201929092526040908101600090812080546001600160a01b0319166001600160a01b0395861617905592851683526008909152902054612c1e90600190613a47565b6001600160a01b039283166000908152600860209081526040808320939093559490931683526007909352502080546001600160a01b0319166001179055565b60005460ff16612c995760405162461bcd60e51b8152602060048201526006602482015265209034262b2160d11b6044820152606401610a97565b6001600160a01b038181166000908152600760209081526040808320546009835281842084805290925280832054600184529220549083169291821691168115612d2b57612cec82848660026000611a68565b612cf682856132cf565b6001600160a01b03811615612d1857612d0e81612aef565b612d188183612a20565b612d2182612aef565b612d2b82846131ed565b612d3484612aef565b6001600160a01b03808516600081815260076020526040902080546001600160a01b031916600117905560055490911603612d8557600580546001600160a01b0319166001600160a01b0384161790555b50505050565b604080516080810182526001600160a01b0386811680835260208084018681528486018981526000938452600d835286842054606087019081528c8616808652600b8552888620600a8087528a882080548952918752998720985189546001600160a01b0319169816979097178855925160018801559051600287015551600390950194909455928152929091528054909190612e2790613a71565b909155506001600160a01b0385166000908152600c602052604081208054839290612e539084906138f6565b9091555050604080516080810182526001600160a01b03871680825260208083018590528284018690526000918252600a905291909120546060820190612e9c90600190613a47565b90526001600160a01b038581166000818152600e60209081526040808320600d80845282852080548652918452828520885181546001600160a01b03191698169790971787558784015160018801559187015160028701556060909601516003909501949094559181529190528154612f1490613a71565b909155505050505050565b6001600160a01b038083166000818152600b60209081526040808320868452825280832081516080810183528154909616865260018101548684018190526002820154878401526003909101546060870152938352600c90915281208054909190612f8b908490613a47565b90915550506001600160a01b0383166000908152600a6020526040902054612fb590600190613a47565b821461315a576001600160a01b0383166000908152600b60209081526040808320600a9092528220548290612fec90600190613a47565b81526020019081526020016000206040518060800160405290816000820160009054906101000a90046001600160a01b03166001600160a01b03166001600160a01b0316815260200160018201548152602001600282015481526020016003820154815250509050604051806080016040528082600001516001600160a01b0316815260200182602001518152602001826040015181526020018260600151815250600b6000866001600160a01b03166001600160a01b03168152602001908152602001600020600085815260200190815260200160002060008201518160000160006101000a8154816001600160a01b0302191690836001600160a01b0316021790555060208201518160010155604082015181600201556060820151816003015590505082600e600083600001516001600160a01b03166001600160a01b0316815260200190815260200160002060008360600151815260200190815260200160002060030181905550505b6001600160a01b0383166000908152600b60209081526040808320600a90925282205490919061318c90600190613a47565b81526020808201929092526040908101600090812080546001600160a01b031916815560018101829055600281018290556003018190556001600160a01b0386168152600a909252812080549091906131e490613a5a565b90915550505050565b6001600160a01b03828116600090815260076020526040902054166001146132455760405162461bcd60e51b815260206004820152600b60248201526a41692c206154565743203160a81b6044820152606401610a97565b6001600160a01b03808316600081815260076020908152604080832080549587166001600160a01b031996871681179091558084526009835281842060088085528386208054875291855292852080549097169095179095559390915291909152546132b29060016138f6565b6001600160a01b0390911660009081526008602052604090205550565b60005460ff166133095760405162461bcd60e51b81526020600482015260056024820152642090382aa160d91b6044820152606401610a97565b6000613316836000610dd2565b90506000613325846001610dd2565b90506001600160a01b03821615612d855761334582848660026000611a68565b61334f82856132cf565b6001600160a01b03811615612d855761336781612aef565b612d858183612a20565b604051806080016040528060006001600160a01b031681526020016000815260200160008152602001600081525090565b80356001600160a01b03811681146133b957600080fd5b919050565b6000602082840312156133d057600080fd5b6120b3826133a2565b6000806000606084860312156133ee57600080fd5b6133f7846133a2565b95602085013595506040909401359392505050565b6000806040838503121561341f57600080fd5b613428836133a2565b9150613436602084016133a2565b90509250929050565b80516001600160a01b031682526020808201519083015260408082015190830152606090810151910152565b600061012082019050871515825286151560208301528560408301528460608301528360808301526134a060a083018461343f565b979650505050505050565b60006020808352835180602085015260005b818110156134d9578581018301518582016040015282016134bd565b506000604082860101526040601f19601f8301168501019250505092915050565b6000806000806080858703121561351057600080fd5b613519856133a2565b966020860135965060408601359560600135945092505050565b60808101610df9828461343f565b60008083601f84011261355357600080fd5b50813567ffffffffffffffff81111561356b57600080fd5b60208301915083602082850101111561183557600080fd5b60008060006040848603121561359857600080fd5b6135a1846133a2565b9250602084013567ffffffffffffffff8111156135bd57600080fd5b6135c986828701613541565b9497909650939450505050565b600080604083850312156135e957600080fd5b6135f2836133a2565b946020939093013593505050565b841515815283151560208201526040810183905260e08101613625606083018461343f565b95945050505050565b600080600080600060a0868803121561364657600080fd5b61364f866133a2565b945061365d602087016133a2565b935061366b604087016133a2565b94979396509394606081013594506080013592915050565b6000806000806060858703121561369957600080fd5b6136a2856133a2565b9350602085013567ffffffffffffffff8111156136be57600080fd5b6136ca87828801613541565b90945092506136dd9050604086016133a2565b905092959194509250565b6000806000606084860312156136fd57600080fd5b613706846133a2565b9250613714602085016133a2565b9150604084013590509250925092565b600181811c9082168061373857607f821691505b60208210810361375857634e487b7160e01b600052602260045260246000fd5b50919050565b60208082526010908201526f20b73a241d1037b7363c903b37ba32b960811b604082015260600190565b634e487b7160e01b600052604160045260246000fd5b601f8211156120fa576000816000526020600020601f850160051c810160208610156137c75750805b601f850160051c820191505b81811015612a18578281556001016137d3565b67ffffffffffffffff8311156137fe576137fe613788565b6138128361380c8354613724565b8361379e565b6000601f841160018114613846576000851561382e5750838201355b600019600387901b1c1916600186901b1783556138a0565b600083815260209020601f19861690835b828110156138775786850135825560209485019460019092019101613857565b50868210156138945760001960f88860031b161c19848701351681555b505060018560011b0183555b5050505050565b634e487b7160e01b600052601160045260246000fd5b8082028115828204841417610df957610df96138a7565b6000826138f157634e487b7160e01b600052601260045260246000fd5b500490565b80820180821115610df957610df96138a7565b600181815b8085111561394457816000190482111561392a5761392a6138a7565b8085161561393757918102915b93841c939080029061390e565b509250929050565b60008261395b57506001610df9565b8161396857506000610df9565b816001811461397e5760028114613988576139a4565b6001915050610df9565b60ff841115613999576139996138a7565b50506001821b610df9565b5060208310610133831016604e8410600b84101617156139c7575081810a610df9565b6139d18383613909565b80600019048211156139e5576139e56138a7565b029392505050565b60006120b3838361394c565b81835281816020850137506000828201602090810191909152601f909101601f19169091010190565b6001600160a01b038416815260406020820181905260009061362590830184866139f9565b81810381811115610df957610df96138a7565b600081613a6957613a696138a7565b506000190190565b600060018201613a8357613a836138a7565b5060010190565b600060018060a01b03808716835260606020840152613aad6060840186886139f9565b91508084166040840152509594505050505056fea264697066735822122035115a9d87397f579fb6ddad42e5e0c0208b7897d3639281caa12dc1367ab86564736f6c63430008180033",
    "linkReferences": {}
  },
  "methodIdentifiers": {
    "MAX_REL_ROOT_DEPTH()": "7ea67015",
    "addDagVote(address,address,uint256)": "fa2465f1",
    "balanceOf(address)": "70a08231",
    "calculateReputation(address)": "27c06fd5",
    "calculateReputationRec(address)": "d7b547f0",
    "changeName(address,string)": "45ca25ed",
    "clearReputationCalculatedRec(address)": "60c69aa5",
    "decimalPoint()": "a2e64c39",
    "decimals()": "313ce567",
    "findDistAtSameDepth(address,address)": "a16877d5",
    "findDistances(address,address)": "ab1e7a78",
    "findDistancesRecNotLower(address,address)": "93dac9d1",
    "findNthParent(address,uint256)": "c68d6f61",
    "findRecDagVote(address,address)": "b9aae95d",
    "findRecDagVoteNew(address,address)": "4cefac58",
    "findRelDepth(address,address)": "dd88aa95",
    "findRelDepthInner(address,address)": "cf6ed9f9",
    "findRelRoot(address)": "3aaf189b",
    "findSentDagVote(address,address)": "0520b5a4",
    "findSentDagVoteNew(address,address)": "a9895c04",
    "handleDagVoteReplace(address,address,address,uint256,uint256)": "bad69ace",
    "joinTree(address,string,address)": "eeaebe87",
    "joinTreeAsRoot(address,string)": "199cd8c0",
    "leaveTree(address)": "ff8f07de",
    "lockTree()": "5c68f16d",
    "moveTreeVote(address,address)": "c5ce0318",
    "name()": "06fdde03",
    "readDepth(address)": "825a3855",
    "readMaxRelRootDepth()": "e614a68d",
    "readName(address)": "806df959",
    "readRecDagVote(address,uint256,uint256,uint256)": "15d4936a",
    "readRecDagVoteCount(address,uint256,uint256)": "e414c457",
    "readRecDagVoteDepthDiff(address)": "d5a64361",
    "readRecDagVoteDistDiff(address)": "519bf72d",
    "readRecTreeVote(address,uint256)": "3a47ce83",
    "readRecTreeVoteCount(address)": "49bb27e0",
    "readReputation(address)": "b062aaec",
    "readRoot()": "10839bf7",
    "readSentDagVote(address,uint256,uint256,uint256)": "77a63f9b",
    "readSentDagVoteCount(address,uint256,uint256)": "00f71abc",
    "readSentDagVoteDepthDiff(address)": "ab70b4c6",
    "readSentDagVoteDistDiff(address)": "39273f59",
    "readSentDagVoteTotalWeight(address)": "00a1efe5",
    "readSentTreeVote(address)": "59bf02a5",
    "recalculateAllReputation()": "c389ccc0",
    "removeAllRecDagVotes(address)": "c88464bf",
    "removeAllSentDagVotes(address)": "d6f497cd",
    "removeDagVote(address,address)": "37ba0eb1",
    "root()": "ebf0c717",
    "switchPositionWithParent(address)": "6be22cd2",
    "symbol()": "95d89b41",
    "tokenName()": "6c02a931",
    "tokenSymbol()": "7b61c320",
    "unlocked()": "6a5e2650",
    "unsafeReplaceRecDagVoteWithLast(address,uint256)": "6ae6f05f"
  },
  "id": 18
}