{"abi":[{"type":"constructor","inputs":[],"stateMutability":"nonpayable"},{"type":"function","name":"MAX_REL_ROOT_DEPTH","inputs":[],"outputs":[{"name":"","type":"uint256","internalType":"uint256"}],"stateMutability":"view"},{"type":"function","name":"addDagVote","inputs":[{"name":"voter","type":"address","internalType":"address"},{"name":"recipient","type":"address","internalType":"address"},{"name":"weight","type":"uint256","internalType":"uint256"}],"outputs":[],"stateMutability":"nonpayable"},{"type":"function","name":"balanceOf","inputs":[{"name":"voter","type":"address","internalType":"address"}],"outputs":[{"name":"","type":"uint256","internalType":"uint256"}],"stateMutability":"view"},{"type":"function","name":"calculateReputation","inputs":[{"name":"voter","type":"address","internalType":"address"}],"outputs":[{"name":"","type":"uint256","internalType":"uint256"}],"stateMutability":"nonpayable"},{"type":"function","name":"calculateReputationIterative","inputs":[{"name":"voter","type":"address","internalType":"address"}],"outputs":[],"stateMutability":"nonpayable"},{"type":"function","name":"calculatedReputationForEpoch","inputs":[{"name":"","type":"address","internalType":"address"}],"outputs":[{"name":"","type":"uint256","internalType":"uint256"}],"stateMutability":"view"},{"type":"function","name":"changeName","inputs":[{"name":"voter","type":"address","internalType":"address"},{"name":"voterName","type":"string","internalType":"string"}],"outputs":[],"stateMutability":"nonpayable"},{"type":"function","name":"decimalPoint","inputs":[],"outputs":[{"name":"","type":"uint256","internalType":"uint256"}],"stateMutability":"view"},{"type":"function","name":"decimals","inputs":[],"outputs":[{"name":"","type":"uint256","internalType":"uint256"}],"stateMutability":"view"},{"type":"function","name":"findDistAtSameDepth","inputs":[{"name":"add1","type":"address","internalType":"address"},{"name":"add2","type":"address","internalType":"address"}],"outputs":[{"name":"isSameDepth","type":"bool","internalType":"bool"},{"name":"distance","type":"uint256","internalType":"uint256"}],"stateMutability":"view"},{"type":"function","name":"findDistances","inputs":[{"name":"voter","type":"address","internalType":"address"},{"name":"recipient","type":"address","internalType":"address"}],"outputs":[{"name":"isLocalEitherWay","type":"bool","internalType":"bool"},{"name":"sDist","type":"uint256","internalType":"uint256"},{"name":"rDist","type":"uint256","internalType":"uint256"}],"stateMutability":"view"},{"type":"function","name":"findDistancesRecNotLower","inputs":[{"name":"voter","type":"address","internalType":"address"},{"name":"recipient","type":"address","internalType":"address"}],"outputs":[{"name":"isLocal","type":"bool","internalType":"bool"},{"name":"sDist","type":"uint256","internalType":"uint256"},{"name":"rDist","type":"uint256","internalType":"uint256"}],"stateMutability":"view"},{"type":"function","name":"findNthParent","inputs":[{"name":"voter","type":"address","internalType":"address"},{"name":"height","type":"uint256","internalType":"uint256"}],"outputs":[{"name":"parent","type":"address","internalType":"address"}],"stateMutability":"view"},{"type":"function","name":"findRecDagVote","inputs":[{"name":"voter","type":"address","internalType":"address"},{"name":"recipient","type":"address","internalType":"address"}],"outputs":[{"name":"votable","type":"bool","internalType":"bool"},{"name":"voted","type":"bool","internalType":"bool"},{"name":"sdist","type":"uint256","internalType":"uint256"},{"name":"depth","type":"uint256","internalType":"uint256"},{"name":"votePos","type":"uint256","internalType":"uint256"},{"name":"dagVote","type":"tuple","internalType":"struct DagVote","components":[{"name":"id","type":"address","internalType":"address"},{"name":"weight","type":"uint256","internalType":"uint256"},{"name":"dist","type":"uint256","internalType":"uint256"},{"name":"posInOther","type":"uint256","internalType":"uint256"}]}],"stateMutability":"view"},{"type":"function","name":"findRecDagVoteNew","inputs":[{"name":"voter","type":"address","internalType":"address"},{"name":"recipient","type":"address","internalType":"address"}],"outputs":[{"name":"votable","type":"bool","internalType":"bool"},{"name":"voted","type":"bool","internalType":"bool"},{"name":"votePos","type":"uint256","internalType":"uint256"},{"name":"dagVote","type":"tuple","internalType":"struct DagVote","components":[{"name":"id","type":"address","internalType":"address"},{"name":"weight","type":"uint256","internalType":"uint256"},{"name":"dist","type":"uint256","internalType":"uint256"},{"name":"posInOther","type":"uint256","internalType":"uint256"}]}],"stateMutability":"view"},{"type":"function","name":"findRelDepth","inputs":[{"name":"voter","type":"address","internalType":"address"},{"name":"recipient","type":"address","internalType":"address"}],"outputs":[{"name":"isLocal","type":"bool","internalType":"bool"},{"name":"relDepth","type":"uint256","internalType":"uint256"}],"stateMutability":"view"},{"type":"function","name":"findRelDepthInner","inputs":[{"name":"voter","type":"address","internalType":"address"},{"name":"recipient","type":"address","internalType":"address"}],"outputs":[{"name":"isLocal","type":"bool","internalType":"bool"},{"name":"sRelRootDiff","type":"uint256","internalType":"uint256"},{"name":"rRelRootDiff","type":"uint256","internalType":"uint256"}],"stateMutability":"view"},{"type":"function","name":"findRelRoot","inputs":[{"name":"voter","type":"address","internalType":"address"}],"outputs":[{"name":"relRoot","type":"address","internalType":"address"},{"name":"relDepth","type":"uint256","internalType":"uint256"}],"stateMutability":"view"},{"type":"function","name":"findSentDagVote","inputs":[{"name":"voter","type":"address","internalType":"address"},{"name":"recipient","type":"address","internalType":"address"}],"outputs":[{"name":"votable","type":"bool","internalType":"bool"},{"name":"voted","type":"bool","internalType":"bool"},{"name":"sDist","type":"uint256","internalType":"uint256"},{"name":"rDist","type":"uint256","internalType":"uint256"},{"name":"votePos","type":"uint256","internalType":"uint256"},{"name":"dagVote","type":"tuple","internalType":"struct DagVote","components":[{"name":"id","type":"address","internalType":"address"},{"name":"weight","type":"uint256","internalType":"uint256"},{"name":"dist","type":"uint256","internalType":"uint256"},{"name":"posInOther","type":"uint256","internalType":"uint256"}]}],"stateMutability":"view"},{"type":"function","name":"findSentDagVoteNew","inputs":[{"name":"voter","type":"address","internalType":"address"},{"name":"recipient","type":"address","internalType":"address"}],"outputs":[{"name":"votable","type":"bool","internalType":"bool"},{"name":"voted","type":"bool","internalType":"bool"},{"name":"votePos","type":"uint256","internalType":"uint256"},{"name":"dagVote","type":"tuple","internalType":"struct DagVote","components":[{"name":"id","type":"address","internalType":"address"},{"name":"weight","type":"uint256","internalType":"uint256"},{"name":"dist","type":"uint256","internalType":"uint256"},{"name":"posInOther","type":"uint256","internalType":"uint256"}]}],"stateMutability":"view"},{"type":"function","name":"joinTree","inputs":[{"name":"voter","type":"address","internalType":"address"},{"name":"voterName","type":"string","internalType":"string"},{"name":"recipient","type":"address","internalType":"address"}],"outputs":[],"stateMutability":"nonpayable"},{"type":"function","name":"joinTreeAsRoot","inputs":[{"name":"voter","type":"address","internalType":"address"},{"name":"voterName","type":"string","internalType":"string"}],"outputs":[],"stateMutability":"nonpayable"},{"type":"function","name":"leaveTree","inputs":[{"name":"voter","type":"address","internalType":"address"}],"outputs":[],"stateMutability":"nonpayable"},{"type":"function","name":"lockTree","inputs":[],"outputs":[],"stateMutability":"nonpayable"},{"type":"function","name":"moveTreeVote","inputs":[{"name":"voter","type":"address","internalType":"address"},{"name":"recipient","type":"address","internalType":"address"}],"outputs":[],"stateMutability":"nonpayable"},{"type":"function","name":"name","inputs":[],"outputs":[{"name":"","type":"string","internalType":"string"}],"stateMutability":"view"},{"type":"function","name":"nameOf","inputs":[{"name":"","type":"address","internalType":"address"}],"outputs":[{"name":"","type":"string","internalType":"string"}],"stateMutability":"view"},{"type":"function","name":"readDepth","inputs":[{"name":"voter","type":"address","internalType":"address"}],"outputs":[{"name":"","type":"uint256","internalType":"uint256"}],"stateMutability":"view"},{"type":"function","name":"readRecDagVote","inputs":[{"name":"recipient","type":"address","internalType":"address"},{"name":"votePos","type":"uint256","internalType":"uint256"}],"outputs":[{"name":"","type":"tuple","internalType":"struct DagVote","components":[{"name":"id","type":"address","internalType":"address"},{"name":"weight","type":"uint256","internalType":"uint256"},{"name":"dist","type":"uint256","internalType":"uint256"},{"name":"posInOther","type":"uint256","internalType":"uint256"}]}],"stateMutability":"view"},{"type":"function","name":"readSentDagVote","inputs":[{"name":"voter","type":"address","internalType":"address"},{"name":"votePos","type":"uint256","internalType":"uint256"}],"outputs":[{"name":"","type":"tuple","internalType":"struct DagVote","components":[{"name":"id","type":"address","internalType":"address"},{"name":"weight","type":"uint256","internalType":"uint256"},{"name":"dist","type":"uint256","internalType":"uint256"},{"name":"posInOther","type":"uint256","internalType":"uint256"}]}],"stateMutability":"view"},{"type":"function","name":"recDagVote","inputs":[{"name":"voter","type":"address","internalType":"address"},{"name":"counter","type":"uint256","internalType":"uint256"}],"outputs":[{"name":"id","type":"address","internalType":"address"},{"name":"weight","type":"uint256","internalType":"uint256"},{"name":"dist","type":"uint256","internalType":"uint256"},{"name":"posInOther","type":"uint256","internalType":"uint256"}],"stateMutability":"view"},{"type":"function","name":"recDagVoteCount","inputs":[{"name":"voter","type":"address","internalType":"address"}],"outputs":[{"name":"count","type":"uint256","internalType":"uint256"}],"stateMutability":"view"},{"type":"function","name":"recTreeVote","inputs":[{"name":"","type":"address","internalType":"address"},{"name":"","type":"uint256","internalType":"uint256"}],"outputs":[{"name":"","type":"address","internalType":"address"}],"stateMutability":"view"},{"type":"function","name":"recTreeVoteCount","inputs":[{"name":"","type":"address","internalType":"address"}],"outputs":[{"name":"","type":"uint256","internalType":"uint256"}],"stateMutability":"view"},{"type":"function","name":"removeDagVote","inputs":[{"name":"voter","type":"address","internalType":"address"},{"name":"recipient","type":"address","internalType":"address"}],"outputs":[],"stateMutability":"nonpayable"},{"type":"function","name":"reputation","inputs":[{"name":"","type":"address","internalType":"address"}],"outputs":[{"name":"","type":"uint256","internalType":"uint256"}],"stateMutability":"view"},{"type":"function","name":"reputationEpoch","inputs":[],"outputs":[{"name":"","type":"uint256","internalType":"uint256"}],"stateMutability":"view"},{"type":"function","name":"root","inputs":[],"outputs":[{"name":"","type":"address","internalType":"address"}],"stateMutability":"view"},{"type":"function","name":"sentDagVote","inputs":[{"name":"voter","type":"address","internalType":"address"},{"name":"counter","type":"uint256","internalType":"uint256"}],"outputs":[{"name":"id","type":"address","internalType":"address"},{"name":"weight","type":"uint256","internalType":"uint256"},{"name":"dist","type":"uint256","internalType":"uint256"},{"name":"posInOther","type":"uint256","internalType":"uint256"}],"stateMutability":"view"},{"type":"function","name":"sentDagVoteCount","inputs":[{"name":"voter","type":"address","internalType":"address"}],"outputs":[{"name":"count","type":"uint256","internalType":"uint256"}],"stateMutability":"view"},{"type":"function","name":"sentDagVoteTotalWeight","inputs":[{"name":"","type":"address","internalType":"address"}],"outputs":[{"name":"","type":"uint256","internalType":"uint256"}],"stateMutability":"view"},{"type":"function","name":"sentTreeVote","inputs":[{"name":"","type":"address","internalType":"address"}],"outputs":[{"name":"","type":"address","internalType":"address"}],"stateMutability":"view"},{"type":"function","name":"switchPositionWithParent","inputs":[{"name":"voter","type":"address","internalType":"address"}],"outputs":[],"stateMutability":"nonpayable"},{"type":"function","name":"symbol","inputs":[],"outputs":[{"name":"","type":"string","internalType":"string"}],"stateMutability":"view"},{"type":"function","name":"tokenName","inputs":[],"outputs":[{"name":"","type":"string","internalType":"string"}],"stateMutability":"view"},{"type":"function","name":"tokenSymbol","inputs":[],"outputs":[{"name":"","type":"string","internalType":"string"}],"stateMutability":"view"},{"type":"function","name":"unlocked","inputs":[],"outputs":[{"name":"","type":"bool","internalType":"bool"}],"stateMutability":"view"},{"type":"event","name":"AddDagVoteEvent","inputs":[{"name":"voter","type":"address","indexed":false,"internalType":"address"},{"name":"recipient","type":"address","indexed":false,"internalType":"address"},{"name":"weight","type":"uint256","indexed":false,"internalType":"uint256"}],"anonymous":false},{"type":"event","name":"ChangeNameEvent","inputs":[{"name":"voter","type":"address","indexed":false,"internalType":"address"},{"name":"newName","type":"string","indexed":false,"internalType":"string"}],"anonymous":false},{"type":"event","name":"JoinTreeEvent","inputs":[{"name":"voter","type":"address","indexed":false,"internalType":"address"},{"name":"name","type":"string","indexed":false,"internalType":"string"},{"name":"recipient","type":"address","indexed":false,"internalType":"address"}],"anonymous":false},{"type":"event","name":"LeaveTreeEvent","inputs":[{"name":"voter","type":"address","indexed":false,"internalType":"address"}],"anonymous":false},{"type":"event","name":"MoveTreeVoteEvent","inputs":[{"name":"voter","type":"address","indexed":false,"internalType":"address"},{"name":"recipient","type":"address","indexed":false,"internalType":"address"}],"anonymous":false},{"type":"event","name":"RemoveDagVoteEvent","inputs":[{"name":"voter","type":"address","indexed":false,"internalType":"address"},{"name":"recipient","type":"address","indexed":false,"internalType":"address"}],"anonymous":false},{"type":"event","name":"SwitchPositionWithParentEvent","inputs":[{"name":"voter","type":"address","indexed":false,"internalType":"address"}],"anonymous":false}],"bytecode":{"object":"0x5f805460ff1916600117905560c06040526007608090815266105b9d1a1a5b1b60ca1b60a052600e906200003490826200011b565b506040805180820190915260048152630829ca8960e31b6020820152600f906200005f90826200011b565b503480156200006c575f80fd5b5060126010556006600155620001e7565b634e487b7160e01b5f52604160045260245ffd5b600181811c90821680620000a657607f821691505b602082108103620000c557634e487b7160e01b5f52602260045260245ffd5b50919050565b601f8211156200011657805f5260205f20601f840160051c81016020851015620000f25750805b601f840160051c820191505b8181101562000113575f8155600101620000fe565b50505b505050565b81516001600160401b038111156200013757620001376200007d565b6200014f8162000148845462000091565b84620000cb565b602080601f83116001811462000185575f84156200016d5750858301515b5f19600386901b1c1916600185901b178555620001df565b5f85815260208120601f198616915b82811015620001b55788860151825594840194600190910190840162000194565b5085821015620001d357878501515f19600388901b60f8161c191681555b505060018460011b0185555b505050505050565b61380580620001f55f395ff3fe608060405234801561000f575f80fd5b506004361061028c575f3560e01c8063928e461811610161578063b9f79451116100ca578063dd88aa9511610084578063dd88aa951461072c578063ebf0c7171461073f578063eeaebe8714610747578063f5c573821461075a578063fa2465f11461076d578063ff8f07de14610780575f80fd5b8063b9f7945114610696578063c52aeedb146106b5578063c54d72c8146106d4578063c5ce0318146106f3578063c68d6f6114610706578063cf6ed9f914610719575f80fd5b8063a68dd61d1161011b578063a68dd61d14610579578063a8139574146105a1578063a9895c0414610614578063ab1e7a7814610627578063b6cabd831461063a578063b9aae95d14610683575f80fd5b8063928e4618146104b057806393dac9d1146104c357806395d89b41146104f3578063965f9143146104fb578063a16877d514610546578063a2e64c3914610570575f80fd5b80634cefac581161020357806370a08231116101bd57806370a082311461043257806373be64a61461045a5780637b61c320146104795780637ea6701514610481578063825a38551461048a57806385ef59161461049d575f80fd5b80634cefac58146103c75780634d9852b3146103ea5780635c68f16d146103f35780636a5e2650146103fb5780636be22cd2146104175780636c02a9311461042a575f80fd5b8063199cd8c011610254578063199cd8c01461033f57806327c06fd514610354578063313ce5671461036757806337ba0eb11461036f5780633aaf189b1461038257806345ca25ed146103b4575f80fd5b80630520b5a41461029057806306fdde03146102be5780631304b6bd146102d35780631406250d146103005780631688c38914610320575b5f80fd5b6102a361029e3660046131be565b610793565b6040516102b59695949392919061321b565b60405180910390f35b6102c66108d4565b6040516102b5919061325a565b6102f26102e13660046132a6565b600c6020525f908152604090205481565b6040519081526020016102b5565b61031361030e3660046132bf565b610964565b6040516102b591906132e7565b6102f261032e3660046132a6565b60096020525f908152604090205481565b61035261034d366004613333565b6109c8565b005b6102f26103623660046132a6565b610b4b565b6010546102f2565b61035261037d3660046131be565b610b56565b6103956103903660046132a6565b610c27565b604080516001600160a01b0390931683526020830191909152016102b5565b6103526103c2366004613333565b610cc3565b6103da6103d53660046131be565b610dab565b6040516102b59493929190613382565b6102f2600b5481565b610352610dd3565b5f546104079060ff1681565b60405190151581526020016102b5565b6103526104253660046132a6565b610de9565b6102c6610f83565b6102f26104403660046132a6565b6001600160a01b03165f908152600d602052604090205490565b6102f26104683660046132a6565b60086020525f908152604090205481565b6102c661100f565b6102f260015481565b6102f26104983660046132a6565b61101c565b6103136104ab3660046132bf565b611099565b6103526104be3660046132a6565b6110fa565b6104d66104d13660046131be565b6112b2565b6040805193151584526020840192909252908201526060016102b5565b6102c6611363565b61052e6105093660046132bf565b600560209081525f92835260408084209091529082529020546001600160a01b031681565b6040516001600160a01b0390911681526020016102b5565b6105596105543660046131be565b611372565b6040805192151583526020830191909152016102b5565b6102f260105481565b61052e6105873660046132a6565b60036020525f90815260409020546001600160a01b031681565b6105ea6105af3660046132bf565b600a60209081525f928352604080842090915290825290208054600182015460028301546003909301546001600160a01b0390921692909184565b604080516001600160a01b03909516855260208501939093529183015260608201526080016102b5565b6103da6106223660046131be565b611491565b6104d66106353660046131be565b6114a6565b6105ea6106483660046132bf565b600760209081525f928352604080842090915290825290208054600182015460028301546003909301546001600160a01b0390921692909184565b6102a36106913660046131be565b6115dc565b6102f26106a43660046132a6565b600d6020525f908152604090205481565b6102f26106c33660046132a6565b60046020525f908152604090205481565b6102f26106e23660046132a6565b60066020525f908152604090205481565b6103526107013660046131be565b61172d565b61052e6107143660046132bf565b61193e565b6104d66107273660046131be565b6119f8565b61055961073a3660046131be565b611ae2565b61052e611b0c565b6103526107553660046133b0565b611b61565b6102c66107683660046132a6565b611d72565b61035261077b366004613411565b611d8a565b61035261078e3660046132a6565b611e78565b5f805f805f6107a0613176565b6107aa88886112b2565b919750945092508515806107bd57508284145b15610802575f805f805f60405180608001604052805f6001600160a01b031681526020015f81526020015f81526020015f8152509550955095509550955095506108ca565b5f5b6001600160a01b0389165f9081526006602052604090205481101561089b576001600160a01b03808a165f90815260076020908152604080832085845282529182902082516080810184528154851680825260018301549382019390935260028201549381019390935260030154606083015290918a169003610892576001975087965090925090506108ca565b50600101610804565b5050604080516080810182525f8082526020820181905291810182905260608101829052600196509094508491505b9295509295509295565b6060600e80546108e39061344a565b80601f016020809104026020016040519081016040528092919081815260200182805461090f9061344a565b801561095a5780601f106109315761010080835404028352916020019161095a565b820191905f5260205f20905b81548152906001019060200180831161093d57829003601f168201915b5050505050905090565b61096c613176565b506001600160a01b038083165f9081526007602090815260408083208584528252918290208251608081018452815490941684526001810154918401919091526002810154918301919091526003015460608201525b92915050565b5f54839060ff16610a0457336001600160a01b03821614610a045760405162461bcd60e51b81526004016109fb90613482565b60405180910390fd5b6001600160a01b038481165f908152600360205260409020541615610a565760405162461bcd60e51b81526020600482015260086024820152672090352a20a9101960c11b60448201526064016109fb565b5f610a5f611b0c565b6001600160a01b031614610aa05760405162461bcd60e51b815260206004820152600860248201526741206a544152203360c01b60448201526064016109fb565b6001600160a01b0384165f908152600260205260409020610ac283858361350b565b505050506001600160a01b03165f8181526003602090815260408220805460016001600160a01b031991821681179092557f07f793f8fd62a1688d9e2ebd2c8b2e8ab72cd080250f71b53bf5b4113f244d5e805490911690941790935590829052600490527fabd6e7cb50984ff9c2f3e18a2660c3353dadf4e3291deeb275dae2cd1e44fe0555565b5f6109c2825f611f23565b5f54829060ff16610b8957336001600160a01b03821614610b895760405162461bcd60e51b81526004016109fb90613482565b5f80610b958585611491565b50925092505081610bd25760405162461bcd60e51b8152602060048201526007602482015266209039222b101960c91b60448201526064016109fb565b610bdc858261203b565b604080516001600160a01b038088168252861660208201527f279965e71edc78fe4a286c30591ffcb9f45817389fb57d4f2d5d2dbbd20c5b1991015b60405180910390a15050505050565b6001600160a01b038181165f908152600360205260408120549091829116610c7d5760405162461bcd60e51b815260206004820152600960248201526841692c20665252203160b81b60448201526064016109fb565b508190505f805b600154821015610cbd57506001600160a01b038083165f90815260036020526040902054165f19810115610cbd57915060010181610c84565b50915091565b5f54839060ff16610cf657336001600160a01b03821614610cf65760405162461bcd60e51b81526004016109fb90613482565b6001600160a01b038481165f9081526003602052604090205416610d475760405162461bcd60e51b815260206004820152600860248201526741206a544152203560c01b60448201526064016109fb565b6001600160a01b0384165f908152600260205260409020610d6983858361350b565b507f0a68bea90481253adfebc561eb239c93e477569441a54caca19db9b0013393c6848484604051610d9d939291906135ed565b60405180910390a150505050565b5f805f610db6613176565b610dc086866115dc565b949b939a50985092965090945050505050565b5f5460ff1615610de7575f805460ff191690555b565b5f54819060ff16610e1c57336001600160a01b03821614610e1c5760405162461bcd60e51b81526004016109fb90613482565b6001600160a01b038083165f908152600360205260409020541680610e6c5760405162461bcd60e51b815260206004820152600660248201526541206c54203360d01b60448201526064016109fb565b5f196001600160a01b03821601610eae5760405162461bcd60e51b815260206004820152600660248201526510481b15080d60d21b60448201526064016109fb565b6001600160a01b038082165f9081526003602052604081205490911690610ed485610b4b565b90505f610ee084610b4b565b9050808211610f1a5760405162461bcd60e51b815260206004820152600660248201526541206c54203560d01b60448201526064016109fb565b610f278485885f806120af565b610f3586848660025f6120af565b610f3e8661240a565b6040516001600160a01b03871681527f04be1b56fbf390324cfb0745416a4cc51f51253b68c570ec1e696c1044b2ddcf906020015b60405180910390a1505050505050565b600e8054610f909061344a565b80601f0160208091040260200160405190810160405280929190818152602001828054610fbc9061344a565b80156110075780601f10610fde57610100808354040283529160200191611007565b820191905f5260205f20905b815481529060010190602001808311610fea57829003601f168201915b505050505081565b600f8054610f909061344a565b6001600160a01b038181165f9081526003602052604081205490911661104357505f919050565b6001600160a01b038281165f90815260036020526040902054165f190161106b57505f919050565b6001600160a01b038083165f9081526003602052604090205461108e911661101c565b6109c2906001613625565b6110a1613176565b506001600160a01b039182165f908152600a602090815260408083209383529281529082902082516080810184528154909416845260018101549184019190915260028101549183019190915260030154606082015290565b6001600160a01b038181165f908152600360205260409020541661111b5750565b600b546001600160a01b0382165f908152600c60205260409020540361113e5750565b5f805b6001600160a01b0383165f90815260096020526040902054811015611268576001600160a01b038084165f908152600a602090815260408083208584528252808320815160808101835281549095168086526001820154868501526002820154868401526003909101546060860152600b54908452600c909252909120541461120c5760405162461bcd60e51b815260206004820152601860248201527f6368696c6420726570206e6f742063616c63756c61746564000000000000000060448201526064016109fb565b80516001600160a01b039081165f908152600860209081526040808320548286015186519095168452600d90925290912054909161124991613638565b611253919061364f565b61125d9084613625565b925050600101611141565b5060105461127790600a61374e565b6112819082613625565b6001600160a01b039092165f908152600d6020908152604080832094909455600b54600c9091529290209190915550565b6001600160a01b038281165f908152600360205260408120549091829182911615806112f557506001600160a01b038481165f9081526003602052604090205416155b1561130757505f91508190508061135c565b5f6113128686611ae2565b90945090508361132b575f805f9350935093505061135c565b5f611336878361193e565b90505f6113438288611372565b91508690506113528483613625565b9096509450925050505b9250925092565b6060600f80546108e39061344a565b5f80826001600160a01b0316846001600160a01b0316036113985750600190505f61148a565b6001600160a01b038481165f908152600360205260409020541615806113d557506001600160a01b038381165f9081526003602052604090205416155b156113e457505f90508061148a565b6001600160a01b038481165f90815260036020526040902054166001148061142557506001600160a01b038381165f90815260036020526040902054166001145b1561143457505f90508061148a565b6001600160a01b038085165f90815260036020526040808220548684168352912054611464929182169116611372565b9092509050811561148457600161147b8282613625565b9150915061148a565b505f9050805b9250929050565b5f805f61149c613176565b610dc08686610793565b6001600160a01b038281165f908152600360205260408120549091829182911615806114e957506001600160a01b038481165f9081526003602052604090205416155b156114fb57505f91508190508061135c565b5f805f805f61150a8a8a6119f8565b91965094509250841561152157508890508761154f565b508790508861153082826119f8565b919650945092508461154f575f805f975097509750505050505061135c565b5f61155e836107148688613759565b90505f61156b8284611372565b9150508b6001600160a01b0316846001600160a01b0316036115b1576001856115948884613625565b61159e9190613759565b829950995099505050505050505061135c565b8681866115be8983613625565b6115c89190613759565b995099509950505050505050509250925092565b5f805f805f6115e9613176565b5f805f6115f68b8b6112b2565b9194509250905082158061160957508082145b15611651575f805f805f60405180608001604052805f6001600160a01b031681526020015f81526020015f81526020015f8152509850985098509850985098505050506108ca565b5f5b6001600160a01b038b165f908152600960205260409020548110156116f1576001600160a01b03808c165f908152600a6020908152604080832085845282529182902082516080810184528154851680825260018301549382019390935260028201549381019390935260030154606083015290918e1690036116e85760019a508a9950929750909550935091506108ca9050565b50600101611653565b50604080516080810182525f808252602082018190529181018290526060810182905260019d919c50929a509098508a97509095509350505050565b5f54829060ff1661176057336001600160a01b038216146117605760405162461bcd60e51b81526004016109fb90613482565b6001600160a01b038381165f90815260036020526040902054166117b05760405162461bcd60e51b8152602060048201526007602482015266209036aa2b101960c91b60448201526064016109fb565b6001600160a01b038281165f90815260036020526040902054166118005760405162461bcd60e51b815260206004820152600760248201526641206d5456203360c81b60448201526064016109fb565b6001600160a01b0382165f908152600460205260409020546002116118515760405162461bcd60e51b815260206004820152600760248201526610481b5515880d60ca1b60448201526064016109fb565b5f805f61185e86866114a6565b6001600160a01b03808a165f908152600360205260409020549396509194509250166118898761259d565b821580156118945750835b156118c957806001600160a01b03166118ad878461193e565b6001600160a01b0316036118c9576118c6600183613759565b91505b5082156118e2576118dd86865f85856120af565b6118f4565b6118eb8661269c565b6118f4866126db565b6118fe868661271a565b604080516001600160a01b038089168252871660208201527fc53fde28a3da784bd628fee9896334592fb5ba4b6ebc5f7259df043b0d3012479101610f73565b5f815f0361194d5750816109c2565b6001600160a01b038381165f90815260036020526040902054165f1901611976575060016109c2565b6001600160a01b038381165f90815260036020526040902054166119c85760405162461bcd60e51b815260206004820152600960248201526841692c20664e50203160b81b60448201526064016109fb565b6001600160a01b038084165f908152600360205260409020546119f19116610714600185613759565b9392505050565b6001600160a01b038281165f90815260036020526040812054909182918291161580611a3b57506001600160a01b038481165f9081526003602052604090205416155b15611a4d57505f91508190508061135c565b5f611a5786610c27565b93509050845f5b848111611ad157826001600160a01b0316826001600160a01b031603611a8c5760019550925061135c915050565b6001600160a01b039182165f908152600360205260409020549091169081611abf575f805f95509550955050505061135c565b80611ac98161376c565b915050611a5e565b505f97889750879650945050505050565b5f805f80611af086866119f8565b91955092509050611b018183613759565b925050509250929050565b5f80527f1471eb6eb2c5e789fc3de43f8ce62938c7d1836ec861730447e2ada8fd81017b6020527f07f793f8fd62a1688d9e2ebd2c8b2e8ab72cd080250f71b53bf5b4113f244d5e546001600160a01b031690565b5f54849060ff16611b9457336001600160a01b03821614611b945760405162461bcd60e51b81526004016109fb90613482565b6001600160a01b038581165f908152600360205260409020541615611be45760405162461bcd60e51b81526020600482015260066024820152652090362a101960d11b60448201526064016109fb565b6001600160a01b038281165f9081526003602052604090205416611c335760405162461bcd60e51b815260206004820152600660248201526541206c54203360d01b60448201526064016109fb565b6001600160a01b0382165f90815260046020526040902054600211611c835760405162461bcd60e51b815260206004820152600660248201526510481b15080d60d21b60448201526064016109fb565b6001600160a01b038581165f90815260036020908152604080832080546001600160a01b031916948716949094179093556002905220611cc484868361350b565b506001600160a01b038281165f81815260056020908152604080832060048084528285208054865291845291842080546001600160a01b031916968c1696909617909555929091525254611d19906001613625565b6001600160a01b0383165f90815260046020526040902055611d3d85836001611d8a565b7fca7e50aa547fb9bcc29db85b16153299ff137fdb6e0818d13795021889d3ddaa85858585604051610c189493929190613784565b60026020525f908152604090208054610f909061344a565b5f54839060ff16611dbd57336001600160a01b03821614611dbd5760405162461bcd60e51b81526004016109fb90613482565b5f805f80611dcb8888610793565b50509350935093509350838015611de0575082155b611e165760405162461bcd60e51b8152602060048201526007602482015266209030a22b101960c91b60448201526064016109fb565b611e23888884848a61277b565b604080516001600160a01b03808b168252891660208201529081018790527f7ac00444e3428c19fc2364070529d9672439c0dcc082b6d698337002f325001d9060600160405180910390a15050505050505050565b5f54819060ff16611eab57336001600160a01b03821614611eab5760405162461bcd60e51b81526004016109fb90613482565b611eb48261269c565b611ebd826126db565b611ec68261259d565b6001600160a01b0382165f8181526003602090815260409182902080546001600160a01b031916905590519182527fc6e5f8deeecea7a16e6150f79d6da5196e1861c255eb682de9e28576f0915f45910160405180910390a15050565b5f806001600160a01b038416611f3c575f9150506109c2565b5f5b6001600160a01b0385165f90815260096020526040902054811015611fff576001600160a01b038086165f908152600a6020908152604080832085845282528083208151608081018352815490951680865260018083015487860190815260028401548886015260039093015460608801529085526008909352922054915183519091611fd69190611fd1908a90613625565b611f23565b611fe09190613638565b611fea919061364f565b611ff49084613625565b925050600101611f3e565b5060105461200e90600a61374e565b6120189082613625565b6001600160a01b0385165f908152600d6020526040902081905591505092915050565b6001600160a01b038083165f908152600760209081526040808320858452825291829020825160808101845281549094168452600181015491840191909152600281015491830191909152600301546060820152612099838361290b565b6120aa815f01518260600151612bc4565b505050565b5f5460ff166120f65760405162461bcd60e51b815260206004820152601360248201527220b73a241d1037b7363c903ab73637b1b5b2b960691b60448201526064016109fb565b63999999996001600160a01b03841661213f576001600160a01b0381165f90815260036020526040902080546001600160a01b031916600117905561213b818661271a565b8093505b6001600160a01b0386165f90815260066020526040902054805b801561228e576001600160a01b0388165f90815260076020526040812081612182600185613759565b815260208082019290925260409081015f908120825160808101845281546001600160a01b031680825260018301549582019590955260028201549381019390935260030154606083015290925090819081906121e0908b906112b2565b9250925092508215806121f257508082145b156122145761220b8c612206600188613759565b61203b565b5050505061227e565b6001600160a01b038c165f9081526007602052604081208391612238600189613759565b815260208082019290925260409081015f90812060029081019490945587516001600160a01b03168152600a835281812060608901518252909252902001819055505050505b612287816137ba565b9050612159565b50506001600160a01b0386165f90815260096020526040902054805b80156123de576001600160a01b0388165f908152600a60205260408120816122d3600185613759565b815260208082019290925260409081015f908120825160808101845281546001600160a01b03168082526001830154958201959095526002820154938101939093526003015460608301529092509081908190612330908b6112b2565b92509250925082158061234257508082145b156123645761235b8c612356600188613759565b612dbc565b505050506123ce565b6001600160a01b038c165f908152600a602052604081208291612388600189613759565b815260208082019290925260409081015f90812060029081019490945587516001600160a01b031681526007835281812060608901518252909252902001829055505050505b6123d7816137ba565b90506122aa565b50816001600160a01b0316856001600160a01b0316036124015761240182612e2b565b50505050505050565b6001600160a01b038082165f90815260036020526040902054168061245f5760405162461bcd60e51b815260206004820152600b60248201526a41692c207354565750203160a81b60448201526064016109fb565b5f196001600160a01b038216016124a65760405162461bcd60e51b815260206004820152600b60248201526a20b4961039aa2b2ba8101960a91b60448201526064016109fb565b6001600160a01b038082165f90815260036020526040902054166124c983612e2b565b6124d282612e2b565b6001600160a01b038281165f908152600560208181526040808420848052825280842054888616855292825280842084805290915280832054600184529220549083169291821691166125258685612f94565b61252f8587612f94565b6001600160a01b038316156125515761254783612e2b565b6125518387612f94565b6001600160a01b038216156125735761256982612e2b565b6125738286612f94565b6001600160a01b038116156125955761258b81612e2b565b6125958186612f94565b505050505050565b5f5460ff166125d75760405162461bcd60e51b8152602060048201526006602482015265209034262b2160d11b60448201526064016109fb565b6001600160a01b038181165f9081526003602090815260408083205460058352818420848052909252808320546001845292205490831692918216911681156126675761262882848660025f6120af565b6126328285613073565b6001600160a01b038116156126545761264a81612e2b565b612654818361271a565b61265d82612e2b565b6126678284612f94565b61267084612e2b565b5050506001600160a01b03165f90815260036020526040902080546001600160a01b0319166001179055565b6001600160a01b0381165f90815260066020526040902054805b80156120aa576126cb83612206600184613759565b6126d4816137ba565b90506126b6565b6001600160a01b0381165f90815260096020526040902054805b80156120aa5761270a83612356600184613759565b612713816137ba565b90506126f5565b6001600160a01b0381165f9081526004602052604090205460021161276d5760405162461bcd60e51b815260206004820152600960248201526820b4961030a22b101960b91b60448201526064016109fb565b6127778282612f94565b5050565b604080516080810182526001600160a01b0386811680835260208084018681528486018981525f9384526009835286842054606087019081528c86168086526007855288862060068087528a882080548952918752998720985189546001600160a01b03191698169790971788559251600188015590516002870155516003909501949094559281529290915280549091906128169061376c565b909155506001600160a01b0385165f9081526008602052604081208054839290612841908490613625565b9091555050604080516080810182526001600160a01b03871680825260208083018590528284018690525f918252600690529190912054606082019061288990600190613759565b90526001600160a01b038581165f818152600a60209081526040808320600980845282852080548652918452828520885181546001600160a01b031916981697909717875587840151600188015591870151600287015560609096015160039095019490945591815291905281546129009061376c565b909155505050505050565b6001600160a01b038083165f818152600760209081526040808320868452825280832081516080810183528154909616865260018101548684018190526002820154878401526003909101546060870152938352600890915281208054909190612976908490613759565b90915550506001600160a01b0383165f9081526006602052604090205461299f90600190613759565b8214612b33576001600160a01b0383165f908152600760209081526040808320600690925282205482906129d590600190613759565b81526020019081526020015f206040518060800160405290815f82015f9054906101000a90046001600160a01b03166001600160a01b03166001600160a01b03168152602001600182015481526020016002820154815260200160038201548152505090506040518060800160405280825f01516001600160a01b031681526020018260200151815260200182604001518152602001826060015181525060075f866001600160a01b03166001600160a01b031681526020019081526020015f205f8581526020019081526020015f205f820151815f015f6101000a8154816001600160a01b0302191690836001600160a01b0316021790555060208201518160010155604082015181600201556060820151816003015590505082600a5f835f01516001600160a01b03166001600160a01b031681526020019081526020015f205f836060015181526020019081526020015f2060030181905550505b6001600160a01b0383165f9081526007602090815260408083206006909252822054909190612b6490600190613759565b815260208082019290925260409081015f90812080546001600160a01b031916815560018101829055600281018290556003018190556001600160a01b0386168152600690925281208054909190612bbb906137ba565b90915550505050565b5f5460ff16612c015760405162461bcd60e51b815260206004820152600960248201526841207553524456203160b81b60448201526064016109fb565b6001600160a01b0382165f90815260096020526040902054612c2590600190613759565b8114612d2c576001600160a01b0382165f908152600a6020908152604080832060099092528220548290612c5b90600190613759565b815260208082019290925260409081015f90812082516080808201855282546001600160a01b039081168352600180850154848901908152600280870154868a0190815260039788015460608089019182528b519788018c528851871688529351878d019081529151878c0190815281519488019485528f87168b52600a8d528b8b208f8c528d528b8b20975188546001600160a01b031916908816178855915194870194909455519085015551928501929092559151909116835260078552838320905183529093522001829055505b6001600160a01b0382165f908152600a602090815260408083206009909252822054909190612d5d90600190613759565b815260208082019290925260409081015f90812080546001600160a01b031916815560018101829055600281018290556003018190556001600160a01b0385168152600990925281208054909190612db4906137ba565b909155505050565b6001600160a01b038083165f908152600a60209081526040808320858452825291829020825160808101845281549094168452600181015491840191909152600281015491830191909152600301546060820152612e1a8383612bc4565b6120aa815f0151826060015161290b565b6001600160a01b038082165f8181526003602090815260408083205485168084526005835281842084805290925282205490939192911614612e6e576001612e70565b5f5b6001600160a01b0383165f908152600560209081526040808320600490925282205460ff93909316935091612ea790600190613759565b815260208082019290925260409081015f908120546001600160a01b038681168084526005865284842087855280875285852080546001600160a01b03191693909416929092179092559082526004909352908120549091908290612f0e90600190613759565b815260208082019290925260409081015f90812080546001600160a01b0319166001600160a01b0395861617905592851683526004909152902054612f5590600190613759565b6001600160a01b039283165f908152600460209081526040808320939093559490931683526003909352502080546001600160a01b0319166001179055565b6001600160a01b038281165f9081526003602052604090205416600114612feb5760405162461bcd60e51b815260206004820152600b60248201526a41692c206154565743203160a81b60448201526064016109fb565b6001600160a01b038083165f81815260036020908152604080832080549587166001600160a01b03199687168117909155808452600583528184206004808552838620805487529185529285208054909716909517909555939091529190915254613057906001613625565b6001600160a01b039091165f9081526004602052604090205550565b5f5460ff166130ac5760405162461bcd60e51b81526020600482015260056024820152642090382aa160d91b60448201526064016109fb565b6001600160a01b038281165f908152600560209081526040808320838052909152808220546001835291205490821691168115613170576130f182848660025f6120af565b5f805f6130fe8587610793565b955095505050935050821561314457604081015161311d906001613625565b6001600160a01b0386165f9081526007602090815260408083208684529091529020600201555b61314e8588613073565b6001600160a01b038416156124015761316684612e2b565b612401848661271a565b50505050565b60405180608001604052805f6001600160a01b031681526020015f81526020015f81526020015f81525090565b80356001600160a01b03811681146131b9575f80fd5b919050565b5f80604083850312156131cf575f80fd5b6131d8836131a3565b91506131e6602084016131a3565b90509250929050565b80516001600160a01b031682526020808201519083015260408082015190830152606090810151910152565b5f610120820190508715158252861515602083015285604083015284606083015283608083015261324f60a08301846131ef565b979650505050505050565b5f602080835283518060208501525f5b818110156132865785810183015185820160400152820161326a565b505f604082860101526040601f19601f8301168501019250505092915050565b5f602082840312156132b6575f80fd5b6119f1826131a3565b5f80604083850312156132d0575f80fd5b6132d9836131a3565b946020939093013593505050565b608081016109c282846131ef565b5f8083601f840112613305575f80fd5b50813567ffffffffffffffff81111561331c575f80fd5b60208301915083602082850101111561148a575f80fd5b5f805f60408486031215613345575f80fd5b61334e846131a3565b9250602084013567ffffffffffffffff811115613369575f80fd5b613375868287016132f5565b9497909650939450505050565b841515815283151560208201526040810183905260e081016133a760608301846131ef565b95945050505050565b5f805f80606085870312156133c3575f80fd5b6133cc856131a3565b9350602085013567ffffffffffffffff8111156133e7575f80fd5b6133f3878288016132f5565b90945092506134069050604086016131a3565b905092959194509250565b5f805f60608486031215613423575f80fd5b61342c846131a3565b925061343a602085016131a3565b9150604084013590509250925092565b600181811c9082168061345e57607f821691505b60208210810361347c57634e487b7160e01b5f52602260045260245ffd5b50919050565b60208082526010908201526f20b73a241d1037b7363c903b37ba32b960811b604082015260600190565b634e487b7160e01b5f52604160045260245ffd5b601f8211156120aa57805f5260205f20601f840160051c810160208510156134e55750805b601f840160051c820191505b81811015613504575f81556001016134f1565b5050505050565b67ffffffffffffffff831115613523576135236134ac565b61353783613531835461344a565b836134c0565b5f601f841160018114613568575f85156135515750838201355b5f19600387901b1c1916600186901b178355613504565b5f83815260208120601f198716915b828110156135975786850135825560209485019460019092019101613577565b50868210156135b3575f1960f88860031b161c19848701351681555b505060018560011b0183555050505050565b81835281816020850137505f828201602090810191909152601f909101601f19169091010190565b6001600160a01b03841681526040602082018190525f906133a790830184866135c5565b634e487b7160e01b5f52601160045260245ffd5b808201808211156109c2576109c2613611565b80820281158282048414176109c2576109c2613611565b5f8261366957634e487b7160e01b5f52601260045260245ffd5b500490565b600181815b808511156136a857815f190482111561368e5761368e613611565b8085161561369b57918102915b93841c9390800290613673565b509250929050565b5f826136be575060016109c2565b816136ca57505f6109c2565b81600181146136e057600281146136ea57613706565b60019150506109c2565b60ff8411156136fb576136fb613611565b50506001821b6109c2565b5060208310610133831016604e8410600b8410161715613729575081810a6109c2565b613733838361366e565b805f190482111561374657613746613611565b029392505050565b5f6119f183836136b0565b818103818111156109c2576109c2613611565b5f6001820161377d5761377d613611565b5060010190565b5f60018060a01b038087168352606060208401526137a66060840186886135c5565b915080841660408401525095945050505050565b5f816137c8576137c8613611565b505f19019056fea26469706673582212206967b6699a50b5fa03fc7da9e1f566eb839096f3204a67735c12b057fb5a874164736f6c63430008180033","linkReferences":{}},"methodIdentifiers":{"MAX_REL_ROOT_DEPTH()":"7ea67015","addDagVote(address,address,uint256)":"fa2465f1","balanceOf(address)":"70a08231","calculateReputation(address)":"27c06fd5","calculateReputationIterative(address)":"928e4618","calculatedReputationForEpoch(address)":"1304b6bd","changeName(address,string)":"45ca25ed","decimalPoint()":"a2e64c39","decimals()":"313ce567","findDistAtSameDepth(address,address)":"a16877d5","findDistances(address,address)":"ab1e7a78","findDistancesRecNotLower(address,address)":"93dac9d1","findNthParent(address,uint256)":"c68d6f61","findRecDagVote(address,address)":"b9aae95d","findRecDagVoteNew(address,address)":"4cefac58","findRelDepth(address,address)":"dd88aa95","findRelDepthInner(address,address)":"cf6ed9f9","findRelRoot(address)":"3aaf189b","findSentDagVote(address,address)":"0520b5a4","findSentDagVoteNew(address,address)":"a9895c04","joinTree(address,string,address)":"eeaebe87","joinTreeAsRoot(address,string)":"199cd8c0","leaveTree(address)":"ff8f07de","lockTree()":"5c68f16d","moveTreeVote(address,address)":"c5ce0318","name()":"06fdde03","nameOf(address)":"f5c57382","readDepth(address)":"825a3855","readRecDagVote(address,uint256)":"85ef5916","readSentDagVote(address,uint256)":"1406250d","recDagVote(address,uint256)":"a8139574","recDagVoteCount(address)":"1688c389","recTreeVote(address,uint256)":"965f9143","recTreeVoteCount(address)":"c52aeedb","removeDagVote(address,address)":"37ba0eb1","reputation(address)":"b9f79451","reputationEpoch()":"4d9852b3","root()":"ebf0c717","sentDagVote(address,uint256)":"b6cabd83","sentDagVoteCount(address)":"c54d72c8","sentDagVoteTotalWeight(address)":"73be64a6","sentTreeVote(address)":"a68dd61d","switchPositionWithParent(address)":"6be22cd2","symbol()":"95d89b41","tokenName()":"6c02a931","tokenSymbol()":"7b61c320","unlocked()":"6a5e2650"},"id":29}